{
  "contractName": "TnoEats",
  "abi": [
    {
      "inputs": [
        {
          "internalType": "address",
          "name": "_eurTnoContract",
          "type": "address"
        }
      ],
      "stateMutability": "nonpayable",
      "type": "constructor"
    },
    {
      "anonymous": false,
      "inputs": [
        {
          "indexed": false,
          "internalType": "uint256",
          "name": "id",
          "type": "uint256"
        },
        {
          "indexed": true,
          "internalType": "address",
          "name": "client",
          "type": "address"
        },
        {
          "indexed": true,
          "internalType": "address",
          "name": "seller",
          "type": "address"
        },
        {
          "indexed": true,
          "internalType": "address",
          "name": "deliveryService",
          "type": "address"
        }
      ],
      "name": "OrderAccepted",
      "type": "event"
    },
    {
      "anonymous": false,
      "inputs": [
        {
          "indexed": false,
          "internalType": "uint256",
          "name": "id",
          "type": "uint256"
        },
        {
          "indexed": true,
          "internalType": "address",
          "name": "client",
          "type": "address"
        },
        {
          "indexed": true,
          "internalType": "address",
          "name": "seller",
          "type": "address"
        },
        {
          "indexed": false,
          "internalType": "string",
          "name": "sellerZipCode",
          "type": "string"
        },
        {
          "indexed": false,
          "internalType": "string",
          "name": "clientZipCode",
          "type": "string"
        },
        {
          "indexed": false,
          "internalType": "uint256",
          "name": "deliveryFee",
          "type": "uint256"
        }
      ],
      "name": "OrderApproved",
      "type": "event"
    },
    {
      "anonymous": false,
      "inputs": [
        {
          "indexed": false,
          "internalType": "uint256",
          "name": "id",
          "type": "uint256"
        },
        {
          "indexed": true,
          "internalType": "address",
          "name": "client",
          "type": "address"
        },
        {
          "indexed": true,
          "internalType": "address",
          "name": "seller",
          "type": "address"
        }
      ],
      "name": "OrderCancelled",
      "type": "event"
    },
    {
      "anonymous": false,
      "inputs": [
        {
          "indexed": false,
          "internalType": "uint256",
          "name": "id",
          "type": "uint256"
        },
        {
          "indexed": true,
          "internalType": "address",
          "name": "client",
          "type": "address"
        },
        {
          "indexed": true,
          "internalType": "address",
          "name": "seller",
          "type": "address"
        },
        {
          "indexed": true,
          "internalType": "address",
          "name": "deliveryService",
          "type": "address"
        }
      ],
      "name": "OrderCompleted",
      "type": "event"
    },
    {
      "anonymous": false,
      "inputs": [
        {
          "indexed": false,
          "internalType": "uint256",
          "name": "id",
          "type": "uint256"
        },
        {
          "indexed": true,
          "internalType": "address",
          "name": "client",
          "type": "address"
        },
        {
          "indexed": true,
          "internalType": "address",
          "name": "seller",
          "type": "address"
        },
        {
          "indexed": true,
          "internalType": "address",
          "name": "deliveryService",
          "type": "address"
        }
      ],
      "name": "OrderDelivered",
      "type": "event"
    },
    {
      "anonymous": false,
      "inputs": [
        {
          "indexed": false,
          "internalType": "uint256",
          "name": "id",
          "type": "uint256"
        },
        {
          "indexed": true,
          "internalType": "address",
          "name": "client",
          "type": "address"
        },
        {
          "indexed": true,
          "internalType": "address",
          "name": "seller",
          "type": "address"
        },
        {
          "indexed": true,
          "internalType": "address",
          "name": "deliveryService",
          "type": "address"
        }
      ],
      "name": "OrderInTransit",
      "type": "event"
    },
    {
      "anonymous": false,
      "inputs": [
        {
          "indexed": false,
          "internalType": "uint256",
          "name": "id",
          "type": "uint256"
        },
        {
          "indexed": true,
          "internalType": "address",
          "name": "client",
          "type": "address"
        },
        {
          "indexed": true,
          "internalType": "address",
          "name": "seller",
          "type": "address"
        },
        {
          "indexed": false,
          "internalType": "string",
          "name": "orderContentsUrl",
          "type": "string"
        }
      ],
      "name": "OrderPending",
      "type": "event"
    },
    {
      "anonymous": false,
      "inputs": [
        {
          "indexed": false,
          "internalType": "uint256",
          "name": "id",
          "type": "uint256"
        },
        {
          "indexed": true,
          "internalType": "address",
          "name": "client",
          "type": "address"
        },
        {
          "indexed": true,
          "internalType": "address",
          "name": "seller",
          "type": "address"
        },
        {
          "indexed": true,
          "internalType": "address",
          "name": "deliveryService",
          "type": "address"
        }
      ],
      "name": "OrderPickedUp",
      "type": "event"
    },
    {
      "anonymous": false,
      "inputs": [
        {
          "indexed": false,
          "internalType": "uint256",
          "name": "id",
          "type": "uint256"
        },
        {
          "indexed": true,
          "internalType": "address",
          "name": "client",
          "type": "address"
        },
        {
          "indexed": true,
          "internalType": "address",
          "name": "seller",
          "type": "address"
        },
        {
          "indexed": true,
          "internalType": "address",
          "name": "deliveryService",
          "type": "address"
        }
      ],
      "name": "OrderReceived",
      "type": "event"
    },
    {
      "anonymous": false,
      "inputs": [
        {
          "indexed": false,
          "internalType": "uint256",
          "name": "id",
          "type": "uint256"
        },
        {
          "indexed": true,
          "internalType": "address",
          "name": "client",
          "type": "address"
        },
        {
          "indexed": true,
          "internalType": "address",
          "name": "seller",
          "type": "address"
        }
      ],
      "name": "OrderRejected",
      "type": "event"
    },
    {
      "anonymous": false,
      "inputs": [
        {
          "indexed": false,
          "internalType": "uint256",
          "name": "id",
          "type": "uint256"
        },
        {
          "indexed": true,
          "internalType": "address",
          "name": "client",
          "type": "address"
        },
        {
          "indexed": true,
          "internalType": "address",
          "name": "seller",
          "type": "address"
        },
        {
          "indexed": true,
          "internalType": "address",
          "name": "deliveryService",
          "type": "address"
        }
      ],
      "name": "OrderTransferred",
      "type": "event"
    },
    {
      "anonymous": false,
      "inputs": [
        {
          "indexed": true,
          "internalType": "address",
          "name": "previousOwner",
          "type": "address"
        },
        {
          "indexed": true,
          "internalType": "address",
          "name": "newOwner",
          "type": "address"
        }
      ],
      "name": "OwnershipTransferred",
      "type": "event"
    },
    {
      "inputs": [
        {
          "internalType": "uint256",
          "name": "_orderId",
          "type": "uint256"
        }
      ],
      "name": "acceptOrder",
      "outputs": [],
      "stateMutability": "nonpayable",
      "type": "function"
    },
    {
      "inputs": [
        {
          "internalType": "uint256",
          "name": "_orderId",
          "type": "uint256"
        },
        {
          "internalType": "string",
          "name": "sellerZipCode",
          "type": "string"
        },
        {
          "internalType": "string",
          "name": "clientZipCode",
          "type": "string"
        },
        {
          "internalType": "uint256",
          "name": "_deliveryFee",
          "type": "uint256"
        }
      ],
      "name": "approveOrder",
      "outputs": [],
      "stateMutability": "nonpayable",
      "type": "function"
    },
    {
      "inputs": [
        {
          "internalType": "uint256",
          "name": "_orderId",
          "type": "uint256"
        }
      ],
      "name": "cancelOrder",
      "outputs": [],
      "stateMutability": "nonpayable",
      "type": "function"
    },
    {
      "inputs": [
        {
          "internalType": "uint256",
          "name": "_orderId",
          "type": "uint256"
        }
      ],
      "name": "completeOrder",
      "outputs": [],
      "stateMutability": "nonpayable",
      "type": "function"
    },
    {
      "inputs": [
        {
          "internalType": "uint256",
          "name": "_orderId",
          "type": "uint256"
        }
      ],
      "name": "disputeOrder",
      "outputs": [],
      "stateMutability": "nonpayable",
      "type": "function"
    },
    {
      "inputs": [],
      "name": "getApprovedOrders",
      "outputs": [
        {
          "components": [
            {
              "internalType": "uint256",
              "name": "id",
              "type": "uint256"
            },
            {
              "internalType": "uint256",
              "name": "amount",
              "type": "uint256"
            },
            {
              "internalType": "uint256",
              "name": "deliveryFee",
              "type": "uint256"
            },
            {
              "internalType": "enum OrderFactory.OrderStatus",
              "name": "status",
              "type": "uint8"
            },
            {
              "internalType": "address",
              "name": "client",
              "type": "address"
            },
            {
              "internalType": "address",
              "name": "seller",
              "type": "address"
            },
            {
              "internalType": "address",
              "name": "deliveryService",
              "type": "address"
            },
            {
              "internalType": "string",
              "name": "orderContentsUrl",
              "type": "string"
            },
            {
              "internalType": "string",
              "name": "originZipCode",
              "type": "string"
            },
            {
              "internalType": "string",
              "name": "destinationZipCode",
              "type": "string"
            }
          ],
          "internalType": "struct OrderFactory.Order[]",
          "name": "",
          "type": "tuple[]"
        }
      ],
      "stateMutability": "view",
      "type": "function",
      "constant": true
    },
    {
      "inputs": [
        {
          "internalType": "address",
          "name": "_client",
          "type": "address"
        }
      ],
      "name": "getOrdersByClient",
      "outputs": [
        {
          "components": [
            {
              "internalType": "uint256",
              "name": "id",
              "type": "uint256"
            },
            {
              "internalType": "uint256",
              "name": "amount",
              "type": "uint256"
            },
            {
              "internalType": "uint256",
              "name": "deliveryFee",
              "type": "uint256"
            },
            {
              "internalType": "enum OrderFactory.OrderStatus",
              "name": "status",
              "type": "uint8"
            },
            {
              "internalType": "address",
              "name": "client",
              "type": "address"
            },
            {
              "internalType": "address",
              "name": "seller",
              "type": "address"
            },
            {
              "internalType": "address",
              "name": "deliveryService",
              "type": "address"
            },
            {
              "internalType": "string",
              "name": "orderContentsUrl",
              "type": "string"
            },
            {
              "internalType": "string",
              "name": "originZipCode",
              "type": "string"
            },
            {
              "internalType": "string",
              "name": "destinationZipCode",
              "type": "string"
            }
          ],
          "internalType": "struct OrderFactory.Order[]",
          "name": "",
          "type": "tuple[]"
        }
      ],
      "stateMutability": "view",
      "type": "function",
      "constant": true
    },
    {
      "inputs": [
        {
          "internalType": "address",
          "name": "_deliveryService",
          "type": "address"
        }
      ],
      "name": "getOrdersByDeliveryService",
      "outputs": [
        {
          "components": [
            {
              "internalType": "uint256",
              "name": "id",
              "type": "uint256"
            },
            {
              "internalType": "uint256",
              "name": "amount",
              "type": "uint256"
            },
            {
              "internalType": "uint256",
              "name": "deliveryFee",
              "type": "uint256"
            },
            {
              "internalType": "enum OrderFactory.OrderStatus",
              "name": "status",
              "type": "uint8"
            },
            {
              "internalType": "address",
              "name": "client",
              "type": "address"
            },
            {
              "internalType": "address",
              "name": "seller",
              "type": "address"
            },
            {
              "internalType": "address",
              "name": "deliveryService",
              "type": "address"
            },
            {
              "internalType": "string",
              "name": "orderContentsUrl",
              "type": "string"
            },
            {
              "internalType": "string",
              "name": "originZipCode",
              "type": "string"
            },
            {
              "internalType": "string",
              "name": "destinationZipCode",
              "type": "string"
            }
          ],
          "internalType": "struct OrderFactory.Order[]",
          "name": "",
          "type": "tuple[]"
        }
      ],
      "stateMutability": "view",
      "type": "function",
      "constant": true
    },
    {
      "inputs": [
        {
          "internalType": "address",
          "name": "_seller",
          "type": "address"
        }
      ],
      "name": "getOrdersBySeller",
      "outputs": [
        {
          "components": [
            {
              "internalType": "uint256",
              "name": "id",
              "type": "uint256"
            },
            {
              "internalType": "uint256",
              "name": "amount",
              "type": "uint256"
            },
            {
              "internalType": "uint256",
              "name": "deliveryFee",
              "type": "uint256"
            },
            {
              "internalType": "enum OrderFactory.OrderStatus",
              "name": "status",
              "type": "uint8"
            },
            {
              "internalType": "address",
              "name": "client",
              "type": "address"
            },
            {
              "internalType": "address",
              "name": "seller",
              "type": "address"
            },
            {
              "internalType": "address",
              "name": "deliveryService",
              "type": "address"
            },
            {
              "internalType": "string",
              "name": "orderContentsUrl",
              "type": "string"
            },
            {
              "internalType": "string",
              "name": "originZipCode",
              "type": "string"
            },
            {
              "internalType": "string",
              "name": "destinationZipCode",
              "type": "string"
            }
          ],
          "internalType": "struct OrderFactory.Order[]",
          "name": "",
          "type": "tuple[]"
        }
      ],
      "stateMutability": "view",
      "type": "function",
      "constant": true
    },
    {
      "inputs": [
        {
          "internalType": "uint256",
          "name": "",
          "type": "uint256"
        }
      ],
      "name": "orders",
      "outputs": [
        {
          "internalType": "uint256",
          "name": "id",
          "type": "uint256"
        },
        {
          "internalType": "uint256",
          "name": "amount",
          "type": "uint256"
        },
        {
          "internalType": "uint256",
          "name": "deliveryFee",
          "type": "uint256"
        },
        {
          "internalType": "enum OrderFactory.OrderStatus",
          "name": "status",
          "type": "uint8"
        },
        {
          "internalType": "address",
          "name": "client",
          "type": "address"
        },
        {
          "internalType": "address",
          "name": "seller",
          "type": "address"
        },
        {
          "internalType": "address",
          "name": "deliveryService",
          "type": "address"
        },
        {
          "internalType": "string",
          "name": "orderContentsUrl",
          "type": "string"
        },
        {
          "internalType": "string",
          "name": "originZipCode",
          "type": "string"
        },
        {
          "internalType": "string",
          "name": "destinationZipCode",
          "type": "string"
        }
      ],
      "stateMutability": "view",
      "type": "function",
      "constant": true
    },
    {
      "inputs": [],
      "name": "owner",
      "outputs": [
        {
          "internalType": "address",
          "name": "",
          "type": "address"
        }
      ],
      "stateMutability": "view",
      "type": "function",
      "constant": true
    },
    {
      "inputs": [
        {
          "internalType": "address",
          "name": "_seller",
          "type": "address"
        },
        {
          "internalType": "string",
          "name": "_orderInfo",
          "type": "string"
        },
        {
          "internalType": "uint256",
          "name": "_amount",
          "type": "uint256"
        }
      ],
      "name": "placeOrder",
      "outputs": [],
      "stateMutability": "nonpayable",
      "type": "function"
    },
    {
      "inputs": [
        {
          "internalType": "uint256",
          "name": "_orderId",
          "type": "uint256"
        }
      ],
      "name": "rejectOrder",
      "outputs": [],
      "stateMutability": "nonpayable",
      "type": "function"
    },
    {
      "inputs": [],
      "name": "renounceOwnership",
      "outputs": [],
      "stateMutability": "nonpayable",
      "type": "function"
    },
    {
      "inputs": [
        {
          "internalType": "uint256",
          "name": "_orderId",
          "type": "uint256"
        }
      ],
      "name": "transferOrder",
      "outputs": [],
      "stateMutability": "nonpayable",
      "type": "function"
    },
    {
      "inputs": [
        {
          "internalType": "address",
          "name": "newOwner",
          "type": "address"
        }
      ],
      "name": "transferOwnership",
      "outputs": [],
      "stateMutability": "nonpayable",
      "type": "function"
    },
    {
      "inputs": [
        {
          "internalType": "address",
          "name": "_eurTnoContract",
          "type": "address"
        }
      ],
      "name": "changeEurTnoAddress",
      "outputs": [],
      "stateMutability": "nonpayable",
      "type": "function"
    }
  ],
  "bytecode": "0x60806040523480156200001157600080fd5b5060405162005f7238038062005f728339818101604052810190620000379190620001d5565b620000576200004b6200009f60201b60201c565b620000a760201b60201c565b80600560006101000a81548173ffffffffffffffffffffffffffffffffffffffff021916908373ffffffffffffffffffffffffffffffffffffffff1602179055505062000207565b600033905090565b60008060009054906101000a900473ffffffffffffffffffffffffffffffffffffffff169050816000806101000a81548173ffffffffffffffffffffffffffffffffffffffff021916908373ffffffffffffffffffffffffffffffffffffffff1602179055508173ffffffffffffffffffffffffffffffffffffffff168173ffffffffffffffffffffffffffffffffffffffff167f8be0079c531659141344cd1fd0a4f28419497f9722a3daafe3b4186f6b6457e060405160405180910390a35050565b600080fd5b600073ffffffffffffffffffffffffffffffffffffffff82169050919050565b60006200019d8262000170565b9050919050565b620001af8162000190565b8114620001bb57600080fd5b50565b600081519050620001cf81620001a4565b92915050565b600060208284031215620001ee57620001ed6200016b565b5b6000620001fe84828501620001be565b91505092915050565b615d5b80620002176000396000f3fe608060405234801561001057600080fd5b506004361061010b5760003560e01c80637a202cc1116100a2578063b6adaaff11610071578063b6adaaff146102ab578063d1b9a935146102c7578063e22b8a10146102e3578063ef18e9ed146102ff578063f2fde38b1461031b5761010b565b80637a202cc1146102085780638da5cb5b14610238578063a09970b214610256578063a85c38ef146102725761010b565b8063514fcac7116100de578063514fcac7146101945780635cd030a0146101b0578063715018a6146101ce5780637732497e146101d85761010b565b806317b859391461011057806321d4209c1461012c57806324f6389414610148578063467a94d614610164575b600080fd5b61012a60048036038101906101259190614a86565b610337565b005b61014660048036038101906101419190614c57565b610d0c565b005b610162600480360381019061015d9190614a86565b610e38565b005b61017e60048036038101906101799190614cc6565b61116e565b60405161018b9190614fba565b60405180910390f35b6101ae60048036038101906101a99190614a86565b61161b565b005b6101b8611951565b6040516101c59190614fba565b60405180910390f35b6101d6611e37565b005b6101f260048036038101906101ed9190614cc6565b611ebf565b6040516101ff9190614fba565b60405180910390f35b610222600480360381019061021d9190614cc6565b61236c565b60405161022f9190614fba565b60405180910390f35b610240612819565b60405161024d9190614feb565b60405180910390f35b610270600480360381019061026b9190614a86565b612842565b005b61028c60048036038101906102879190614a86565b612be2565b6040516102a29a9998979695949392919061506e565b60405180910390f35b6102c560048036038101906102c09190614a86565b612e4b565b005b6102e160048036038101906102dc9190614cc6565b6139c1565b005b6102fd60048036038101906102f8919061511f565b613a81565b005b61031960048036038101906103149190614a86565b613ead565b005b61033560048036038101906103309190614cc6565b61439c565b005b80600180549050811061037f576040517f08c379a00000000000000000000000000000000000000000000000000000000081526004016103769061520a565b60405180910390fd5b6000600182815481106103955761039461522a565b5b906000526020600020906009020190506009600b8111156103b9576103b8614d2e565b5b8160030160009054906101000a900460ff16600b8111156103dd576103dc614d2e565b5b14158061041f5750600b808111156103f8576103f7614d2e565b5b8160030160009054906101000a900460ff16600b81111561041c5761041b614d2e565b5b14155b806104605750600a600b81111561043957610438614d2e565b5b8160030160009054906101000a900460ff16600b81111561045d5761045c614d2e565b5b14155b61049f576040517f08c379a0000000000000000000000000000000000000000000000000000000008152600401610496906152a5565b60405180910390fd5b826000600182815481106104b6576104b561522a565b5b906000526020600020906009020190506003600b8111156104da576104d9614d2e565b5b8160030160009054906101000a900460ff16600b8111156104fe576104fd614d2e565b5b148061053f57506005600b81111561051957610518614d2e565b5b8160030160009054906101000a900460ff16600b81111561053d5761053c614d2e565b5b145b8061057f57506004600b81111561055957610558614d2e565b5b8160030160009054906101000a900460ff16600b81111561057d5761057c614d2e565b5b145b6105be576040517f08c379a00000000000000000000000000000000000000000000000000000000081526004016105b590615311565b60405180910390fd5b846000600182815481106105d5576105d461522a565b5b9060005260206000209060090201905060006105ef614494565b90508160040160009054906101000a900473ffffffffffffffffffffffffffffffffffffffff1673ffffffffffffffffffffffffffffffffffffffff168173ffffffffffffffffffffffffffffffffffffffff16148061069e57508160050160009054906101000a900473ffffffffffffffffffffffffffffffffffffffff1673ffffffffffffffffffffffffffffffffffffffff168173ffffffffffffffffffffffffffffffffffffffff16145b6106dd576040517f08c379a00000000000000000000000000000000000000000000000000000000081526004016106d4906153a3565b60405180910390fd5b6000600189815481106106f3576106f261522a565b5b90600052602060002090600902019050600061070d614494565b90508160040160009054906101000a900473ffffffffffffffffffffffffffffffffffffffff1673ffffffffffffffffffffffffffffffffffffffff168173ffffffffffffffffffffffffffffffffffffffff161480156107a357506003600b81111561077d5761077c614d2e565b5b8260030160009054906101000a900460ff16600b8111156107a1576107a0614d2e565b5b145b156108c25760058260030160006101000a81548160ff0219169083600b8111156107d0576107cf614d2e565b5b02179055508160050160009054906101000a900473ffffffffffffffffffffffffffffffffffffffff1673ffffffffffffffffffffffffffffffffffffffff168260040160009054906101000a900473ffffffffffffffffffffffffffffffffffffffff1673ffffffffffffffffffffffffffffffffffffffff168360030160019054906101000a900473ffffffffffffffffffffffffffffffffffffffff1673ffffffffffffffffffffffffffffffffffffffff167f965618dc1bee44f278f335912eb7787bae93dbb27df974653053e6b5365738ed8d6040516108b591906153c3565b60405180910390a4610d00565b8160050160009054906101000a900473ffffffffffffffffffffffffffffffffffffffff1673ffffffffffffffffffffffffffffffffffffffff168173ffffffffffffffffffffffffffffffffffffffff1614801561095657506003600b8111156109305761092f614d2e565b5b8260030160009054906101000a900460ff16600b81111561095457610953614d2e565b5b145b15610a755760048260030160006101000a81548160ff0219169083600b81111561098357610982614d2e565b5b02179055508160050160009054906101000a900473ffffffffffffffffffffffffffffffffffffffff1673ffffffffffffffffffffffffffffffffffffffff168260040160009054906101000a900473ffffffffffffffffffffffffffffffffffffffff1673ffffffffffffffffffffffffffffffffffffffff168360030160019054906101000a900473ffffffffffffffffffffffffffffffffffffffff1673ffffffffffffffffffffffffffffffffffffffff167fcb9fb48f93239dd7eeea17e17c4e2772ca1069155e024b630538e36843b185c18d604051610a6891906153c3565b60405180910390a4610cff565b8160040160009054906101000a900473ffffffffffffffffffffffffffffffffffffffff1673ffffffffffffffffffffffffffffffffffffffff168173ffffffffffffffffffffffffffffffffffffffff16148015610b0957506004600b811115610ae357610ae2614d2e565b5b8260030160009054906101000a900460ff16600b811115610b0757610b06614d2e565b5b145b80610ba457508160050160009054906101000a900473ffffffffffffffffffffffffffffffffffffffff1673ffffffffffffffffffffffffffffffffffffffff168173ffffffffffffffffffffffffffffffffffffffff16148015610ba357506005600b811115610b7d57610b7c614d2e565b5b8260030160009054906101000a900460ff16600b811115610ba157610ba0614d2e565b5b145b5b15610cc35760068260030160006101000a81548160ff0219169083600b811115610bd157610bd0614d2e565b5b02179055508160050160009054906101000a900473ffffffffffffffffffffffffffffffffffffffff1673ffffffffffffffffffffffffffffffffffffffff168260040160009054906101000a900473ffffffffffffffffffffffffffffffffffffffff1673ffffffffffffffffffffffffffffffffffffffff168360030160019054906101000a900473ffffffffffffffffffffffffffffffffffffffff1673ffffffffffffffffffffffffffffffffffffffff167f33236c71bd905485949319a207c3effbd426cc328c1f9530ff578fbb5d4bc9288d604051610cb691906153c3565b60405180910390a4610cfe565b6040517f08c379a0000000000000000000000000000000000000000000000000000000008152600401610cf590615476565b60405180910390fd5b5b5b50505050505050505050565b82600073ffffffffffffffffffffffffffffffffffffffff168173ffffffffffffffffffffffffffffffffffffffff161415610d7d576040517f08c379a0000000000000000000000000000000000000000000000000000000008152600401610d74906154e2565b60405180910390fd5b600560009054906101000a900473ffffffffffffffffffffffffffffffffffffffff1673ffffffffffffffffffffffffffffffffffffffff166323b872dd610dc3614494565b30856040518463ffffffff1660e01b8152600401610de393929190615502565b6020604051808303816000875af1158015610e02573d6000803e3d6000fd5b505050506040513d601f19601f82011682018060405250810190610e269190615571565b50610e3284848461449c565b50505050565b80600060018281548110610e4f57610e4e61522a565b5b906000526020600020906009020190506000600b811115610e7357610e72614d2e565b5b8160030160009054906101000a900460ff16600b811115610e9757610e96614d2e565b5b14610ed7576040517f08c379a0000000000000000000000000000000000000000000000000000000008152600401610ece906155ea565b60405180910390fd5b82600060018281548110610eee57610eed61522a565b5b906000526020600020906009020190506000610f08614494565b90508160040160009054906101000a900473ffffffffffffffffffffffffffffffffffffffff1673ffffffffffffffffffffffffffffffffffffffff168173ffffffffffffffffffffffffffffffffffffffff1614610f9c576040517f08c379a0000000000000000000000000000000000000000000000000000000008152600401610f9390615656565b60405180910390fd5b600060018781548110610fb257610fb161522a565b5b9060005260206000209060090201905060028160030160006101000a81548160ff0219169083600b811115610fea57610fe9614d2e565b5b0217905550600560009054906101000a900473ffffffffffffffffffffffffffffffffffffffff1673ffffffffffffffffffffffffffffffffffffffff1663a9059cbb8260030160019054906101000a900473ffffffffffffffffffffffffffffffffffffffff1683600101546040518363ffffffff1660e01b8152600401611074929190615676565b6020604051808303816000875af1158015611093573d6000803e3d6000fd5b505050506040513d601f19601f820116820180604052508101906110b79190615571565b508060040160009054906101000a900473ffffffffffffffffffffffffffffffffffffffff1673ffffffffffffffffffffffffffffffffffffffff168160030160019054906101000a900473ffffffffffffffffffffffffffffffffffffffff1673ffffffffffffffffffffffffffffffffffffffff167fe98f0ab0c138af8832eb13c8aa1d4684accb4226f6b495031606231d0197f33b8960405161115d91906153c3565b60405180910390a350505050505050565b60606000600260008473ffffffffffffffffffffffffffffffffffffffff1673ffffffffffffffffffffffffffffffffffffffff1681526020019081526020016000205467ffffffffffffffff8111156111cb576111ca614b2c565b5b60405190808252806020026020018201604052801561120457816020015b6111f16148f2565b8152602001906001900390816111e95790505b5090506000805b600180549050811015611610578473ffffffffffffffffffffffffffffffffffffffff16600182815481106112435761124261522a565b5b906000526020600020906009020160030160019054906101000a900473ffffffffffffffffffffffffffffffffffffffff1673ffffffffffffffffffffffffffffffffffffffff1614156115fd57600181815481106112a5576112a461522a565b5b9060005260206000209060090201604051806101400160405290816000820154815260200160018201548152602001600282015481526020016003820160009054906101000a900460ff16600b81111561130257611301614d2e565b5b600b81111561131457611313614d2e565b5b81526020016003820160019054906101000a900473ffffffffffffffffffffffffffffffffffffffff1673ffffffffffffffffffffffffffffffffffffffff1673ffffffffffffffffffffffffffffffffffffffff1681526020016004820160009054906101000a900473ffffffffffffffffffffffffffffffffffffffff1673ffffffffffffffffffffffffffffffffffffffff1673ffffffffffffffffffffffffffffffffffffffff1681526020016005820160009054906101000a900473ffffffffffffffffffffffffffffffffffffffff1673ffffffffffffffffffffffffffffffffffffffff1673ffffffffffffffffffffffffffffffffffffffff16815260200160068201805461142a906156ce565b80601f0160208091040260200160405190810160405280929190818152602001828054611456906156ce565b80156114a35780601f10611478576101008083540402835291602001916114a3565b820191906000526020600020905b81548152906001019060200180831161148657829003601f168201915b505050505081526020016007820180546114bc906156ce565b80601f01602080910402602001604051908101604052809291908181526020018280546114e8906156ce565b80156115355780601f1061150a57610100808354040283529160200191611535565b820191906000526020600020905b81548152906001019060200180831161151857829003601f168201915b5050505050815260200160088201805461154e906156ce565b80601f016020809104026020016040519081016040528092919081815260200182805461157a906156ce565b80156115c75780601f1061159c576101008083540402835291602001916115c7565b820191906000526020600020905b8154815290600101906020018083116115aa57829003601f168201915b5050505050815250508383815181106115e3576115e261522a565b5b602002602001018190525081806115f99061572f565b9250505b80806116089061572f565b91505061120b565b508192505050919050565b806000600182815481106116325761163161522a565b5b906000526020600020906009020190506000600b81111561165657611655614d2e565b5b8160030160009054906101000a900460ff16600b81111561167a57611679614d2e565b5b146116ba576040517f08c379a00000000000000000000000000000000000000000000000000000000081526004016116b1906157c4565b60405180910390fd5b826000600182815481106116d1576116d061522a565b5b9060005260206000209060090201905060006116eb614494565b90508160030160019054906101000a900473ffffffffffffffffffffffffffffffffffffffff1673ffffffffffffffffffffffffffffffffffffffff168173ffffffffffffffffffffffffffffffffffffffff161461177f576040517f08c379a000000000000000000000000000000000000000000000000000000000815260040161177690615830565b60405180910390fd5b6000600187815481106117955761179461522a565b5b90600052602060002090600902019050600b8160030160006101000a81548160ff0219169083600b8111156117cd576117cc614d2e565b5b0217905550600560009054906101000a900473ffffffffffffffffffffffffffffffffffffffff1673ffffffffffffffffffffffffffffffffffffffff1663a9059cbb8260030160019054906101000a900473ffffffffffffffffffffffffffffffffffffffff1683600101546040518363ffffffff1660e01b8152600401611857929190615676565b6020604051808303816000875af1158015611876573d6000803e3d6000fd5b505050506040513d601f19601f8201168201806040525081019061189a9190615571565b508060040160009054906101000a900473ffffffffffffffffffffffffffffffffffffffff1673ffffffffffffffffffffffffffffffffffffffff168160030160019054906101000a900473ffffffffffffffffffffffffffffffffffffffff1673ffffffffffffffffffffffffffffffffffffffff167fae535bd34d0187c0a1db1e231130e8b8ba2c8c7b6612b6f39e16c010bf5498d08960405161194091906153c3565b60405180910390a350505050505050565b60606000805b6001805490508110156119e5576001600b81111561197857611977614d2e565b5b6001828154811061198c5761198b61522a565b5b906000526020600020906009020160030160009054906101000a900460ff16600b8111156119bd576119bc614d2e565b5b14156119d25781806119ce9061572f565b9250505b80806119dd9061572f565b915050611957565b5060008167ffffffffffffffff811115611a0257611a01614b2c565b5b604051908082528060200260200182016040528015611a3b57816020015b611a286148f2565b815260200190600190039081611a205790505b5090506000805b600180549050811015611e2d576001600b811115611a6357611a62614d2e565b5b60018281548110611a7757611a7661522a565b5b906000526020600020906009020160030160009054906101000a900460ff16600b811115611aa857611aa7614d2e565b5b1415611e1a5760018181548110611ac257611ac161522a565b5b9060005260206000209060090201604051806101400160405290816000820154815260200160018201548152602001600282015481526020016003820160009054906101000a900460ff16600b811115611b1f57611b1e614d2e565b5b600b811115611b3157611b30614d2e565b5b81526020016003820160019054906101000a900473ffffffffffffffffffffffffffffffffffffffff1673ffffffffffffffffffffffffffffffffffffffff1673ffffffffffffffffffffffffffffffffffffffff1681526020016004820160009054906101000a900473ffffffffffffffffffffffffffffffffffffffff1673ffffffffffffffffffffffffffffffffffffffff1673ffffffffffffffffffffffffffffffffffffffff1681526020016005820160009054906101000a900473ffffffffffffffffffffffffffffffffffffffff1673ffffffffffffffffffffffffffffffffffffffff1673ffffffffffffffffffffffffffffffffffffffff168152602001600682018054611c47906156ce565b80601f0160208091040260200160405190810160405280929190818152602001828054611c73906156ce565b8015611cc05780601f10611c9557610100808354040283529160200191611cc0565b820191906000526020600020905b815481529060010190602001808311611ca357829003601f168201915b50505050508152602001600782018054611cd9906156ce565b80601f0160208091040260200160405190810160405280929190818152602001828054611d05906156ce565b8015611d525780601f10611d2757610100808354040283529160200191611d52565b820191906000526020600020905b815481529060010190602001808311611d3557829003601f168201915b50505050508152602001600882018054611d6b906156ce565b80601f0160208091040260200160405190810160405280929190818152602001828054611d97906156ce565b8015611de45780601f10611db957610100808354040283529160200191611de4565b820191906000526020600020905b815481529060010190602001808311611dc757829003601f168201915b505050505081525050838381518110611e0057611dff61522a565b5b60200260200101819052508180611e169061572f565b9250505b8080611e259061572f565b915050611a42565b5081935050505090565b611e3f614494565b73ffffffffffffffffffffffffffffffffffffffff16611e5d612819565b73ffffffffffffffffffffffffffffffffffffffff1614611eb3576040517f08c379a0000000000000000000000000000000000000000000000000000000008152600401611eaa9061589c565b60405180910390fd5b611ebd600061482e565b565b60606000600460008473ffffffffffffffffffffffffffffffffffffffff1673ffffffffffffffffffffffffffffffffffffffff1681526020019081526020016000205467ffffffffffffffff811115611f1c57611f1b614b2c565b5b604051908082528060200260200182016040528015611f5557816020015b611f426148f2565b815260200190600190039081611f3a5790505b5090506000805b600180549050811015612361578473ffffffffffffffffffffffffffffffffffffffff1660018281548110611f9457611f9361522a565b5b906000526020600020906009020160050160009054906101000a900473ffffffffffffffffffffffffffffffffffffffff1673ffffffffffffffffffffffffffffffffffffffff16141561234e5760018181548110611ff657611ff561522a565b5b9060005260206000209060090201604051806101400160405290816000820154815260200160018201548152602001600282015481526020016003820160009054906101000a900460ff16600b81111561205357612052614d2e565b5b600b81111561206557612064614d2e565b5b81526020016003820160019054906101000a900473ffffffffffffffffffffffffffffffffffffffff1673ffffffffffffffffffffffffffffffffffffffff1673ffffffffffffffffffffffffffffffffffffffff1681526020016004820160009054906101000a900473ffffffffffffffffffffffffffffffffffffffff1673ffffffffffffffffffffffffffffffffffffffff1673ffffffffffffffffffffffffffffffffffffffff1681526020016005820160009054906101000a900473ffffffffffffffffffffffffffffffffffffffff1673ffffffffffffffffffffffffffffffffffffffff1673ffffffffffffffffffffffffffffffffffffffff16815260200160068201805461217b906156ce565b80601f01602080910402602001604051908101604052809291908181526020018280546121a7906156ce565b80156121f45780601f106121c9576101008083540402835291602001916121f4565b820191906000526020600020905b8154815290600101906020018083116121d757829003601f168201915b5050505050815260200160078201805461220d906156ce565b80601f0160208091040260200160405190810160405280929190818152602001828054612239906156ce565b80156122865780601f1061225b57610100808354040283529160200191612286565b820191906000526020600020905b81548152906001019060200180831161226957829003601f168201915b5050505050815260200160088201805461229f906156ce565b80601f01602080910402602001604051908101604052809291908181526020018280546122cb906156ce565b80156123185780601f106122ed57610100808354040283529160200191612318565b820191906000526020600020905b8154815290600101906020018083116122fb57829003601f168201915b5050505050815250508383815181106123345761233361522a565b5b6020026020010181905250818061234a9061572f565b9250505b80806123599061572f565b915050611f5c565b508192505050919050565b60606000600360008473ffffffffffffffffffffffffffffffffffffffff1673ffffffffffffffffffffffffffffffffffffffff1681526020019081526020016000205467ffffffffffffffff8111156123c9576123c8614b2c565b5b60405190808252806020026020018201604052801561240257816020015b6123ef6148f2565b8152602001906001900390816123e75790505b5090506000805b60018054905081101561280e578473ffffffffffffffffffffffffffffffffffffffff16600182815481106124415761244061522a565b5b906000526020600020906009020160040160009054906101000a900473ffffffffffffffffffffffffffffffffffffffff1673ffffffffffffffffffffffffffffffffffffffff1614156127fb57600181815481106124a3576124a261522a565b5b9060005260206000209060090201604051806101400160405290816000820154815260200160018201548152602001600282015481526020016003820160009054906101000a900460ff16600b811115612500576124ff614d2e565b5b600b81111561251257612511614d2e565b5b81526020016003820160019054906101000a900473ffffffffffffffffffffffffffffffffffffffff1673ffffffffffffffffffffffffffffffffffffffff1673ffffffffffffffffffffffffffffffffffffffff1681526020016004820160009054906101000a900473ffffffffffffffffffffffffffffffffffffffff1673ffffffffffffffffffffffffffffffffffffffff1673ffffffffffffffffffffffffffffffffffffffff1681526020016005820160009054906101000a900473ffffffffffffffffffffffffffffffffffffffff1673ffffffffffffffffffffffffffffffffffffffff1673ffffffffffffffffffffffffffffffffffffffff168152602001600682018054612628906156ce565b80601f0160208091040260200160405190810160405280929190818152602001828054612654906156ce565b80156126a15780601f10612676576101008083540402835291602001916126a1565b820191906000526020600020905b81548152906001019060200180831161268457829003601f168201915b505050505081526020016007820180546126ba906156ce565b80601f01602080910402602001604051908101604052809291908181526020018280546126e6906156ce565b80156127335780601f1061270857610100808354040283529160200191612733565b820191906000526020600020905b81548152906001019060200180831161271657829003601f168201915b5050505050815260200160088201805461274c906156ce565b80601f0160208091040260200160405190810160405280929190818152602001828054612778906156ce565b80156127c55780601f1061279a576101008083540402835291602001916127c5565b820191906000526020600020905b8154815290600101906020018083116127a857829003601f168201915b5050505050815250508383815181106127e1576127e061522a565b5b602002602001018190525081806127f79061572f565b9250505b80806128069061572f565b915050612409565b508192505050919050565b60008060009054906101000a900473ffffffffffffffffffffffffffffffffffffffff16905090565b806000600182815481106128595761285861522a565b5b906000526020600020906009020190506001600b81111561287d5761287c614d2e565b5b8160030160009054906101000a900460ff16600b8111156128a1576128a0614d2e565b5b14806128e257506003600b8111156128bc576128bb614d2e565b5b8160030160009054906101000a900460ff16600b8111156128e0576128df614d2e565b5b145b8061292257506004600b8111156128fc576128fb614d2e565b5b8160030160009054906101000a900460ff16600b8111156129205761291f614d2e565b5b145b8061296257506005600b81111561293c5761293b614d2e565b5b8160030160009054906101000a900460ff16600b8111156129605761295f614d2e565b5b145b806129a257506006600b81111561297c5761297b614d2e565b5b8160030160009054906101000a900460ff16600b8111156129a05761299f614d2e565b5b145b806129e257506007600b8111156129bc576129bb614d2e565b5b8160030160009054906101000a900460ff16600b8111156129e0576129df614d2e565b5b145b80612a2257506008600b8111156129fc576129fb614d2e565b5b8160030160009054906101000a900460ff16600b811115612a2057612a1f614d2e565b5b145b612a61576040517f08c379a0000000000000000000000000000000000000000000000000000000008152600401612a5890615908565b60405180910390fd5b82600060018281548110612a7857612a7761522a565b5b906000526020600020906009020190506000612a92614494565b90508160030160019054906101000a900473ffffffffffffffffffffffffffffffffffffffff1673ffffffffffffffffffffffffffffffffffffffff168173ffffffffffffffffffffffffffffffffffffffff161480612b4157508160040160009054906101000a900473ffffffffffffffffffffffffffffffffffffffff1673ffffffffffffffffffffffffffffffffffffffff168173ffffffffffffffffffffffffffffffffffffffff16145b80612b9b57508160050160009054906101000a900473ffffffffffffffffffffffffffffffffffffffff1673ffffffffffffffffffffffffffffffffffffffff168173ffffffffffffffffffffffffffffffffffffffff16145b612bda576040517f08c379a0000000000000000000000000000000000000000000000000000000008152600401612bd19061599a565b60405180910390fd5b505050505050565b60018181548110612bf257600080fd5b90600052602060002090600902016000915090508060000154908060010154908060020154908060030160009054906101000a900460ff16908060030160019054906101000a900473ffffffffffffffffffffffffffffffffffffffff16908060040160009054906101000a900473ffffffffffffffffffffffffffffffffffffffff16908060050160009054906101000a900473ffffffffffffffffffffffffffffffffffffffff1690806006018054612cac906156ce565b80601f0160208091040260200160405190810160405280929190818152602001828054612cd8906156ce565b8015612d255780601f10612cfa57610100808354040283529160200191612d25565b820191906000526020600020905b815481529060010190602001808311612d0857829003601f168201915b505050505090806007018054612d3a906156ce565b80601f0160208091040260200160405190810160405280929190818152602001828054612d66906156ce565b8015612db35780601f10612d8857610100808354040283529160200191612db3565b820191906000526020600020905b815481529060010190602001808311612d9657829003601f168201915b505050505090806008018054612dc8906156ce565b80601f0160208091040260200160405190810160405280929190818152602001828054612df4906156ce565b8015612e415780601f10612e1657610100808354040283529160200191612e41565b820191906000526020600020905b815481529060010190602001808311612e2457829003601f168201915b505050505090508a565b806001805490508110612e93576040517f08c379a0000000000000000000000000000000000000000000000000000000008152600401612e8a9061520a565b60405180910390fd5b600060018281548110612ea957612ea861522a565b5b906000526020600020906009020190506009600b811115612ecd57612ecc614d2e565b5b8160030160009054906101000a900460ff16600b811115612ef157612ef0614d2e565b5b141580612f335750600b80811115612f0c57612f0b614d2e565b5b8160030160009054906101000a900460ff16600b811115612f3057612f2f614d2e565b5b14155b80612f745750600a600b811115612f4d57612f4c614d2e565b5b8160030160009054906101000a900460ff16600b811115612f7157612f70614d2e565b5b14155b612fb3576040517f08c379a0000000000000000000000000000000000000000000000000000000008152600401612faa906152a5565b60405180910390fd5b82600060018281548110612fca57612fc961522a565b5b906000526020600020906009020190506006600b811115612fee57612fed614d2e565b5b8160030160009054906101000a900460ff16600b81111561301257613011614d2e565b5b148061305357506007600b81111561302d5761302c614d2e565b5b8160030160009054906101000a900460ff16600b81111561305157613050614d2e565b5b145b8061309357506008600b81111561306d5761306c614d2e565b5b8160030160009054906101000a900460ff16600b81111561309157613090614d2e565b5b145b6130d2576040517f08c379a00000000000000000000000000000000000000000000000000000000081526004016130c990615a06565b60405180910390fd5b846000600182815481106130e9576130e861522a565b5b906000526020600020906009020190506000613103614494565b90508160030160019054906101000a900473ffffffffffffffffffffffffffffffffffffffff1673ffffffffffffffffffffffffffffffffffffffff168173ffffffffffffffffffffffffffffffffffffffff1614806131b257508160050160009054906101000a900473ffffffffffffffffffffffffffffffffffffffff1673ffffffffffffffffffffffffffffffffffffffff168173ffffffffffffffffffffffffffffffffffffffff16145b6131f1576040517f08c379a00000000000000000000000000000000000000000000000000000000081526004016131e8906153a3565b60405180910390fd5b6000600189815481106132075761320661522a565b5b906000526020600020906009020190506000613221614494565b90508160030160019054906101000a900473ffffffffffffffffffffffffffffffffffffffff1673ffffffffffffffffffffffffffffffffffffffff168173ffffffffffffffffffffffffffffffffffffffff161480156132b757506006600b81111561329157613290614d2e565b5b8260030160009054906101000a900460ff16600b8111156132b5576132b4614d2e565b5b145b156133d65760078260030160006101000a81548160ff0219169083600b8111156132e4576132e3614d2e565b5b02179055508160050160009054906101000a900473ffffffffffffffffffffffffffffffffffffffff1673ffffffffffffffffffffffffffffffffffffffff168260040160009054906101000a900473ffffffffffffffffffffffffffffffffffffffff1673ffffffffffffffffffffffffffffffffffffffff168360030160019054906101000a900473ffffffffffffffffffffffffffffffffffffffff1673ffffffffffffffffffffffffffffffffffffffff167f1a90142b0afed5b6216583538f848c37cdcb2ecccf29ad96d4544e0c0d81568b8d6040516133c991906153c3565b60405180910390a46139b5565b8160050160009054906101000a900473ffffffffffffffffffffffffffffffffffffffff1673ffffffffffffffffffffffffffffffffffffffff168173ffffffffffffffffffffffffffffffffffffffff1614801561346a57506006600b81111561344457613443614d2e565b5b8260030160009054906101000a900460ff16600b81111561346857613467614d2e565b5b145b156135895760088260030160006101000a81548160ff0219169083600b81111561349757613496614d2e565b5b02179055508160050160009054906101000a900473ffffffffffffffffffffffffffffffffffffffff1673ffffffffffffffffffffffffffffffffffffffff168260040160009054906101000a900473ffffffffffffffffffffffffffffffffffffffff1673ffffffffffffffffffffffffffffffffffffffff168360030160019054906101000a900473ffffffffffffffffffffffffffffffffffffffff1673ffffffffffffffffffffffffffffffffffffffff167feba876045358af3706e7f69426cd070cb8dccb28004307903990b6f9751bfba78d60405161357c91906153c3565b60405180910390a46139b4565b8160030160019054906101000a900473ffffffffffffffffffffffffffffffffffffffff1673ffffffffffffffffffffffffffffffffffffffff168173ffffffffffffffffffffffffffffffffffffffff1614801561361d57506008600b8111156135f7576135f6614d2e565b5b8260030160009054906101000a900460ff16600b81111561361b5761361a614d2e565b5b145b806136b857508160050160009054906101000a900473ffffffffffffffffffffffffffffffffffffffff1673ffffffffffffffffffffffffffffffffffffffff168173ffffffffffffffffffffffffffffffffffffffff161480156136b757506007600b81111561369157613690614d2e565b5b8260030160009054906101000a900460ff16600b8111156136b5576136b4614d2e565b5b145b5b156139785760098260030160006101000a81548160ff0219169083600b8111156136e5576136e4614d2e565b5b0217905550600560009054906101000a900473ffffffffffffffffffffffffffffffffffffffff1673ffffffffffffffffffffffffffffffffffffffff1663a9059cbb8360040160009054906101000a900473ffffffffffffffffffffffffffffffffffffffff16846002015485600101546137619190615a26565b6040518363ffffffff1660e01b815260040161377e929190615676565b6020604051808303816000875af115801561379d573d6000803e3d6000fd5b505050506040513d601f19601f820116820180604052508101906137c19190615571565b50600560009054906101000a900473ffffffffffffffffffffffffffffffffffffffff1673ffffffffffffffffffffffffffffffffffffffff1663a9059cbb8360050160009054906101000a900473ffffffffffffffffffffffffffffffffffffffff1684600201546040518363ffffffff1660e01b8152600401613847929190615676565b6020604051808303816000875af1158015613866573d6000803e3d6000fd5b505050506040513d601f19601f8201168201806040525081019061388a9190615571565b508160050160009054906101000a900473ffffffffffffffffffffffffffffffffffffffff1673ffffffffffffffffffffffffffffffffffffffff168260040160009054906101000a900473ffffffffffffffffffffffffffffffffffffffff1673ffffffffffffffffffffffffffffffffffffffff168360030160019054906101000a900473ffffffffffffffffffffffffffffffffffffffff1673ffffffffffffffffffffffffffffffffffffffff167fc1c84556746ba134c62c05215f8f57cba5f3d90ac2c75e525f3b563f944dd7ea8d60405161396b91906153c3565b60405180910390a46139b3565b6040517f08c379a00000000000000000000000000000000000000000000000000000000081526004016139aa90615af2565b60405180910390fd5b5b5b50505050505050505050565b6139c9614494565b73ffffffffffffffffffffffffffffffffffffffff166139e7612819565b73ffffffffffffffffffffffffffffffffffffffff1614613a3d576040517f08c379a0000000000000000000000000000000000000000000000000000000008152600401613a349061589c565b60405180910390fd5b80600560006101000a81548173ffffffffffffffffffffffffffffffffffffffff021916908373ffffffffffffffffffffffffffffffffffffffff16021790555050565b836001805490508110613ac9576040517f08c379a0000000000000000000000000000000000000000000000000000000008152600401613ac09061520a565b60405180910390fd5b600060018281548110613adf57613ade61522a565b5b906000526020600020906009020190506009600b811115613b0357613b02614d2e565b5b8160030160009054906101000a900460ff16600b811115613b2757613b26614d2e565b5b141580613b695750600b80811115613b4257613b41614d2e565b5b8160030160009054906101000a900460ff16600b811115613b6657613b65614d2e565b5b14155b80613baa5750600a600b811115613b8357613b82614d2e565b5b8160030160009054906101000a900460ff16600b811115613ba757613ba6614d2e565b5b14155b613be9576040517f08c379a0000000000000000000000000000000000000000000000000000000008152600401613be0906152a5565b60405180910390fd5b85600060018281548110613c0057613bff61522a565b5b906000526020600020906009020190506000600b811115613c2457613c23614d2e565b5b8160030160009054906101000a900460ff16600b811115613c4857613c47614d2e565b5b14613c88576040517f08c379a0000000000000000000000000000000000000000000000000000000008152600401613c7f906155ea565b60405180910390fd5b87600060018281548110613c9f57613c9e61522a565b5b906000526020600020906009020190506000613cb9614494565b90508160040160009054906101000a900473ffffffffffffffffffffffffffffffffffffffff1673ffffffffffffffffffffffffffffffffffffffff168173ffffffffffffffffffffffffffffffffffffffff1614613d4d576040517f08c379a0000000000000000000000000000000000000000000000000000000008152600401613d4490615656565b60405180910390fd5b600060018c81548110613d6357613d6261522a565b5b906000526020600020906009020190508060010154891115613d8457600080fd5b60018160030160006101000a81548160ff0219169083600b811115613dac57613dab614d2e565b5b02179055508a816007019080519060200190613dc9929190614999565b5089816008019080519060200190613de2929190614999565b508881600201819055508060040160009054906101000a900473ffffffffffffffffffffffffffffffffffffffff1673ffffffffffffffffffffffffffffffffffffffff168160030160019054906101000a900473ffffffffffffffffffffffffffffffffffffffff1673ffffffffffffffffffffffffffffffffffffffff167f0d9e7df71b6e67133eb9a805e9ab3470351afbf730582e7e40494c3dfd30d3048e8e8e8e604051613e979493929190615b12565b60405180910390a3505050505050505050505050565b806001805490508110613ef5576040517f08c379a0000000000000000000000000000000000000000000000000000000008152600401613eec9061520a565b60405180910390fd5b600060018281548110613f0b57613f0a61522a565b5b906000526020600020906009020190506009600b811115613f2f57613f2e614d2e565b5b8160030160009054906101000a900460ff16600b811115613f5357613f52614d2e565b5b141580613f955750600b80811115613f6e57613f6d614d2e565b5b8160030160009054906101000a900460ff16600b811115613f9257613f91614d2e565b5b14155b80613fd65750600a600b811115613faf57613fae614d2e565b5b8160030160009054906101000a900460ff16600b811115613fd357613fd2614d2e565b5b14155b614015576040517f08c379a000000000000000000000000000000000000000000000000000000000815260040161400c906152a5565b60405180910390fd5b8260006001828154811061402c5761402b61522a565b5b906000526020600020906009020190506001600b8111156140505761404f614d2e565b5b8160030160009054906101000a900460ff16600b81111561407457614073614d2e565b5b146140b4576040517f08c379a00000000000000000000000000000000000000000000000000000000081526004016140ab90615bd7565b60405180910390fd5b846000600182815481106140cb576140ca61522a565b5b9060005260206000209060090201905060006140e5614494565b90508160030160019054906101000a900473ffffffffffffffffffffffffffffffffffffffff1673ffffffffffffffffffffffffffffffffffffffff168173ffffffffffffffffffffffffffffffffffffffff1614158061419657508160040160009054906101000a900473ffffffffffffffffffffffffffffffffffffffff1673ffffffffffffffffffffffffffffffffffffffff168173ffffffffffffffffffffffffffffffffffffffff1614155b6141d5576040517f08c379a00000000000000000000000000000000000000000000000000000000081526004016141cc90615c43565b60405180910390fd5b6000600189815481106141eb576141ea61522a565b5b906000526020600020906009020190506000614205614494565b9050808260050160006101000a81548173ffffffffffffffffffffffffffffffffffffffff021916908373ffffffffffffffffffffffffffffffffffffffff16021790555060038260030160006101000a81548160ff0219169083600b81111561427257614271614d2e565b5b0217905550600460008273ffffffffffffffffffffffffffffffffffffffff1673ffffffffffffffffffffffffffffffffffffffff16815260200190815260200160002060008154809291906142c79061572f565b91905055508073ffffffffffffffffffffffffffffffffffffffff168260040160009054906101000a900473ffffffffffffffffffffffffffffffffffffffff1673ffffffffffffffffffffffffffffffffffffffff168360030160019054906101000a900473ffffffffffffffffffffffffffffffffffffffff1673ffffffffffffffffffffffffffffffffffffffff167fcdc90f4dcfa53a56d5c85de16bd6232d92626bb006104b87ab11d74dd62b8dbb8d60405161438891906153c3565b60405180910390a450505050505050505050565b6143a4614494565b73ffffffffffffffffffffffffffffffffffffffff166143c2612819565b73ffffffffffffffffffffffffffffffffffffffff1614614418576040517f08c379a000000000000000000000000000000000000000000000000000000000815260040161440f9061589c565b60405180910390fd5b600073ffffffffffffffffffffffffffffffffffffffff168173ffffffffffffffffffffffffffffffffffffffff161415614488576040517f08c379a000000000000000000000000000000000000000000000000000000000815260040161447f90615cd5565b60405180910390fd5b6144918161482e565b50565b600033905090565b60006144a6614494565b9050600060018054905090506001604051806101400160405280838152602001858152602001600081526020016000600b8111156144e7576144e6614d2e565b5b81526020018473ffffffffffffffffffffffffffffffffffffffff1681526020018773ffffffffffffffffffffffffffffffffffffffff168152602001600073ffffffffffffffffffffffffffffffffffffffff16815260200186815260200160405180602001604052806000815250815260200160405180602001604052806000815250815250908060018154018082558091505060019003906000526020600020906009020160009091909190915060008201518160000155602082015181600101556040820151816002015560608201518160030160006101000a81548160ff0219169083600b8111156145e1576145e0614d2e565b5b021790555060808201518160030160016101000a81548173ffffffffffffffffffffffffffffffffffffffff021916908373ffffffffffffffffffffffffffffffffffffffff16021790555060a08201518160040160006101000a81548173ffffffffffffffffffffffffffffffffffffffff021916908373ffffffffffffffffffffffffffffffffffffffff16021790555060c08201518160050160006101000a81548173ffffffffffffffffffffffffffffffffffffffff021916908373ffffffffffffffffffffffffffffffffffffffff16021790555060e08201518160060190805190602001906146d7929190614999565b506101008201518160070190805190602001906146f5929190614999565b50610120820151816008019080519060200190614713929190614999565b505050600260008373ffffffffffffffffffffffffffffffffffffffff1673ffffffffffffffffffffffffffffffffffffffff16815260200190815260200160002060008154809291906147669061572f565b9190505550600360008673ffffffffffffffffffffffffffffffffffffffff1673ffffffffffffffffffffffffffffffffffffffff16815260200190815260200160002060008154809291906147bb9061572f565b91905055508473ffffffffffffffffffffffffffffffffffffffff168273ffffffffffffffffffffffffffffffffffffffff167f624bd1380fd3d72fc279da4cb6cd7588486be047690f086f05ae0b9d7c219a3f838760405161481f929190615cf5565b60405180910390a35050505050565b60008060009054906101000a900473ffffffffffffffffffffffffffffffffffffffff169050816000806101000a81548173ffffffffffffffffffffffffffffffffffffffff021916908373ffffffffffffffffffffffffffffffffffffffff1602179055508173ffffffffffffffffffffffffffffffffffffffff168173ffffffffffffffffffffffffffffffffffffffff167f8be0079c531659141344cd1fd0a4f28419497f9722a3daafe3b4186f6b6457e060405160405180910390a35050565b6040518061014001604052806000815260200160008152602001600081526020016000600b81111561492757614926614d2e565b5b8152602001600073ffffffffffffffffffffffffffffffffffffffff168152602001600073ffffffffffffffffffffffffffffffffffffffff168152602001600073ffffffffffffffffffffffffffffffffffffffff1681526020016060815260200160608152602001606081525090565b8280546149a5906156ce565b90600052602060002090601f0160209004810192826149c75760008555614a0e565b82601f106149e057805160ff1916838001178555614a0e565b82800160010185558215614a0e579182015b82811115614a0d5782518255916020019190600101906149f2565b5b509050614a1b9190614a1f565b5090565b5b80821115614a38576000816000905550600101614a20565b5090565b6000604051905090565b600080fd5b600080fd5b6000819050919050565b614a6381614a50565b8114614a6e57600080fd5b50565b600081359050614a8081614a5a565b92915050565b600060208284031215614a9c57614a9b614a46565b5b6000614aaa84828501614a71565b91505092915050565b600073ffffffffffffffffffffffffffffffffffffffff82169050919050565b6000614ade82614ab3565b9050919050565b614aee81614ad3565b8114614af957600080fd5b50565b600081359050614b0b81614ae5565b92915050565b600080fd5b600080fd5b6000601f19601f8301169050919050565b7f4e487b7100000000000000000000000000000000000000000000000000000000600052604160045260246000fd5b614b6482614b1b565b810181811067ffffffffffffffff82111715614b8357614b82614b2c565b5b80604052505050565b6000614b96614a3c565b9050614ba28282614b5b565b919050565b600067ffffffffffffffff821115614bc257614bc1614b2c565b5b614bcb82614b1b565b9050602081019050919050565b82818337600083830152505050565b6000614bfa614bf584614ba7565b614b8c565b905082815260208101848484011115614c1657614c15614b16565b5b614c21848285614bd8565b509392505050565b600082601f830112614c3e57614c3d614b11565b5b8135614c4e848260208601614be7565b91505092915050565b600080600060608486031215614c7057614c6f614a46565b5b6000614c7e86828701614afc565b935050602084013567ffffffffffffffff811115614c9f57614c9e614a4b565b5b614cab86828701614c29565b9250506040614cbc86828701614a71565b9150509250925092565b600060208284031215614cdc57614cdb614a46565b5b6000614cea84828501614afc565b91505092915050565b600081519050919050565b600082825260208201905092915050565b6000819050602082019050919050565b614d2881614a50565b82525050565b7f4e487b7100000000000000000000000000000000000000000000000000000000600052602160045260246000fd5b600c8110614d6e57614d6d614d2e565b5b50565b6000819050614d7f82614d5d565b919050565b6000614d8f82614d71565b9050919050565b614d9f81614d84565b82525050565b614dae81614ad3565b82525050565b600081519050919050565b600082825260208201905092915050565b60005b83811015614dee578082015181840152602081019050614dd3565b83811115614dfd576000848401525b50505050565b6000614e0e82614db4565b614e188185614dbf565b9350614e28818560208601614dd0565b614e3181614b1b565b840191505092915050565b600061014083016000830151614e556000860182614d1f565b506020830151614e686020860182614d1f565b506040830151614e7b6040860182614d1f565b506060830151614e8e6060860182614d96565b506080830151614ea16080860182614da5565b5060a0830151614eb460a0860182614da5565b5060c0830151614ec760c0860182614da5565b5060e083015184820360e0860152614edf8282614e03565b915050610100830151848203610100860152614efb8282614e03565b915050610120830151848203610120860152614f178282614e03565b9150508091505092915050565b6000614f308383614e3c565b905092915050565b6000602082019050919050565b6000614f5082614cf3565b614f5a8185614cfe565b935083602082028501614f6c85614d0f565b8060005b85811015614fa85784840389528151614f898582614f24565b9450614f9483614f38565b925060208a01995050600181019050614f70565b50829750879550505050505092915050565b60006020820190508181036000830152614fd48184614f45565b905092915050565b614fe581614ad3565b82525050565b60006020820190506150006000830184614fdc565b92915050565b61500f81614a50565b82525050565b61501e81614d84565b82525050565b600082825260208201905092915050565b600061504082614db4565b61504a8185615024565b935061505a818560208601614dd0565b61506381614b1b565b840191505092915050565b600061014082019050615084600083018d615006565b615091602083018c615006565b61509e604083018b615006565b6150ab606083018a615015565b6150b86080830189614fdc565b6150c560a0830188614fdc565b6150d260c0830187614fdc565b81810360e08301526150e48186615035565b90508181036101008301526150f98185615035565b905081810361012083015261510e8184615035565b90509b9a5050505050505050505050565b6000806000806080858703121561513957615138614a46565b5b600061514787828801614a71565b945050602085013567ffffffffffffffff81111561516857615167614a4b565b5b61517487828801614c29565b935050604085013567ffffffffffffffff81111561519557615194614a4b565b5b6151a187828801614c29565b92505060606151b287828801614a71565b91505092959194509250565b7f496e76616c6964206f7264657220696400000000000000000000000000000000600082015250565b60006151f4601083615024565b91506151ff826151be565b602082019050919050565b60006020820190508181036000830152615223816151e7565b9050919050565b7f4e487b7100000000000000000000000000000000000000000000000000000000600052603260045260246000fd5b7f4f7264657220697320696e616374697665000000000000000000000000000000600082015250565b600061528f601183615024565b915061529a82615259565b602082019050919050565b600060208201905081810360008301526152be81615282565b9050919050565b7f4f72646572206973206973206e6f7420696e207472616e7366657261626c6500600082015250565b60006152fb601f83615024565b9150615306826152c5565b602082019050919050565b6000602082019050818103600083015261532a816152ee565b9050919050565b7f5468652073656e646572206973206e656974686572207468652073656c6c657260008201527f206e6f722064656c697665727920736572766963650000000000000000000000602082015250565b600061538d603583615024565b915061539882615331565b604082019050919050565b600060208201905081810360008301526153bc81615380565b9050919050565b60006020820190506153d86000830184615006565b92915050565b7f496c6c6567616c206f7065726174696f6e2c2063616e6e6f7420736574206f7260008201527f64657220696e207472616e73697420747769636520776974682074686520736160208201527f6d65206163636f756e7400000000000000000000000000000000000000000000604082015250565b6000615460604a83615024565b915061546b826153de565b606082019050919050565b6000602082019050818103600083015261548f81615453565b9050919050565b7f4e756c6c2061646472657373206973206e6f742076616c696421000000000000600082015250565b60006154cc601a83615024565b91506154d782615496565b602082019050919050565b600060208201905081810360008301526154fb816154bf565b9050919050565b60006060820190506155176000830186614fdc565b6155246020830185614fdc565b6155316040830184615006565b949350505050565b60008115159050919050565b61554e81615539565b811461555957600080fd5b50565b60008151905061556b81615545565b92915050565b60006020828403121561558757615586614a46565b5b60006155958482850161555c565b91505092915050565b7f4f7264657220697320616c726561647920616363657074656400000000000000600082015250565b60006155d4601983615024565b91506155df8261559e565b602082019050919050565b60006020820190508181036000830152615603816155c7565b9050919050565b7f5468652073656e646572206973206e6f74207468652073656c6c657200000000600082015250565b6000615640601c83615024565b915061564b8261560a565b602082019050919050565b6000602082019050818103600083015261566f81615633565b9050919050565b600060408201905061568b6000830185614fdc565b6156986020830184615006565b9392505050565b7f4e487b7100000000000000000000000000000000000000000000000000000000600052602260045260246000fd5b600060028204905060018216806156e657607f821691505b602082108114156156fa576156f961569f565b5b50919050565b7f4e487b7100000000000000000000000000000000000000000000000000000000600052601160045260246000fd5b600061573a82614a50565b91507fffffffffffffffffffffffffffffffffffffffffffffffffffffffffffffffff82141561576d5761576c615700565b5b600182019050919050565b7f4f7264657220697320616c7265616479206265696e6720707265706172656400600082015250565b60006157ae601f83615024565b91506157b982615778565b602082019050919050565b600060208201905081810360008301526157dd816157a1565b9050919050565b7f5468652073656e646572206973206e6f742074686520636c69656e7400000000600082015250565b600061581a601c83615024565b9150615825826157e4565b602082019050919050565b600060208201905081810360008301526158498161580d565b9050919050565b7f4f776e61626c653a2063616c6c6572206973206e6f7420746865206f776e6572600082015250565b6000615886602083615024565b915061589182615850565b602082019050919050565b600060208201905081810360008301526158b581615879565b9050919050565b7f4f7264657220697320696e2070726f6772657373000000000000000000000000600082015250565b60006158f2601483615024565b91506158fd826158bc565b602082019050919050565b60006020820190508181036000830152615921816158e5565b9050919050565b7f5468652073656e646572206973206e6f7420696e766f6c76656420696e20746860008201527f65207472616e73616374696f6e00000000000000000000000000000000000000602082015250565b6000615984602d83615024565b915061598f82615928565b604082019050919050565b600060208201905081810360008301526159b381615977565b9050919050565b7f4f72646572206973206973206e6f7420696e20636f6d706c657461626c650000600082015250565b60006159f0601e83615024565b91506159fb826159ba565b602082019050919050565b60006020820190508181036000830152615a1f816159e3565b9050919050565b6000615a3182614a50565b9150615a3c83614a50565b925082821015615a4f57615a4e615700565b5b828203905092915050565b7f496c6c6567616c206f7065726174696f6e2c2063616e6e6f7420636f6d706c6560008201527f7465206f726465722074776963652077697468207468652073616d652061636360208201527f6f756e7400000000000000000000000000000000000000000000000000000000604082015250565b6000615adc604483615024565b9150615ae782615a5a565b606082019050919050565b60006020820190508181036000830152615b0b81615acf565b9050919050565b6000608082019050615b276000830187615006565b8181036020830152615b398186615035565b90508181036040830152615b4d8185615035565b9050615b5c6060830184615006565b95945050505050565b7f4f72646572206973207374696c6c2070656e64696e67206f7220696e2070726f60008201527f6772657373000000000000000000000000000000000000000000000000000000602082015250565b6000615bc1602583615024565b9150615bcc82615b65565b604082019050919050565b60006020820190508181036000830152615bf081615bb4565b9050919050565b7f5468652073656e64657220697320636c69656e74206f722073656c6c65720000600082015250565b6000615c2d601e83615024565b9150615c3882615bf7565b602082019050919050565b60006020820190508181036000830152615c5c81615c20565b9050919050565b7f4f776e61626c653a206e6577206f776e657220697320746865207a65726f206160008201527f6464726573730000000000000000000000000000000000000000000000000000602082015250565b6000615cbf602683615024565b9150615cca82615c63565b604082019050919050565b60006020820190508181036000830152615cee81615cb2565b9050919050565b6000604082019050615d0a6000830185615006565b8181036020830152615d1c8184615035565b9050939250505056fea26469706673582212205e41b1ecae26b8be9d35944d81fda6b859ff8b9248aa92fe430ce6927fb198c764736f6c634300080b0033",
  "immutableReferences": {},
  "source": "// SPDX-License-Identifier: MIT\npragma solidity ^0.8.0;\n\nimport \"./OrderHelper.sol\";\nimport \"./OrderManager.sol\";\nimport \"./OrderDispute.sol\";\n\n/**\n * @title Main contract that contains all functionality of the smart contract\n * @notice This contract combines all the possible functionality of the smart contract.\n */\ncontract TnoEats is OrderHelper, OrderManager, OrderDispute {\n\n    constructor(address _eurTnoContract) {\n        eurTnoContract = _eurTnoContract;\n    }\n\n    function changeEurTnoAddress(address _eurTnoContract) external onlyOwner {\n        eurTnoContract = _eurTnoContract;\n    }\n}",
  "sourcePath": "/home/tno-eats/contracts/TnoEats.sol",
  "compiler": {
    "name": "solc",
    "version": "0.8.11+commit.d7f03943.Emscripten.clang"
  },
  "schemaVersion": "3.4.6",
  "updatedAt": "2022-03-16T11:40:12.889Z",
  "networkType": "ethereum",
  "devdoc": {
    "kind": "dev",
    "methods": {
      "acceptOrder(uint256)": {
        "params": {
          "_orderId": "Active order id"
        }
      },
      "approveOrder(uint256,string,string,uint256)": {
        "params": {
          "_orderId": "Active order id"
        }
      },
      "cancelOrder(uint256)": {
        "params": {
          "_orderId": "Active order id"
        }
      },
      "completeOrder(uint256)": {
        "params": {
          "_orderId": "Active order id"
        }
      },
      "getOrdersByClient(address)": {
        "params": {
          "_client": "Order client address."
        },
        "returns": {
          "_0": "Order[] An array containing orders."
        }
      },
      "getOrdersByDeliveryService(address)": {
        "params": {
          "_deliveryService": "Order deliverer address."
        },
        "returns": {
          "_0": "Order[] An array containing orders."
        }
      },
      "getOrdersBySeller(address)": {
        "params": {
          "_seller": "Order seller address."
        },
        "returns": {
          "_0": "Order[] An array containing orders."
        }
      },
      "owner()": {
        "details": "Returns the address of the current owner."
      },
      "placeOrder(address,string,uint256)": {
        "params": {
          "_orderInfo": "Url to the encoded order data stored in IPFS",
          "_seller": "The address of the seller"
        }
      },
      "rejectOrder(uint256)": {
        "params": {
          "_orderId": "Pending order id"
        }
      },
      "renounceOwnership()": {
        "details": "Leaves the contract without owner. It will not be possible to call `onlyOwner` functions anymore. Can only be called by the current owner. NOTE: Renouncing ownership will leave the contract without an owner, thereby removing any functionality that is only available to the owner."
      },
      "transferOrder(uint256)": {
        "params": {
          "_orderId": "Active order id"
        }
      },
      "transferOwnership(address)": {
        "details": "Transfers ownership of the contract to a new account (`newOwner`). Can only be called by the current owner."
      }
    },
    "title": "Main contract that contains all functionality of the smart contract",
    "version": 1
  },
  "userdoc": {
    "kind": "user",
    "methods": {
      "acceptOrder(uint256)": {
        "notice": "Delivery service accepts an order.         The order needs to be approved by the seller."
      },
      "approveOrder(uint256,string,string,uint256)": {
        "notice": "A seller approves an order.         Can be called only by the seller and the order needs to be pending."
      },
      "cancelOrder(uint256)": {
        "notice": "An order is cancelled by the client.         Can be called only by the client.         The order needs to be pending and not yet accepted by the seller."
      },
      "completeOrder(uint256)": {
        "notice": "An order is delivered by the delivery service to the client.         Can be called only by the delivery service or the client.         The endpoint needs to be called by both parties to reach the consensus and move the order state to Completed."
      },
      "getOrdersByClient(address)": {
        "notice": "Gets all order ids of the client by the provided address."
      },
      "getOrdersByDeliveryService(address)": {
        "notice": "Gets all order ids of the delivery service by the provided address."
      },
      "getOrdersBySeller(address)": {
        "notice": "Gets all order ids of the seller by the provided address."
      },
      "placeOrder(address,string,uint256)": {
        "notice": "A client places an order to the smart contract."
      },
      "rejectOrder(uint256)": {
        "notice": "An order is rejected by the seller.         The order needs to be pending and not yet be accepted by the seller."
      },
      "transferOrder(uint256)": {
        "notice": "An order is passed on to the delivery service by the seller.         Can be called only by the seller or the delivery service.         The endpoint needs to be called by both parties to reach the consensus and move the order state to InTransit."
      }
    },
    "notice": "This contract combines all the possible functionality of the smart contract.",
    "version": 1
  }
}