{
  "contractName": "TnoEats",
  "abi": [
    {
      "inputs": [
        {
          "internalType": "address",
          "name": "_eurTnoContract",
          "type": "address"
        }
      ],
      "stateMutability": "nonpayable",
      "type": "constructor"
    },
    {
      "anonymous": false,
      "inputs": [
        {
          "indexed": false,
          "internalType": "uint256",
          "name": "id",
          "type": "uint256"
        },
        {
          "indexed": false,
          "internalType": "uint256",
          "name": "amount",
          "type": "uint256"
        },
        {
          "indexed": false,
          "internalType": "uint256",
          "name": "deliveryFee",
          "type": "uint256"
        },
        {
          "indexed": false,
          "internalType": "uint256",
          "name": "collateral",
          "type": "uint256"
        },
        {
          "indexed": true,
          "internalType": "enum OrderFactory.OrderStatus",
          "name": "status",
          "type": "uint8"
        },
        {
          "indexed": false,
          "internalType": "address",
          "name": "client",
          "type": "address"
        },
        {
          "indexed": false,
          "internalType": "address",
          "name": "seller",
          "type": "address"
        },
        {
          "indexed": false,
          "internalType": "address",
          "name": "deliveryService",
          "type": "address"
        },
        {
          "indexed": false,
          "internalType": "string",
          "name": "orderContentsUrl",
          "type": "string"
        },
        {
          "indexed": false,
          "internalType": "string",
          "name": "originZipCode",
          "type": "string"
        },
        {
          "indexed": false,
          "internalType": "string",
          "name": "destinationZipCode",
          "type": "string"
        },
        {
          "indexed": false,
          "internalType": "bool",
          "name": "waitOnReady",
          "type": "bool"
        }
      ],
      "name": "ApprovedOrder",
      "type": "event"
    },
    {
      "anonymous": false,
      "inputs": [
        {
          "indexed": false,
          "internalType": "uint256",
          "name": "id",
          "type": "uint256"
        },
        {
          "indexed": false,
          "internalType": "uint256",
          "name": "amount",
          "type": "uint256"
        },
        {
          "indexed": false,
          "internalType": "uint256",
          "name": "deliveryFee",
          "type": "uint256"
        },
        {
          "indexed": false,
          "internalType": "uint256",
          "name": "collateral",
          "type": "uint256"
        },
        {
          "indexed": false,
          "internalType": "enum OrderFactory.OrderStatus",
          "name": "status",
          "type": "uint8"
        },
        {
          "indexed": true,
          "internalType": "address",
          "name": "client",
          "type": "address"
        },
        {
          "indexed": true,
          "internalType": "address",
          "name": "seller",
          "type": "address"
        },
        {
          "indexed": true,
          "internalType": "address",
          "name": "deliveryService",
          "type": "address"
        },
        {
          "indexed": false,
          "internalType": "string",
          "name": "orderContentsUrl",
          "type": "string"
        },
        {
          "indexed": false,
          "internalType": "string",
          "name": "originZipCode",
          "type": "string"
        },
        {
          "indexed": false,
          "internalType": "string",
          "name": "destinationZipCode",
          "type": "string"
        },
        {
          "indexed": false,
          "internalType": "bool",
          "name": "waitOnReady",
          "type": "bool"
        }
      ],
      "name": "OrderStatusChanged",
      "type": "event"
    },
    {
      "anonymous": false,
      "inputs": [
        {
          "indexed": true,
          "internalType": "address",
          "name": "previousOwner",
          "type": "address"
        },
        {
          "indexed": true,
          "internalType": "address",
          "name": "newOwner",
          "type": "address"
        }
      ],
      "name": "OwnershipTransferred",
      "type": "event"
    },
    {
      "inputs": [
        {
          "internalType": "uint256",
          "name": "_orderId",
          "type": "uint256"
        }
      ],
      "name": "acceptOrder",
      "outputs": [],
      "stateMutability": "nonpayable",
      "type": "function"
    },
    {
      "inputs": [
        {
          "internalType": "uint256",
          "name": "_orderId",
          "type": "uint256"
        },
        {
          "internalType": "string",
          "name": "sellerZipCode",
          "type": "string"
        },
        {
          "internalType": "string",
          "name": "clientZipCode",
          "type": "string"
        },
        {
          "internalType": "uint256",
          "name": "_deliveryFee",
          "type": "uint256"
        },
        {
          "internalType": "uint256",
          "name": "_collateral",
          "type": "uint256"
        },
        {
          "internalType": "bool",
          "name": "_waitOnReady",
          "type": "bool"
        }
      ],
      "name": "approveOrder",
      "outputs": [],
      "stateMutability": "nonpayable",
      "type": "function"
    },
    {
      "inputs": [
        {
          "internalType": "uint256",
          "name": "_orderId",
          "type": "uint256"
        }
      ],
      "name": "cancelOrder",
      "outputs": [],
      "stateMutability": "nonpayable",
      "type": "function"
    },
    {
      "inputs": [
        {
          "internalType": "uint256",
          "name": "_orderId",
          "type": "uint256"
        }
      ],
      "name": "completeOrder",
      "outputs": [],
      "stateMutability": "nonpayable",
      "type": "function"
    },
    {
      "inputs": [],
      "name": "eurTnoContract",
      "outputs": [
        {
          "internalType": "address",
          "name": "",
          "type": "address"
        }
      ],
      "stateMutability": "view",
      "type": "function",
      "constant": true
    },
    {
      "inputs": [],
      "name": "getApprovedOrders",
      "outputs": [
        {
          "components": [
            {
              "internalType": "uint256",
              "name": "id",
              "type": "uint256"
            },
            {
              "internalType": "uint256",
              "name": "amount",
              "type": "uint256"
            },
            {
              "internalType": "uint256",
              "name": "deliveryFee",
              "type": "uint256"
            },
            {
              "internalType": "uint256",
              "name": "collateral",
              "type": "uint256"
            },
            {
              "internalType": "enum OrderFactory.OrderStatus",
              "name": "status",
              "type": "uint8"
            },
            {
              "internalType": "address",
              "name": "client",
              "type": "address"
            },
            {
              "internalType": "address",
              "name": "seller",
              "type": "address"
            },
            {
              "internalType": "address",
              "name": "deliveryService",
              "type": "address"
            },
            {
              "internalType": "string",
              "name": "orderContentsUrl",
              "type": "string"
            },
            {
              "internalType": "string",
              "name": "originZipCode",
              "type": "string"
            },
            {
              "internalType": "string",
              "name": "destinationZipCode",
              "type": "string"
            },
            {
              "internalType": "bool",
              "name": "waitOnReady",
              "type": "bool"
            }
          ],
          "internalType": "struct OrderFactory.Order[]",
          "name": "",
          "type": "tuple[]"
        }
      ],
      "stateMutability": "view",
      "type": "function",
      "constant": true
    },
    {
      "inputs": [
        {
          "internalType": "address",
          "name": "_client",
          "type": "address"
        }
      ],
      "name": "getClientOrderCount",
      "outputs": [
        {
          "internalType": "uint256",
          "name": "",
          "type": "uint256"
        },
        {
          "internalType": "uint256",
          "name": "",
          "type": "uint256"
        }
      ],
      "stateMutability": "view",
      "type": "function",
      "constant": true
    },
    {
      "inputs": [
        {
          "internalType": "address",
          "name": "_client",
          "type": "address"
        }
      ],
      "name": "getOrdersByClient",
      "outputs": [
        {
          "components": [
            {
              "internalType": "uint256",
              "name": "id",
              "type": "uint256"
            },
            {
              "internalType": "uint256",
              "name": "amount",
              "type": "uint256"
            },
            {
              "internalType": "uint256",
              "name": "deliveryFee",
              "type": "uint256"
            },
            {
              "internalType": "uint256",
              "name": "collateral",
              "type": "uint256"
            },
            {
              "internalType": "enum OrderFactory.OrderStatus",
              "name": "status",
              "type": "uint8"
            },
            {
              "internalType": "address",
              "name": "client",
              "type": "address"
            },
            {
              "internalType": "address",
              "name": "seller",
              "type": "address"
            },
            {
              "internalType": "address",
              "name": "deliveryService",
              "type": "address"
            },
            {
              "internalType": "string",
              "name": "orderContentsUrl",
              "type": "string"
            },
            {
              "internalType": "string",
              "name": "originZipCode",
              "type": "string"
            },
            {
              "internalType": "string",
              "name": "destinationZipCode",
              "type": "string"
            },
            {
              "internalType": "bool",
              "name": "waitOnReady",
              "type": "bool"
            }
          ],
          "internalType": "struct OrderFactory.Order[]",
          "name": "",
          "type": "tuple[]"
        }
      ],
      "stateMutability": "view",
      "type": "function",
      "constant": true
    },
    {
      "inputs": [
        {
          "internalType": "address",
          "name": "_deliveryService",
          "type": "address"
        }
      ],
      "name": "getOrdersByDeliveryService",
      "outputs": [
        {
          "components": [
            {
              "internalType": "uint256",
              "name": "id",
              "type": "uint256"
            },
            {
              "internalType": "uint256",
              "name": "amount",
              "type": "uint256"
            },
            {
              "internalType": "uint256",
              "name": "deliveryFee",
              "type": "uint256"
            },
            {
              "internalType": "uint256",
              "name": "collateral",
              "type": "uint256"
            },
            {
              "internalType": "enum OrderFactory.OrderStatus",
              "name": "status",
              "type": "uint8"
            },
            {
              "internalType": "address",
              "name": "client",
              "type": "address"
            },
            {
              "internalType": "address",
              "name": "seller",
              "type": "address"
            },
            {
              "internalType": "address",
              "name": "deliveryService",
              "type": "address"
            },
            {
              "internalType": "string",
              "name": "orderContentsUrl",
              "type": "string"
            },
            {
              "internalType": "string",
              "name": "originZipCode",
              "type": "string"
            },
            {
              "internalType": "string",
              "name": "destinationZipCode",
              "type": "string"
            },
            {
              "internalType": "bool",
              "name": "waitOnReady",
              "type": "bool"
            }
          ],
          "internalType": "struct OrderFactory.Order[]",
          "name": "",
          "type": "tuple[]"
        }
      ],
      "stateMutability": "view",
      "type": "function",
      "constant": true
    },
    {
      "inputs": [
        {
          "internalType": "address",
          "name": "_seller",
          "type": "address"
        }
      ],
      "name": "getOrdersBySeller",
      "outputs": [
        {
          "components": [
            {
              "internalType": "uint256",
              "name": "id",
              "type": "uint256"
            },
            {
              "internalType": "uint256",
              "name": "amount",
              "type": "uint256"
            },
            {
              "internalType": "uint256",
              "name": "deliveryFee",
              "type": "uint256"
            },
            {
              "internalType": "uint256",
              "name": "collateral",
              "type": "uint256"
            },
            {
              "internalType": "enum OrderFactory.OrderStatus",
              "name": "status",
              "type": "uint8"
            },
            {
              "internalType": "address",
              "name": "client",
              "type": "address"
            },
            {
              "internalType": "address",
              "name": "seller",
              "type": "address"
            },
            {
              "internalType": "address",
              "name": "deliveryService",
              "type": "address"
            },
            {
              "internalType": "string",
              "name": "orderContentsUrl",
              "type": "string"
            },
            {
              "internalType": "string",
              "name": "originZipCode",
              "type": "string"
            },
            {
              "internalType": "string",
              "name": "destinationZipCode",
              "type": "string"
            },
            {
              "internalType": "bool",
              "name": "waitOnReady",
              "type": "bool"
            }
          ],
          "internalType": "struct OrderFactory.Order[]",
          "name": "",
          "type": "tuple[]"
        }
      ],
      "stateMutability": "view",
      "type": "function",
      "constant": true
    },
    {
      "inputs": [
        {
          "internalType": "uint256",
          "name": "",
          "type": "uint256"
        }
      ],
      "name": "orders",
      "outputs": [
        {
          "internalType": "uint256",
          "name": "id",
          "type": "uint256"
        },
        {
          "internalType": "uint256",
          "name": "amount",
          "type": "uint256"
        },
        {
          "internalType": "uint256",
          "name": "deliveryFee",
          "type": "uint256"
        },
        {
          "internalType": "uint256",
          "name": "collateral",
          "type": "uint256"
        },
        {
          "internalType": "enum OrderFactory.OrderStatus",
          "name": "status",
          "type": "uint8"
        },
        {
          "internalType": "address",
          "name": "client",
          "type": "address"
        },
        {
          "internalType": "address",
          "name": "seller",
          "type": "address"
        },
        {
          "internalType": "address",
          "name": "deliveryService",
          "type": "address"
        },
        {
          "internalType": "string",
          "name": "orderContentsUrl",
          "type": "string"
        },
        {
          "internalType": "string",
          "name": "originZipCode",
          "type": "string"
        },
        {
          "internalType": "string",
          "name": "destinationZipCode",
          "type": "string"
        },
        {
          "internalType": "bool",
          "name": "waitOnReady",
          "type": "bool"
        }
      ],
      "stateMutability": "view",
      "type": "function",
      "constant": true
    },
    {
      "inputs": [],
      "name": "owner",
      "outputs": [
        {
          "internalType": "address",
          "name": "",
          "type": "address"
        }
      ],
      "stateMutability": "view",
      "type": "function",
      "constant": true
    },
    {
      "inputs": [
        {
          "internalType": "address",
          "name": "_seller",
          "type": "address"
        },
        {
          "internalType": "string",
          "name": "_orderInfo",
          "type": "string"
        },
        {
          "internalType": "uint256",
          "name": "_amount",
          "type": "uint256"
        }
      ],
      "name": "placeOrder",
      "outputs": [],
      "stateMutability": "nonpayable",
      "type": "function"
    },
    {
      "inputs": [
        {
          "internalType": "uint256",
          "name": "_orderId",
          "type": "uint256"
        }
      ],
      "name": "preparedOrder",
      "outputs": [],
      "stateMutability": "nonpayable",
      "type": "function"
    },
    {
      "inputs": [
        {
          "internalType": "uint256",
          "name": "_orderId",
          "type": "uint256"
        }
      ],
      "name": "rejectOrder",
      "outputs": [],
      "stateMutability": "nonpayable",
      "type": "function"
    },
    {
      "inputs": [],
      "name": "renounceOwnership",
      "outputs": [],
      "stateMutability": "nonpayable",
      "type": "function"
    },
    {
      "inputs": [
        {
          "internalType": "uint256",
          "name": "_orderId",
          "type": "uint256"
        }
      ],
      "name": "transferOrder",
      "outputs": [],
      "stateMutability": "nonpayable",
      "type": "function"
    },
    {
      "inputs": [
        {
          "internalType": "address",
          "name": "newOwner",
          "type": "address"
        }
      ],
      "name": "transferOwnership",
      "outputs": [],
      "stateMutability": "nonpayable",
      "type": "function"
    },
    {
      "inputs": [
        {
          "internalType": "address",
          "name": "_eurTnoContract",
          "type": "address"
        }
      ],
      "name": "changeEurTnoAddress",
      "outputs": [],
      "stateMutability": "nonpayable",
      "type": "function"
    }
  ],
  "bytecode": "0x60806040523480156200001157600080fd5b50604051620061d4380380620061d48339818101604052810190620000379190620001d5565b620000576200004b6200009f60201b60201c565b620000a760201b60201c565b80600560006101000a81548173ffffffffffffffffffffffffffffffffffffffff021916908373ffffffffffffffffffffffffffffffffffffffff1602179055505062000207565b600033905090565b60008060009054906101000a900473ffffffffffffffffffffffffffffffffffffffff169050816000806101000a81548173ffffffffffffffffffffffffffffffffffffffff021916908373ffffffffffffffffffffffffffffffffffffffff1602179055508173ffffffffffffffffffffffffffffffffffffffff168173ffffffffffffffffffffffffffffffffffffffff167f8be0079c531659141344cd1fd0a4f28419497f9722a3daafe3b4186f6b6457e060405160405180910390a35050565b600080fd5b600073ffffffffffffffffffffffffffffffffffffffff82169050919050565b60006200019d8262000170565b9050919050565b620001af8162000190565b8114620001bb57600080fd5b50565b600081519050620001cf81620001a4565b92915050565b600060208284031215620001ee57620001ed6200016b565b5b6000620001fe84828501620001be565b91505092915050565b615fbd80620002176000396000f3fe608060405234801561001057600080fd5b50600436106101215760003560e01c8063715018a6116100ad578063a85c38ef11610071578063a85c38ef146102f3578063b6adaaff1461032e578063d1b9a9351461034a578063ef18e9ed14610366578063f2fde38b1461038257610121565b8063715018a61461024f5780637732497e146102595780637a202cc1146102895780637d83ed36146102b95780638da5cb5b146102d557610121565b80633bb0e6aa116100f45780633bb0e6aa146101ab578063467a94d6146101c9578063514fcac7146101f95780635cd030a0146102155780635de64a2f1461023357610121565b806317b859391461012657806321d4209c1461014257806324f638941461015e5780632741745f1461017a575b600080fd5b610140600480360381019061013b9190614a64565b61039e565b005b61015c60048036038101906101579190614c35565b610aca565b005b61017860048036038101906101739190614a64565b610bfe565b005b610194600480360381019061018f9190614ca4565b610fcb565b6040516101a2929190614ce0565b60405180910390f35b6101b36111db565b6040516101c09190614d18565b60405180910390f35b6101e360048036038101906101de9190614ca4565b611201565b6040516101f0919061503f565b60405180910390f35b610213600480360381019061020e9190614a64565b6116d3565b005b61021d611aa0565b60405161022a919061503f565b60405180910390f35b61024d6004803603810190610248919061508d565b611fab565b005b610257612422565b005b610273600480360381019061026e9190614ca4565b6124aa565b604051610280919061503f565b60405180910390f35b6102a3600480360381019061029e9190614ca4565b61297c565b6040516102b0919061503f565b60405180910390f35b6102d360048036038101906102ce9190614a64565b612e4e565b005b6102dd61314a565b6040516102ea9190614d18565b60405180910390f35b61030d60048036038101906103089190614a64565b613173565b6040516103259c9b9a999897969594939291906151ba565b60405180910390f35b61034860048036038101906103439190614a64565b6133f5565b005b610364600480360381019061035f9190614ca4565b613ce1565b005b610380600480360381019061037b9190614a64565b613e13565b005b61039c60048036038101906103979190614ca4565b61430a565b005b8060018054905081106103e6576040517f08c379a00000000000000000000000000000000000000000000000000000000081526004016103dd906152d5565b60405180910390fd5b6000600182815481106103fc576103fb6152f5565b5b90600052602060002090600b020190506003600b8111156104205761041f614d6e565b5b8160040160009054906101000a900460ff16600b81111561044457610443614d6e565b5b148061048557506005600b81111561045f5761045e614d6e565b5b8160040160009054906101000a900460ff16600b81111561048357610482614d6e565b5b145b806104c557506004600b81111561049f5761049e614d6e565b5b8160040160009054906101000a900460ff16600b8111156104c3576104c2614d6e565b5b145b610504576040517f08c379a00000000000000000000000000000000000000000000000000000000081526004016104fb90615370565b60405180910390fd5b8260006001828154811061051b5761051a6152f5565b5b90600052602060002090600b020190506000610535614402565b90508160050160009054906101000a900473ffffffffffffffffffffffffffffffffffffffff1673ffffffffffffffffffffffffffffffffffffffff168173ffffffffffffffffffffffffffffffffffffffff1614806105e457508160060160009054906101000a900473ffffffffffffffffffffffffffffffffffffffff1673ffffffffffffffffffffffffffffffffffffffff168173ffffffffffffffffffffffffffffffffffffffff16145b610623576040517f08c379a000000000000000000000000000000000000000000000000000000000815260040161061a90615402565b60405180910390fd5b600060018781548110610639576106386152f5565b5b90600052602060002090600b020190506000610653614402565b90508160050160009054906101000a900473ffffffffffffffffffffffffffffffffffffffff1673ffffffffffffffffffffffffffffffffffffffff168173ffffffffffffffffffffffffffffffffffffffff161480156106e957506003600b8111156106c3576106c2614d6e565b5b8260040160009054906101000a900460ff16600b8111156106e7576106e6614d6e565b5b145b156107205760058260040160006101000a81548160ff0219169083600b81111561071657610715614d6e565b5b021790555061098e565b8160060160009054906101000a900473ffffffffffffffffffffffffffffffffffffffff1673ffffffffffffffffffffffffffffffffffffffff168173ffffffffffffffffffffffffffffffffffffffff161480156107b457506003600b81111561078e5761078d614d6e565b5b8260040160009054906101000a900460ff16600b8111156107b2576107b1614d6e565b5b145b156107eb5760048260040160006101000a81548160ff0219169083600b8111156107e1576107e0614d6e565b5b021790555061098d565b8160050160009054906101000a900473ffffffffffffffffffffffffffffffffffffffff1673ffffffffffffffffffffffffffffffffffffffff168173ffffffffffffffffffffffffffffffffffffffff1614801561087f57506004600b81111561085957610858614d6e565b5b8260040160009054906101000a900460ff16600b81111561087d5761087c614d6e565b5b145b8061091a57508160060160009054906101000a900473ffffffffffffffffffffffffffffffffffffffff1673ffffffffffffffffffffffffffffffffffffffff168173ffffffffffffffffffffffffffffffffffffffff1614801561091957506005600b8111156108f3576108f2614d6e565b5b8260040160009054906101000a900460ff16600b81111561091757610916614d6e565b5b145b5b156109515760068260040160006101000a81548160ff0219169083600b81111561094757610946614d6e565b5b021790555061098c565b6040517f08c379a0000000000000000000000000000000000000000000000000000000008152600401610983906154ba565b60405180910390fd5b5b5b8160060160009054906101000a900473ffffffffffffffffffffffffffffffffffffffff1673ffffffffffffffffffffffffffffffffffffffff168260050160009054906101000a900473ffffffffffffffffffffffffffffffffffffffff1673ffffffffffffffffffffffffffffffffffffffff168360040160019054906101000a900473ffffffffffffffffffffffffffffffffffffffff1673ffffffffffffffffffffffffffffffffffffffff167ee0cc827fe4773fc338d3e432069ee11dce201fd710e97743b341c33f33094c85600001548660010154876002015488600301548960040160009054906101000a900460ff168a6007018b6008018c6009018d600a0160009054906101000a900460ff16604051610ab8999897969594939291906155d0565b60405180910390a45050505050505050565b82600073ffffffffffffffffffffffffffffffffffffffff168173ffffffffffffffffffffffffffffffffffffffff161415610b3b576040517f08c379a0000000000000000000000000000000000000000000000000000000008152600401610b32906156be565b60405180910390fd5b600560009054906101000a900473ffffffffffffffffffffffffffffffffffffffff1673ffffffffffffffffffffffffffffffffffffffff166323b872dd610b81614402565b30856040518463ffffffff1660e01b8152600401610ba1939291906156de565b6020604051808303816000875af1158015610bc0573d6000803e3d6000fd5b505050506040513d601f19601f82011682018060405250810190610be4919061572a565b610bed57600080fd5b610bf884848461440a565b50505050565b8060018054905081108015610c6957506000600b811115610c2257610c21614d6e565b5b60018281548110610c3657610c356152f5565b5b90600052602060002090600b020160040160009054906101000a900460ff16600b811115610c6757610c66614d6e565b5b145b610ca8576040517f08c379a0000000000000000000000000000000000000000000000000000000008152600401610c9f906157a3565b60405180910390fd5b81600060018281548110610cbf57610cbe6152f5565b5b90600052602060002090600b020190506000610cd9614402565b90508160050160009054906101000a900473ffffffffffffffffffffffffffffffffffffffff1673ffffffffffffffffffffffffffffffffffffffff168173ffffffffffffffffffffffffffffffffffffffff1614610d6d576040517f08c379a0000000000000000000000000000000000000000000000000000000008152600401610d649061580f565b60405180910390fd5b600060018681548110610d8357610d826152f5565b5b90600052602060002090600b02019050600b8160040160006101000a81548160ff0219169083600b811115610dbb57610dba614d6e565b5b0217905550600560009054906101000a900473ffffffffffffffffffffffffffffffffffffffff1673ffffffffffffffffffffffffffffffffffffffff1663a9059cbb8260040160019054906101000a900473ffffffffffffffffffffffffffffffffffffffff1683600101546040518363ffffffff1660e01b8152600401610e4592919061582f565b6020604051808303816000875af1158015610e64573d6000803e3d6000fd5b505050506040513d601f19601f82011682018060405250810190610e88919061572a565b610e9157600080fd5b8060060160009054906101000a900473ffffffffffffffffffffffffffffffffffffffff1673ffffffffffffffffffffffffffffffffffffffff168160050160009054906101000a900473ffffffffffffffffffffffffffffffffffffffff1673ffffffffffffffffffffffffffffffffffffffff168260040160019054906101000a900473ffffffffffffffffffffffffffffffffffffffff1673ffffffffffffffffffffffffffffffffffffffff167ee0cc827fe4773fc338d3e432069ee11dce201fd710e97743b341c33f33094c84600001548560010154866002015487600301548860040160009054906101000a900460ff16896007018a6008018b6009018c600a0160009054906101000a900460ff16604051610fbb999897969594939291906155d0565b60405180910390a4505050505050565b60008060008060005b6001805490508110156111cd576009600b811115610ff557610ff4614d6e565b5b60018281548110611009576110086152f5565b5b90600052602060002090600b020160040160009054906101000a900460ff16600b81111561103a57611039614d6e565b5b1480156110b757508573ffffffffffffffffffffffffffffffffffffffff166001828154811061106d5761106c6152f5565b5b90600052602060002090600b020160040160019054906101000a900473ffffffffffffffffffffffffffffffffffffffff1673ffffffffffffffffffffffffffffffffffffffff16145b156110cf5782806110c790615887565b9350506111ba565b600a600b8111156110e3576110e2614d6e565b5b600182815481106110f7576110f66152f5565b5b90600052602060002090600b020160040160009054906101000a900460ff16600b81111561112857611127614d6e565b5b1480156111a557508573ffffffffffffffffffffffffffffffffffffffff166001828154811061115b5761115a6152f5565b5b90600052602060002090600b020160040160019054906101000a900473ffffffffffffffffffffffffffffffffffffffff1673ffffffffffffffffffffffffffffffffffffffff16145b156111b95781806111b590615887565b9250505b5b80806111c590615887565b915050610fd4565b508181935093505050915091565b600560009054906101000a900473ffffffffffffffffffffffffffffffffffffffff1681565b60606000600260008473ffffffffffffffffffffffffffffffffffffffff1673ffffffffffffffffffffffffffffffffffffffff1681526020019081526020016000205467ffffffffffffffff81111561125e5761125d614b0a565b5b60405190808252806020026020018201604052801561129757816020015b6112846148c0565b81526020019060019003908161127c5790505b5090506000805b6001805490508110156116c8578473ffffffffffffffffffffffffffffffffffffffff16600182815481106112d6576112d56152f5565b5b90600052602060002090600b020160040160019054906101000a900473ffffffffffffffffffffffffffffffffffffffff1673ffffffffffffffffffffffffffffffffffffffff1614156116b55760018181548110611338576113376152f5565b5b90600052602060002090600b020160405180610180016040529081600082015481526020016001820154815260200160028201548152602001600382015481526020016004820160009054906101000a900460ff16600b81111561139f5761139e614d6e565b5b600b8111156113b1576113b0614d6e565b5b81526020016004820160019054906101000a900473ffffffffffffffffffffffffffffffffffffffff1673ffffffffffffffffffffffffffffffffffffffff1673ffffffffffffffffffffffffffffffffffffffff1681526020016005820160009054906101000a900473ffffffffffffffffffffffffffffffffffffffff1673ffffffffffffffffffffffffffffffffffffffff1673ffffffffffffffffffffffffffffffffffffffff1681526020016006820160009054906101000a900473ffffffffffffffffffffffffffffffffffffffff1673ffffffffffffffffffffffffffffffffffffffff1673ffffffffffffffffffffffffffffffffffffffff1681526020016007820180546114c790615509565b80601f01602080910402602001604051908101604052809291908181526020018280546114f390615509565b80156115405780601f1061151557610100808354040283529160200191611540565b820191906000526020600020905b81548152906001019060200180831161152357829003601f168201915b5050505050815260200160088201805461155990615509565b80601f016020809104026020016040519081016040528092919081815260200182805461158590615509565b80156115d25780601f106115a7576101008083540402835291602001916115d2565b820191906000526020600020905b8154815290600101906020018083116115b557829003601f168201915b505050505081526020016009820180546115eb90615509565b80601f016020809104026020016040519081016040528092919081815260200182805461161790615509565b80156116645780601f1061163957610100808354040283529160200191611664565b820191906000526020600020905b81548152906001019060200180831161164757829003601f168201915b50505050508152602001600a820160009054906101000a900460ff16151515158152505083838151811061169b5761169a6152f5565b5b602002602001018190525081806116b190615887565b9250505b80806116c090615887565b91505061129e565b508192505050919050565b806001805490508110801561173e57506000600b8111156116f7576116f6614d6e565b5b6001828154811061170b5761170a6152f5565b5b90600052602060002090600b020160040160009054906101000a900460ff16600b81111561173c5761173b614d6e565b5b145b61177d576040517f08c379a00000000000000000000000000000000000000000000000000000000081526004016117749061591c565b60405180910390fd5b81600060018281548110611794576117936152f5565b5b90600052602060002090600b0201905060006117ae614402565b90508160040160019054906101000a900473ffffffffffffffffffffffffffffffffffffffff1673ffffffffffffffffffffffffffffffffffffffff168173ffffffffffffffffffffffffffffffffffffffff1614611842576040517f08c379a000000000000000000000000000000000000000000000000000000000815260040161183990615988565b60405180910390fd5b600060018681548110611858576118576152f5565b5b90600052602060002090600b02019050600a8160040160006101000a81548160ff0219169083600b8111156118905761188f614d6e565b5b0217905550600560009054906101000a900473ffffffffffffffffffffffffffffffffffffffff1673ffffffffffffffffffffffffffffffffffffffff1663a9059cbb8260040160019054906101000a900473ffffffffffffffffffffffffffffffffffffffff1683600101546040518363ffffffff1660e01b815260040161191a92919061582f565b6020604051808303816000875af1158015611939573d6000803e3d6000fd5b505050506040513d601f19601f8201168201806040525081019061195d919061572a565b61196657600080fd5b8060060160009054906101000a900473ffffffffffffffffffffffffffffffffffffffff1673ffffffffffffffffffffffffffffffffffffffff168160050160009054906101000a900473ffffffffffffffffffffffffffffffffffffffff1673ffffffffffffffffffffffffffffffffffffffff168260040160019054906101000a900473ffffffffffffffffffffffffffffffffffffffff1673ffffffffffffffffffffffffffffffffffffffff167ee0cc827fe4773fc338d3e432069ee11dce201fd710e97743b341c33f33094c84600001548560010154866002015487600301548860040160009054906101000a900460ff16896007018a6008018b6009018c600a0160009054906101000a900460ff16604051611a90999897969594939291906155d0565b60405180910390a4505050505050565b60606000805b600180549050811015611b34576001600b811115611ac757611ac6614d6e565b5b60018281548110611adb57611ada6152f5565b5b90600052602060002090600b020160040160009054906101000a900460ff16600b811115611b0c57611b0b614d6e565b5b1415611b21578180611b1d90615887565b9250505b8080611b2c90615887565b915050611aa6565b5060008167ffffffffffffffff811115611b5157611b50614b0a565b5b604051908082528060200260200182016040528015611b8a57816020015b611b776148c0565b815260200190600190039081611b6f5790505b5090506000805b600180549050811015611fa1576001600b811115611bb257611bb1614d6e565b5b60018281548110611bc657611bc56152f5565b5b90600052602060002090600b020160040160009054906101000a900460ff16600b811115611bf757611bf6614d6e565b5b1415611f8e5760018181548110611c1157611c106152f5565b5b90600052602060002090600b020160405180610180016040529081600082015481526020016001820154815260200160028201548152602001600382015481526020016004820160009054906101000a900460ff16600b811115611c7857611c77614d6e565b5b600b811115611c8a57611c89614d6e565b5b81526020016004820160019054906101000a900473ffffffffffffffffffffffffffffffffffffffff1673ffffffffffffffffffffffffffffffffffffffff1673ffffffffffffffffffffffffffffffffffffffff1681526020016005820160009054906101000a900473ffffffffffffffffffffffffffffffffffffffff1673ffffffffffffffffffffffffffffffffffffffff1673ffffffffffffffffffffffffffffffffffffffff1681526020016006820160009054906101000a900473ffffffffffffffffffffffffffffffffffffffff1673ffffffffffffffffffffffffffffffffffffffff1673ffffffffffffffffffffffffffffffffffffffff168152602001600782018054611da090615509565b80601f0160208091040260200160405190810160405280929190818152602001828054611dcc90615509565b8015611e195780601f10611dee57610100808354040283529160200191611e19565b820191906000526020600020905b815481529060010190602001808311611dfc57829003601f168201915b50505050508152602001600882018054611e3290615509565b80601f0160208091040260200160405190810160405280929190818152602001828054611e5e90615509565b8015611eab5780601f10611e8057610100808354040283529160200191611eab565b820191906000526020600020905b815481529060010190602001808311611e8e57829003601f168201915b50505050508152602001600982018054611ec490615509565b80601f0160208091040260200160405190810160405280929190818152602001828054611ef090615509565b8015611f3d5780601f10611f1257610100808354040283529160200191611f3d565b820191906000526020600020905b815481529060010190602001808311611f2057829003601f168201915b50505050508152602001600a820160009054906101000a900460ff161515151581525050838381518110611f7457611f736152f5565b5b60200260200101819052508180611f8a90615887565b9250505b8080611f9990615887565b915050611b91565b5081935050505090565b856001805490508110801561201657506000600b811115611fcf57611fce614d6e565b5b60018281548110611fe357611fe26152f5565b5b90600052602060002090600b020160040160009054906101000a900460ff16600b81111561201457612013614d6e565b5b145b612055576040517f08c379a000000000000000000000000000000000000000000000000000000000815260040161204c906157a3565b60405180910390fd5b8660006001828154811061206c5761206b6152f5565b5b90600052602060002090600b020190506000612086614402565b90508160050160009054906101000a900473ffffffffffffffffffffffffffffffffffffffff1673ffffffffffffffffffffffffffffffffffffffff168173ffffffffffffffffffffffffffffffffffffffff161461211a576040517f08c379a00000000000000000000000000000000000000000000000000000000081526004016121119061580f565b60405180910390fd5b600060018b815481106121305761212f6152f5565b5b90600052602060002090600b02019050806001015488111561215157600080fd5b60018160040160006101000a81548160ff0219169083600b81111561217957612178614d6e565b5b021790555089816008019080519060200190612196929190614977565b50888160090190805190602001906121af929190614977565b508781600201819055508681600301819055508581600a0160006101000a81548160ff0219169083151502179055508060040160009054906101000a900460ff16600b81111561220257612201614d6e565b5b7fda56b7268ebc8c86c97f6cad3370c0a98467460cdcde79a9ebdafbc66242e98a82600001548360010154846002015485600301548660040160019054906101000a900473ffffffffffffffffffffffffffffffffffffffff168760050160009054906101000a900473ffffffffffffffffffffffffffffffffffffffff168860060160009054906101000a900473ffffffffffffffffffffffffffffffffffffffff16896007018a6008018b6009018c600a0160009054906101000a900460ff166040516122db9b9a999897969594939291906159a8565b60405180910390a28060060160009054906101000a900473ffffffffffffffffffffffffffffffffffffffff1673ffffffffffffffffffffffffffffffffffffffff168160050160009054906101000a900473ffffffffffffffffffffffffffffffffffffffff1673ffffffffffffffffffffffffffffffffffffffff168260040160019054906101000a900473ffffffffffffffffffffffffffffffffffffffff1673ffffffffffffffffffffffffffffffffffffffff167ee0cc827fe4773fc338d3e432069ee11dce201fd710e97743b341c33f33094c84600001548560010154866002015487600301548860040160009054906101000a900460ff16896007018a6008018b6009018c600a0160009054906101000a900460ff1660405161240d999897969594939291906155d0565b60405180910390a45050505050505050505050565b61242a614402565b73ffffffffffffffffffffffffffffffffffffffff1661244861314a565b73ffffffffffffffffffffffffffffffffffffffff161461249e576040517f08c379a000000000000000000000000000000000000000000000000000000000815260040161249590615ab4565b60405180910390fd5b6124a860006147fc565b565b60606000600460008473ffffffffffffffffffffffffffffffffffffffff1673ffffffffffffffffffffffffffffffffffffffff1681526020019081526020016000205467ffffffffffffffff81111561250757612506614b0a565b5b60405190808252806020026020018201604052801561254057816020015b61252d6148c0565b8152602001906001900390816125255790505b5090506000805b600180549050811015612971578473ffffffffffffffffffffffffffffffffffffffff166001828154811061257f5761257e6152f5565b5b90600052602060002090600b020160060160009054906101000a900473ffffffffffffffffffffffffffffffffffffffff1673ffffffffffffffffffffffffffffffffffffffff16141561295e57600181815481106125e1576125e06152f5565b5b90600052602060002090600b020160405180610180016040529081600082015481526020016001820154815260200160028201548152602001600382015481526020016004820160009054906101000a900460ff16600b81111561264857612647614d6e565b5b600b81111561265a57612659614d6e565b5b81526020016004820160019054906101000a900473ffffffffffffffffffffffffffffffffffffffff1673ffffffffffffffffffffffffffffffffffffffff1673ffffffffffffffffffffffffffffffffffffffff1681526020016005820160009054906101000a900473ffffffffffffffffffffffffffffffffffffffff1673ffffffffffffffffffffffffffffffffffffffff1673ffffffffffffffffffffffffffffffffffffffff1681526020016006820160009054906101000a900473ffffffffffffffffffffffffffffffffffffffff1673ffffffffffffffffffffffffffffffffffffffff1673ffffffffffffffffffffffffffffffffffffffff16815260200160078201805461277090615509565b80601f016020809104026020016040519081016040528092919081815260200182805461279c90615509565b80156127e95780601f106127be576101008083540402835291602001916127e9565b820191906000526020600020905b8154815290600101906020018083116127cc57829003601f168201915b5050505050815260200160088201805461280290615509565b80601f016020809104026020016040519081016040528092919081815260200182805461282e90615509565b801561287b5780601f106128505761010080835404028352916020019161287b565b820191906000526020600020905b81548152906001019060200180831161285e57829003601f168201915b5050505050815260200160098201805461289490615509565b80601f01602080910402602001604051908101604052809291908181526020018280546128c090615509565b801561290d5780601f106128e25761010080835404028352916020019161290d565b820191906000526020600020905b8154815290600101906020018083116128f057829003601f168201915b50505050508152602001600a820160009054906101000a900460ff161515151581525050838381518110612944576129436152f5565b5b6020026020010181905250818061295a90615887565b9250505b808061296990615887565b915050612547565b508192505050919050565b60606000600360008473ffffffffffffffffffffffffffffffffffffffff1673ffffffffffffffffffffffffffffffffffffffff1681526020019081526020016000205467ffffffffffffffff8111156129d9576129d8614b0a565b5b604051908082528060200260200182016040528015612a1257816020015b6129ff6148c0565b8152602001906001900390816129f75790505b5090506000805b600180549050811015612e43578473ffffffffffffffffffffffffffffffffffffffff1660018281548110612a5157612a506152f5565b5b90600052602060002090600b020160050160009054906101000a900473ffffffffffffffffffffffffffffffffffffffff1673ffffffffffffffffffffffffffffffffffffffff161415612e305760018181548110612ab357612ab26152f5565b5b90600052602060002090600b020160405180610180016040529081600082015481526020016001820154815260200160028201548152602001600382015481526020016004820160009054906101000a900460ff16600b811115612b1a57612b19614d6e565b5b600b811115612b2c57612b2b614d6e565b5b81526020016004820160019054906101000a900473ffffffffffffffffffffffffffffffffffffffff1673ffffffffffffffffffffffffffffffffffffffff1673ffffffffffffffffffffffffffffffffffffffff1681526020016005820160009054906101000a900473ffffffffffffffffffffffffffffffffffffffff1673ffffffffffffffffffffffffffffffffffffffff1673ffffffffffffffffffffffffffffffffffffffff1681526020016006820160009054906101000a900473ffffffffffffffffffffffffffffffffffffffff1673ffffffffffffffffffffffffffffffffffffffff1673ffffffffffffffffffffffffffffffffffffffff168152602001600782018054612c4290615509565b80601f0160208091040260200160405190810160405280929190818152602001828054612c6e90615509565b8015612cbb5780601f10612c9057610100808354040283529160200191612cbb565b820191906000526020600020905b815481529060010190602001808311612c9e57829003601f168201915b50505050508152602001600882018054612cd490615509565b80601f0160208091040260200160405190810160405280929190818152602001828054612d0090615509565b8015612d4d5780601f10612d2257610100808354040283529160200191612d4d565b820191906000526020600020905b815481529060010190602001808311612d3057829003601f168201915b50505050508152602001600982018054612d6690615509565b80601f0160208091040260200160405190810160405280929190818152602001828054612d9290615509565b8015612ddf5780601f10612db457610100808354040283529160200191612ddf565b820191906000526020600020905b815481529060010190602001808311612dc257829003601f168201915b50505050508152602001600a820160009054906101000a900460ff161515151581525050838381518110612e1657612e156152f5565b5b60200260200101819052508180612e2c90615887565b9250505b8080612e3b90615887565b915050612a19565b508192505050919050565b8060018054905081108015612eb957506002600b811115612e7257612e71614d6e565b5b60018281548110612e8657612e856152f5565b5b90600052602060002090600b020160040160009054906101000a900460ff16600b811115612eb757612eb6614d6e565b5b145b612ef8576040517f08c379a0000000000000000000000000000000000000000000000000000000008152600401612eef90615b20565b60405180910390fd5b81600060018281548110612f0f57612f0e6152f5565b5b90600052602060002090600b020190506000612f29614402565b90508160050160009054906101000a900473ffffffffffffffffffffffffffffffffffffffff1673ffffffffffffffffffffffffffffffffffffffff168173ffffffffffffffffffffffffffffffffffffffff1614612fbd576040517f08c379a0000000000000000000000000000000000000000000000000000000008152600401612fb49061580f565b60405180910390fd5b600060018681548110612fd357612fd26152f5565b5b90600052602060002090600b0201905060038160040160006101000a81548160ff0219169083600b81111561300b5761300a614d6e565b5b02179055508060060160009054906101000a900473ffffffffffffffffffffffffffffffffffffffff1673ffffffffffffffffffffffffffffffffffffffff168160050160009054906101000a900473ffffffffffffffffffffffffffffffffffffffff1673ffffffffffffffffffffffffffffffffffffffff168260040160019054906101000a900473ffffffffffffffffffffffffffffffffffffffff1673ffffffffffffffffffffffffffffffffffffffff167ee0cc827fe4773fc338d3e432069ee11dce201fd710e97743b341c33f33094c84600001548560010154866002015487600301548860040160009054906101000a900460ff16896007018a6008018b6009018c600a0160009054906101000a900460ff1660405161313a999897969594939291906155d0565b60405180910390a4505050505050565b60008060009054906101000a900473ffffffffffffffffffffffffffffffffffffffff16905090565b6001818154811061318357600080fd5b90600052602060002090600b02016000915090508060000154908060010154908060020154908060030154908060040160009054906101000a900460ff16908060040160019054906101000a900473ffffffffffffffffffffffffffffffffffffffff16908060050160009054906101000a900473ffffffffffffffffffffffffffffffffffffffff16908060060160009054906101000a900473ffffffffffffffffffffffffffffffffffffffff169080600701805461324390615509565b80601f016020809104026020016040519081016040528092919081815260200182805461326f90615509565b80156132bc5780601f10613291576101008083540402835291602001916132bc565b820191906000526020600020905b81548152906001019060200180831161329f57829003601f168201915b5050505050908060080180546132d190615509565b80601f01602080910402602001604051908101604052809291908181526020018280546132fd90615509565b801561334a5780601f1061331f5761010080835404028352916020019161334a565b820191906000526020600020905b81548152906001019060200180831161332d57829003601f168201915b50505050509080600901805461335f90615509565b80601f016020809104026020016040519081016040528092919081815260200182805461338b90615509565b80156133d85780601f106133ad576101008083540402835291602001916133d8565b820191906000526020600020905b8154815290600101906020018083116133bb57829003601f168201915b50505050509080600a0160009054906101000a900460ff1690508c565b80600180549050811061343d576040517f08c379a0000000000000000000000000000000000000000000000000000000008152600401613434906152d5565b60405180910390fd5b600060018281548110613453576134526152f5565b5b90600052602060002090600b020190506006600b81111561347757613476614d6e565b5b8160040160009054906101000a900460ff16600b81111561349b5761349a614d6e565b5b14806134dc57506007600b8111156134b6576134b5614d6e565b5b8160040160009054906101000a900460ff16600b8111156134da576134d9614d6e565b5b145b8061351c57506008600b8111156134f6576134f5614d6e565b5b8160040160009054906101000a900460ff16600b81111561351a57613519614d6e565b5b145b61355b576040517f08c379a000000000000000000000000000000000000000000000000000000000815260040161355290615b8c565b60405180910390fd5b82600060018281548110613572576135716152f5565b5b90600052602060002090600b02019050600061358c614402565b90508160040160019054906101000a900473ffffffffffffffffffffffffffffffffffffffff1673ffffffffffffffffffffffffffffffffffffffff168173ffffffffffffffffffffffffffffffffffffffff16148061363b57508160060160009054906101000a900473ffffffffffffffffffffffffffffffffffffffff1673ffffffffffffffffffffffffffffffffffffffff168173ffffffffffffffffffffffffffffffffffffffff16145b61367a576040517f08c379a000000000000000000000000000000000000000000000000000000000815260040161367190615402565b60405180910390fd5b6000600187815481106136905761368f6152f5565b5b90600052602060002090600b0201905060006136aa614402565b90508160040160019054906101000a900473ffffffffffffffffffffffffffffffffffffffff1673ffffffffffffffffffffffffffffffffffffffff168173ffffffffffffffffffffffffffffffffffffffff1614801561374057506006600b81111561371a57613719614d6e565b5b8260040160009054906101000a900460ff16600b81111561373e5761373d614d6e565b5b145b156137775760078260040160006101000a81548160ff0219169083600b81111561376d5761376c614d6e565b5b0217905550613ba5565b8160060160009054906101000a900473ffffffffffffffffffffffffffffffffffffffff1673ffffffffffffffffffffffffffffffffffffffff168173ffffffffffffffffffffffffffffffffffffffff1614801561380b57506006600b8111156137e5576137e4614d6e565b5b8260040160009054906101000a900460ff16600b81111561380957613808614d6e565b5b145b156138425760088260040160006101000a81548160ff0219169083600b81111561383857613837614d6e565b5b0217905550613ba4565b8160040160019054906101000a900473ffffffffffffffffffffffffffffffffffffffff1673ffffffffffffffffffffffffffffffffffffffff168173ffffffffffffffffffffffffffffffffffffffff161480156138d657506008600b8111156138b0576138af614d6e565b5b8260040160009054906101000a900460ff16600b8111156138d4576138d3614d6e565b5b145b8061397157508160060160009054906101000a900473ffffffffffffffffffffffffffffffffffffffff1673ffffffffffffffffffffffffffffffffffffffff168173ffffffffffffffffffffffffffffffffffffffff1614801561397057506007600b81111561394a57613949614d6e565b5b8260040160009054906101000a900460ff16600b81111561396e5761396d614d6e565b5b145b5b15613b685760098260040160006101000a81548160ff0219169083600b81111561399e5761399d614d6e565b5b0217905550600560009054906101000a900473ffffffffffffffffffffffffffffffffffffffff1673ffffffffffffffffffffffffffffffffffffffff1663a9059cbb8360050160009054906101000a900473ffffffffffffffffffffffffffffffffffffffff1684600201548560010154613a1a9190615bac565b6040518363ffffffff1660e01b8152600401613a3792919061582f565b6020604051808303816000875af1158015613a56573d6000803e3d6000fd5b505050506040513d601f19601f82011682018060405250810190613a7a919061572a565b613a8357600080fd5b600560009054906101000a900473ffffffffffffffffffffffffffffffffffffffff1673ffffffffffffffffffffffffffffffffffffffff1663a9059cbb8360060160009054906101000a900473ffffffffffffffffffffffffffffffffffffffff1684600301548560020154613afa9190615be0565b6040518363ffffffff1660e01b8152600401613b1792919061582f565b6020604051808303816000875af1158015613b36573d6000803e3d6000fd5b505050506040513d601f19601f82011682018060405250810190613b5a919061572a565b613b6357600080fd5b613ba3565b6040517f08c379a0000000000000000000000000000000000000000000000000000000008152600401613b9a90615cce565b60405180910390fd5b5b5b8160060160009054906101000a900473ffffffffffffffffffffffffffffffffffffffff1673ffffffffffffffffffffffffffffffffffffffff168260050160009054906101000a900473ffffffffffffffffffffffffffffffffffffffff1673ffffffffffffffffffffffffffffffffffffffff168360040160019054906101000a900473ffffffffffffffffffffffffffffffffffffffff1673ffffffffffffffffffffffffffffffffffffffff167ee0cc827fe4773fc338d3e432069ee11dce201fd710e97743b341c33f33094c85600001548660010154876002015488600301548960040160009054906101000a900460ff168a6007018b6008018c6009018d600a0160009054906101000a900460ff16604051613ccf999897969594939291906155d0565b60405180910390a45050505050505050565b613ce9614402565b73ffffffffffffffffffffffffffffffffffffffff16613d0761314a565b73ffffffffffffffffffffffffffffffffffffffff1614613d5d576040517f08c379a0000000000000000000000000000000000000000000000000000000008152600401613d5490615ab4565b60405180910390fd5b80600073ffffffffffffffffffffffffffffffffffffffff168173ffffffffffffffffffffffffffffffffffffffff161415613dce576040517f08c379a0000000000000000000000000000000000000000000000000000000008152600401613dc5906156be565b60405180910390fd5b81600560006101000a81548173ffffffffffffffffffffffffffffffffffffffff021916908373ffffffffffffffffffffffffffffffffffffffff1602179055505050565b8060018054905081108015613e7e57506001600b811115613e3757613e36614d6e565b5b60018281548110613e4b57613e4a6152f5565b5b90600052602060002090600b020160040160009054906101000a900460ff16600b811115613e7c57613e7b614d6e565b5b145b613ebd576040517f08c379a0000000000000000000000000000000000000000000000000000000008152600401613eb490615d60565b60405180910390fd5b81600060018281548110613ed457613ed36152f5565b5b90600052602060002090600b020190506000613eee614402565b90508160040160019054906101000a900473ffffffffffffffffffffffffffffffffffffffff1673ffffffffffffffffffffffffffffffffffffffff168173ffffffffffffffffffffffffffffffffffffffff1614158015613fa057508160050160009054906101000a900473ffffffffffffffffffffffffffffffffffffffff1673ffffffffffffffffffffffffffffffffffffffff168173ffffffffffffffffffffffffffffffffffffffff1614155b613fdf576040517f08c379a0000000000000000000000000000000000000000000000000000000008152600401613fd690615dcc565b60405180910390fd5b600060018681548110613ff557613ff46152f5565b5b90600052602060002090600b02019050600061400f614402565b9050600560009054906101000a900473ffffffffffffffffffffffffffffffffffffffff1673ffffffffffffffffffffffffffffffffffffffff166323b872dd823085600301546040518463ffffffff1660e01b8152600401614074939291906156de565b6020604051808303816000875af1158015614093573d6000803e3d6000fd5b505050506040513d601f19601f820116820180604052508101906140b7919061572a565b6140c057600080fd5b808260060160006101000a81548173ffffffffffffffffffffffffffffffffffffffff021916908373ffffffffffffffffffffffffffffffffffffffff16021790555081600a0160009054906101000a900460ff161561414c5760028260040160006101000a81548160ff0219169083600b81111561414257614141614d6e565b5b021790555061417a565b60038260040160006101000a81548160ff0219169083600b81111561417457614173614d6e565b5b02179055505b600460008273ffffffffffffffffffffffffffffffffffffffff1673ffffffffffffffffffffffffffffffffffffffff16815260200190815260200160002060008154809291906141ca90615887565b91905055508160060160009054906101000a900473ffffffffffffffffffffffffffffffffffffffff1673ffffffffffffffffffffffffffffffffffffffff168260050160009054906101000a900473ffffffffffffffffffffffffffffffffffffffff1673ffffffffffffffffffffffffffffffffffffffff168360040160019054906101000a900473ffffffffffffffffffffffffffffffffffffffff1673ffffffffffffffffffffffffffffffffffffffff167ee0cc827fe4773fc338d3e432069ee11dce201fd710e97743b341c33f33094c85600001548660010154876002015488600301548960040160009054906101000a900460ff168a6007018b6008018c6009018d600a0160009054906101000a900460ff166040516142f9999897969594939291906155d0565b60405180910390a450505050505050565b614312614402565b73ffffffffffffffffffffffffffffffffffffffff1661433061314a565b73ffffffffffffffffffffffffffffffffffffffff1614614386576040517f08c379a000000000000000000000000000000000000000000000000000000000815260040161437d90615ab4565b60405180910390fd5b600073ffffffffffffffffffffffffffffffffffffffff168173ffffffffffffffffffffffffffffffffffffffff1614156143f6576040517f08c379a00000000000000000000000000000000000000000000000000000000081526004016143ed90615e5e565b60405180910390fd5b6143ff816147fc565b50565b600033905090565b6000614414614402565b905060006001805490509050600160405180610180016040528083815260200185815260200160008152602001600081526020016000600b81111561445c5761445b614d6e565b5b81526020018473ffffffffffffffffffffffffffffffffffffffff1681526020018773ffffffffffffffffffffffffffffffffffffffff168152602001600073ffffffffffffffffffffffffffffffffffffffff1681526020018681526020016040518060200160405280600081525081526020016040518060200160405280600081525081526020016001151581525090806001815401808255809150506001900390600052602060002090600b02016000909190919091506000820151816000015560208201518160010155604082015181600201556060820151816003015560808201518160040160006101000a81548160ff0219169083600b81111561456957614568614d6e565b5b021790555060a08201518160040160016101000a81548173ffffffffffffffffffffffffffffffffffffffff021916908373ffffffffffffffffffffffffffffffffffffffff16021790555060c08201518160050160006101000a81548173ffffffffffffffffffffffffffffffffffffffff021916908373ffffffffffffffffffffffffffffffffffffffff16021790555060e08201518160060160006101000a81548173ffffffffffffffffffffffffffffffffffffffff021916908373ffffffffffffffffffffffffffffffffffffffff160217905550610100820151816007019080519060200190614660929190614977565b5061012082015181600801908051906020019061467e929190614977565b5061014082015181600901908051906020019061469c929190614977565b5061016082015181600a0160006101000a81548160ff0219169083151502179055505050600260008373ffffffffffffffffffffffffffffffffffffffff1673ffffffffffffffffffffffffffffffffffffffff168152602001908152602001600020600081548092919061471090615887565b9190505550600360008673ffffffffffffffffffffffffffffffffffffffff1673ffffffffffffffffffffffffffffffffffffffff168152602001908152602001600020600081548092919061476590615887565b9190505550600073ffffffffffffffffffffffffffffffffffffffff168573ffffffffffffffffffffffffffffffffffffffff168373ffffffffffffffffffffffffffffffffffffffff167ee0cc827fe4773fc338d3e432069ee11dce201fd710e97743b341c33f33094c848760008060008c60016040516147ed9796959493929190615ee9565b60405180910390a45050505050565b60008060009054906101000a900473ffffffffffffffffffffffffffffffffffffffff169050816000806101000a81548173ffffffffffffffffffffffffffffffffffffffff021916908373ffffffffffffffffffffffffffffffffffffffff1602179055508173ffffffffffffffffffffffffffffffffffffffff168173ffffffffffffffffffffffffffffffffffffffff167f8be0079c531659141344cd1fd0a4f28419497f9722a3daafe3b4186f6b6457e060405160405180910390a35050565b604051806101800160405280600081526020016000815260200160008152602001600081526020016000600b8111156148fc576148fb614d6e565b5b8152602001600073ffffffffffffffffffffffffffffffffffffffff168152602001600073ffffffffffffffffffffffffffffffffffffffff168152602001600073ffffffffffffffffffffffffffffffffffffffff1681526020016060815260200160608152602001606081526020016000151581525090565b82805461498390615509565b90600052602060002090601f0160209004810192826149a557600085556149ec565b82601f106149be57805160ff19168380011785556149ec565b828001600101855582156149ec579182015b828111156149eb5782518255916020019190600101906149d0565b5b5090506149f991906149fd565b5090565b5b80821115614a165760008160009055506001016149fe565b5090565b6000604051905090565b600080fd5b600080fd5b6000819050919050565b614a4181614a2e565b8114614a4c57600080fd5b50565b600081359050614a5e81614a38565b92915050565b600060208284031215614a7a57614a79614a24565b5b6000614a8884828501614a4f565b91505092915050565b600073ffffffffffffffffffffffffffffffffffffffff82169050919050565b6000614abc82614a91565b9050919050565b614acc81614ab1565b8114614ad757600080fd5b50565b600081359050614ae981614ac3565b92915050565b600080fd5b600080fd5b6000601f19601f8301169050919050565b7f4e487b7100000000000000000000000000000000000000000000000000000000600052604160045260246000fd5b614b4282614af9565b810181811067ffffffffffffffff82111715614b6157614b60614b0a565b5b80604052505050565b6000614b74614a1a565b9050614b808282614b39565b919050565b600067ffffffffffffffff821115614ba057614b9f614b0a565b5b614ba982614af9565b9050602081019050919050565b82818337600083830152505050565b6000614bd8614bd384614b85565b614b6a565b905082815260208101848484011115614bf457614bf3614af4565b5b614bff848285614bb6565b509392505050565b600082601f830112614c1c57614c1b614aef565b5b8135614c2c848260208601614bc5565b91505092915050565b600080600060608486031215614c4e57614c4d614a24565b5b6000614c5c86828701614ada565b935050602084013567ffffffffffffffff811115614c7d57614c7c614a29565b5b614c8986828701614c07565b9250506040614c9a86828701614a4f565b9150509250925092565b600060208284031215614cba57614cb9614a24565b5b6000614cc884828501614ada565b91505092915050565b614cda81614a2e565b82525050565b6000604082019050614cf56000830185614cd1565b614d026020830184614cd1565b9392505050565b614d1281614ab1565b82525050565b6000602082019050614d2d6000830184614d09565b92915050565b600081519050919050565b600082825260208201905092915050565b6000819050602082019050919050565b614d6881614a2e565b82525050565b7f4e487b7100000000000000000000000000000000000000000000000000000000600052602160045260246000fd5b600c8110614dae57614dad614d6e565b5b50565b6000819050614dbf82614d9d565b919050565b6000614dcf82614db1565b9050919050565b614ddf81614dc4565b82525050565b614dee81614ab1565b82525050565b600081519050919050565b600082825260208201905092915050565b60005b83811015614e2e578082015181840152602081019050614e13565b83811115614e3d576000848401525b50505050565b6000614e4e82614df4565b614e588185614dff565b9350614e68818560208601614e10565b614e7181614af9565b840191505092915050565b60008115159050919050565b614e9181614e7c565b82525050565b600061018083016000830151614eb06000860182614d5f565b506020830151614ec36020860182614d5f565b506040830151614ed66040860182614d5f565b506060830151614ee96060860182614d5f565b506080830151614efc6080860182614dd6565b5060a0830151614f0f60a0860182614de5565b5060c0830151614f2260c0860182614de5565b5060e0830151614f3560e0860182614de5565b50610100830151848203610100860152614f4f8282614e43565b915050610120830151848203610120860152614f6b8282614e43565b915050610140830151848203610140860152614f878282614e43565b915050610160830151614f9e610160860182614e88565b508091505092915050565b6000614fb58383614e97565b905092915050565b6000602082019050919050565b6000614fd582614d33565b614fdf8185614d3e565b935083602082028501614ff185614d4f565b8060005b8581101561502d578484038952815161500e8582614fa9565b945061501983614fbd565b925060208a01995050600181019050614ff5565b50829750879550505050505092915050565b600060208201905081810360008301526150598184614fca565b905092915050565b61506a81614e7c565b811461507557600080fd5b50565b60008135905061508781615061565b92915050565b60008060008060008060c087890312156150aa576150a9614a24565b5b60006150b889828a01614a4f565b965050602087013567ffffffffffffffff8111156150d9576150d8614a29565b5b6150e589828a01614c07565b955050604087013567ffffffffffffffff81111561510657615105614a29565b5b61511289828a01614c07565b945050606061512389828a01614a4f565b935050608061513489828a01614a4f565b92505060a061514589828a01615078565b9150509295509295509295565b61515b81614dc4565b82525050565b600082825260208201905092915050565b600061517d82614df4565b6151878185615161565b9350615197818560208601614e10565b6151a081614af9565b840191505092915050565b6151b481614e7c565b82525050565b6000610180820190506151d0600083018f614cd1565b6151dd602083018e614cd1565b6151ea604083018d614cd1565b6151f7606083018c614cd1565b615204608083018b615152565b61521160a083018a614d09565b61521e60c0830189614d09565b61522b60e0830188614d09565b81810361010083015261523e8187615172565b90508181036101208301526152538186615172565b90508181036101408301526152688185615172565b90506152786101608301846151ab565b9d9c50505050505050505050505050565b7f496e76616c6964206f7264657220696400000000000000000000000000000000600082015250565b60006152bf601083615161565b91506152ca82615289565b602082019050919050565b600060208201905081810360008301526152ee816152b2565b9050919050565b7f4e487b7100000000000000000000000000000000000000000000000000000000600052603260045260246000fd5b7f4f72646572206973206973206e6f7420696e207472616e7366657261626c6500600082015250565b600061535a601f83615161565b915061536582615324565b602082019050919050565b600060208201905081810360008301526153898161534d565b9050919050565b7f5468652073656e646572206973206e656974686572207468652073656c6c657260008201527f206e6f722064656c697665727920736572766963650000000000000000000000602082015250565b60006153ec603583615161565b91506153f782615390565b604082019050919050565b6000602082019050818103600083015261541b816153df565b9050919050565b7f496c6c6567616c206f7065726174696f6e2c2063616e6e6f7420736574206f7260008201527f64657220696e207472616e73697420747769636520776974682074686520736160208201527f6d65206163636f756e7400000000000000000000000000000000000000000000604082015250565b60006154a4604a83615161565b91506154af82615422565b606082019050919050565b600060208201905081810360008301526154d381615497565b9050919050565b7f4e487b7100000000000000000000000000000000000000000000000000000000600052602260045260246000fd5b6000600282049050600182168061552157607f821691505b60208210811415615535576155346154da565b5b50919050565b60008190508160005260206000209050919050565b6000815461555d81615509565b6155678186615161565b945060018216600081146155825760018114615594576155c7565b60ff19831686526020860193506155c7565b61559d8561553b565b60005b838110156155bf578154818901526001820191506020810190506155a0565b808801955050505b50505092915050565b6000610120820190506155e6600083018c614cd1565b6155f3602083018b614cd1565b615600604083018a614cd1565b61560d6060830189614cd1565b61561a6080830188615152565b81810360a083015261562c8187615550565b905081810360c08301526156408186615550565b905081810360e08301526156548185615550565b90506156646101008301846151ab565b9a9950505050505050505050565b7f4e756c6c2061646472657373206973206e6f742076616c696421000000000000600082015250565b60006156a8601a83615161565b91506156b382615672565b602082019050919050565b600060208201905081810360008301526156d78161569b565b9050919050565b60006060820190506156f36000830186614d09565b6157006020830185614d09565b61570d6040830184614cd1565b949350505050565b60008151905061572481615061565b92915050565b6000602082840312156157405761573f614a24565b5b600061574e84828501615715565b91505092915050565b7f4f7264657220697320616c726561647920616363657074656400000000000000600082015250565b600061578d601983615161565b915061579882615757565b602082019050919050565b600060208201905081810360008301526157bc81615780565b9050919050565b7f5468652073656e646572206973206e6f74207468652073656c6c657200000000600082015250565b60006157f9601c83615161565b9150615804826157c3565b602082019050919050565b60006020820190508181036000830152615828816157ec565b9050919050565b60006040820190506158446000830185614d09565b6158516020830184614cd1565b9392505050565b7f4e487b7100000000000000000000000000000000000000000000000000000000600052601160045260246000fd5b600061589282614a2e565b91507fffffffffffffffffffffffffffffffffffffffffffffffffffffffffffffffff8214156158c5576158c4615858565b5b600182019050919050565b7f4f7264657220697320616c7265616479206265696e6720707265706172656400600082015250565b6000615906601f83615161565b9150615911826158d0565b602082019050919050565b60006020820190508181036000830152615935816158f9565b9050919050565b7f5468652073656e646572206973206e6f742074686520636c69656e7400000000600082015250565b6000615972601c83615161565b915061597d8261593c565b602082019050919050565b600060208201905081810360008301526159a181615965565b9050919050565b6000610160820190506159be600083018e614cd1565b6159cb602083018d614cd1565b6159d8604083018c614cd1565b6159e5606083018b614cd1565b6159f2608083018a614d09565b6159ff60a0830189614d09565b615a0c60c0830188614d09565b81810360e0830152615a1e8187615550565b9050818103610100830152615a338186615550565b9050818103610120830152615a488185615550565b9050615a586101408301846151ab565b9c9b505050505050505050505050565b7f4f776e61626c653a2063616c6c6572206973206e6f7420746865206f776e6572600082015250565b6000615a9e602083615161565b9150615aa982615a68565b602082019050919050565b60006020820190508181036000830152615acd81615a91565b9050919050565b7f4f72646572206973206e6f742061636365707465640000000000000000000000600082015250565b6000615b0a601583615161565b9150615b1582615ad4565b602082019050919050565b60006020820190508181036000830152615b3981615afd565b9050919050565b7f4f72646572206973206973206e6f7420696e20636f6d706c657461626c650000600082015250565b6000615b76601e83615161565b9150615b8182615b40565b602082019050919050565b60006020820190508181036000830152615ba581615b69565b9050919050565b6000615bb782614a2e565b9150615bc283614a2e565b925082821015615bd557615bd4615858565b5b828203905092915050565b6000615beb82614a2e565b9150615bf683614a2e565b9250827fffffffffffffffffffffffffffffffffffffffffffffffffffffffffffffffff03821115615c2b57615c2a615858565b5b828201905092915050565b7f496c6c6567616c206f7065726174696f6e2c2063616e6e6f7420636f6d706c6560008201527f7465206f726465722074776963652077697468207468652073616d652061636360208201527f6f756e7400000000000000000000000000000000000000000000000000000000604082015250565b6000615cb8604483615161565b9150615cc382615c36565b606082019050919050565b60006020820190508181036000830152615ce781615cab565b9050919050565b7f4f72646572206973207374696c6c2070656e64696e67206f7220696e2070726f60008201527f6772657373000000000000000000000000000000000000000000000000000000602082015250565b6000615d4a602583615161565b9150615d5582615cee565b604082019050919050565b60006020820190508181036000830152615d7981615d3d565b9050919050565b7f5468652073656e64657220697320636c69656e74206f722073656c6c65720000600082015250565b6000615db6601e83615161565b9150615dc182615d80565b602082019050919050565b60006020820190508181036000830152615de581615da9565b9050919050565b7f4f776e61626c653a206e6577206f776e657220697320746865207a65726f206160008201527f6464726573730000000000000000000000000000000000000000000000000000602082015250565b6000615e48602683615161565b9150615e5382615dec565b604082019050919050565b60006020820190508181036000830152615e7781615e3b565b9050919050565b6000819050919050565b6000819050919050565b6000615ead615ea8615ea384615e7e565b615e88565b614a2e565b9050919050565b615ebd81615e92565b82525050565b50565b6000615ed3600083615161565b9150615ede82615ec3565b600082019050919050565b600061012082019050615eff600083018a614cd1565b615f0c6020830189614cd1565b615f196040830188615eb4565b615f266060830187615eb4565b615f336080830186615152565b81810360a0830152615f458185615172565b905081810360c0830152615f5881615ec6565b905081810360e0830152615f6b81615ec6565b9050615f7b6101008301846151ab565b9897505050505050505056fea2646970667358221220577b8e94c9576c42a25955455c3baa3ce0e480b93b739fc732e4eac2c96f7a8c64736f6c634300080b0033",
  "immutableReferences": {},
  "source": "// SPDX-License-Identifier: MIT\npragma solidity ^0.8.0;\n\nimport \"./OrderHelper.sol\";\nimport \"./OrderManager.sol\";\n\n/**\n * @title Main contract that contains all functionality of the smart contract\n * @notice This contract combines all the possible functionality of the smart contract.\n */\ncontract TnoEats is OrderHelper, OrderManager {\n\n    constructor(address _eurTnoContract) {\n        eurTnoContract = _eurTnoContract;\n    }\n\n    function changeEurTnoAddress(address _eurTnoContract) external onlyOwner validAddress(_eurTnoContract) {\n        eurTnoContract = _eurTnoContract;\n    }\n}",
  "sourcePath": "/home/tno-eats/contracts/TnoEats.sol",
  "compiler": {
    "name": "solc",
    "version": "0.8.11+commit.d7f03943.Emscripten.clang"
  },
  "schemaVersion": "3.4.6",
  "updatedAt": "2022-03-30T16:16:03.015Z",
  "networkType": "ethereum",
  "devdoc": {
    "kind": "dev",
    "methods": {
      "acceptOrder(uint256)": {
        "params": {
          "_orderId": "Active order id"
        }
      },
      "approveOrder(uint256,string,string,uint256,uint256,bool)": {
        "params": {
          "_orderId": "Active order id"
        }
      },
      "cancelOrder(uint256)": {
        "params": {
          "_orderId": "Active order id"
        }
      },
      "completeOrder(uint256)": {
        "params": {
          "_orderId": "Active order id"
        }
      },
      "getApprovedOrders()": {
        "returns": {
          "_0": "Order[] An array containing orders."
        }
      },
      "getClientOrderCount(address)": {
        "params": {
          "_client": "Order client address."
        },
        "returns": {
          "_0": "(uint, uint) Tuple containing (completedCount, cancelledCount)."
        }
      },
      "getOrdersByClient(address)": {
        "params": {
          "_client": "Order client address."
        },
        "returns": {
          "_0": "Order[] An array containing orders."
        }
      },
      "getOrdersByDeliveryService(address)": {
        "params": {
          "_deliveryService": "Order deliverer address."
        },
        "returns": {
          "_0": "Order[] An array containing orders."
        }
      },
      "getOrdersBySeller(address)": {
        "params": {
          "_seller": "Order seller address."
        },
        "returns": {
          "_0": "Order[] An array containing orders."
        }
      },
      "owner()": {
        "details": "Returns the address of the current owner."
      },
      "placeOrder(address,string,uint256)": {
        "params": {
          "_orderInfo": "Url to the encoded order data stored in IPFS",
          "_seller": "The address of the seller"
        }
      },
      "preparedOrder(uint256)": {
        "params": {
          "_orderId": "Active order id"
        }
      },
      "rejectOrder(uint256)": {
        "params": {
          "_orderId": "Pending order id"
        }
      },
      "renounceOwnership()": {
        "details": "Leaves the contract without owner. It will not be possible to call `onlyOwner` functions anymore. Can only be called by the current owner. NOTE: Renouncing ownership will leave the contract without an owner, thereby removing any functionality that is only available to the owner."
      },
      "transferOrder(uint256)": {
        "params": {
          "_orderId": "Active order id"
        }
      },
      "transferOwnership(address)": {
        "details": "Transfers ownership of the contract to a new account (`newOwner`). Can only be called by the current owner."
      }
    },
    "title": "Main contract that contains all functionality of the smart contract",
    "version": 1
  },
  "userdoc": {
    "kind": "user",
    "methods": {
      "acceptOrder(uint256)": {
        "notice": "Delivery service accepts an order.         The order needs to be approved by the seller."
      },
      "approveOrder(uint256,string,string,uint256,uint256,bool)": {
        "notice": "A seller approves an order.         Can be called only by the seller and the order needs to be pending."
      },
      "cancelOrder(uint256)": {
        "notice": "An order is cancelled by the client.         Can be called only by the client.         The order needs to be pending and not yet accepted by the seller."
      },
      "completeOrder(uint256)": {
        "notice": "An order is delivered by the delivery service to the client.         Can be called only by the delivery service or the client.         The endpoint needs to be called by both parties to reach the consensus and move the order state to Completed."
      },
      "getApprovedOrders()": {
        "notice": "Gets all orders that are approved by a seller waiting for deliveryService to accept."
      },
      "getClientOrderCount(address)": {
        "notice": "Get canceled and completed orders count of a given client."
      },
      "getOrdersByClient(address)": {
        "notice": "Gets all order ids of the client by the provided address."
      },
      "getOrdersByDeliveryService(address)": {
        "notice": "Gets all order ids of the delivery service by the provided address."
      },
      "getOrdersBySeller(address)": {
        "notice": "Gets all order ids of the seller by the provided address."
      },
      "placeOrder(address,string,uint256)": {
        "notice": "A client places an order to the smart contract."
      },
      "preparedOrder(uint256)": {
        "notice": "Seller marks order as ready.         The order needs to be accepted by a deliveryService."
      },
      "rejectOrder(uint256)": {
        "notice": "An order is rejected by the seller.         The order needs to be pending and not yet be accepted by the seller."
      },
      "transferOrder(uint256)": {
        "notice": "An order is passed on to the delivery service by the seller.         Can be called only by the seller or the delivery service.         The endpoint needs to be called by both parties to reach the consensus and move the order state to InTransit."
      }
    },
    "notice": "This contract combines all the possible functionality of the smart contract.",
    "version": 1
  }
}