{
  "contractName": "TnoEats",
  "abi": [
    {
      "inputs": [
        {
          "internalType": "address",
          "name": "_eurTnoContract",
          "type": "address"
        }
      ],
      "stateMutability": "nonpayable",
      "type": "constructor"
    },
    {
      "anonymous": false,
      "inputs": [
        {
          "indexed": false,
          "internalType": "uint256",
          "name": "id",
          "type": "uint256"
        },
        {
          "indexed": false,
          "internalType": "uint256",
          "name": "amount",
          "type": "uint256"
        },
        {
          "indexed": false,
          "internalType": "uint256",
          "name": "deliveryFee",
          "type": "uint256"
        },
        {
          "indexed": false,
          "internalType": "uint256",
          "name": "collateral",
          "type": "uint256"
        },
        {
          "indexed": false,
          "internalType": "enum OrderFactory.OrderStatus",
          "name": "status",
          "type": "uint8"
        },
        {
          "indexed": true,
          "internalType": "address",
          "name": "client",
          "type": "address"
        },
        {
          "indexed": true,
          "internalType": "address",
          "name": "seller",
          "type": "address"
        },
        {
          "indexed": true,
          "internalType": "address",
          "name": "deliveryService",
          "type": "address"
        },
        {
          "indexed": false,
          "internalType": "string",
          "name": "orderContentsUrl",
          "type": "string"
        },
        {
          "indexed": false,
          "internalType": "string",
          "name": "originZipCode",
          "type": "string"
        },
        {
          "indexed": false,
          "internalType": "string",
          "name": "destinationZipCode",
          "type": "string"
        }
      ],
      "name": "OrderStatusChanged",
      "type": "event"
    },
    {
      "anonymous": false,
      "inputs": [
        {
          "indexed": true,
          "internalType": "address",
          "name": "previousOwner",
          "type": "address"
        },
        {
          "indexed": true,
          "internalType": "address",
          "name": "newOwner",
          "type": "address"
        }
      ],
      "name": "OwnershipTransferred",
      "type": "event"
    },
    {
      "inputs": [
        {
          "internalType": "uint256",
          "name": "_orderId",
          "type": "uint256"
        }
      ],
      "name": "acceptOrder",
      "outputs": [],
      "stateMutability": "nonpayable",
      "type": "function"
    },
    {
      "inputs": [
        {
          "internalType": "uint256",
          "name": "_orderId",
          "type": "uint256"
        },
        {
          "internalType": "string",
          "name": "sellerZipCode",
          "type": "string"
        },
        {
          "internalType": "string",
          "name": "clientZipCode",
          "type": "string"
        },
        {
          "internalType": "uint256",
          "name": "_deliveryFee",
          "type": "uint256"
        },
        {
          "internalType": "uint256",
          "name": "_collateral",
          "type": "uint256"
        }
      ],
      "name": "approveOrder",
      "outputs": [],
      "stateMutability": "nonpayable",
      "type": "function"
    },
    {
      "inputs": [
        {
          "internalType": "uint256",
          "name": "_orderId",
          "type": "uint256"
        }
      ],
      "name": "cancelOrder",
      "outputs": [],
      "stateMutability": "nonpayable",
      "type": "function"
    },
    {
      "inputs": [
        {
          "internalType": "uint256",
          "name": "_orderId",
          "type": "uint256"
        }
      ],
      "name": "completeOrder",
      "outputs": [],
      "stateMutability": "nonpayable",
      "type": "function"
    },
    {
      "inputs": [],
      "name": "getApprovedOrders",
      "outputs": [
        {
          "components": [
            {
              "internalType": "uint256",
              "name": "id",
              "type": "uint256"
            },
            {
              "internalType": "uint256",
              "name": "amount",
              "type": "uint256"
            },
            {
              "internalType": "uint256",
              "name": "deliveryFee",
              "type": "uint256"
            },
            {
              "internalType": "uint256",
              "name": "collateral",
              "type": "uint256"
            },
            {
              "internalType": "enum OrderFactory.OrderStatus",
              "name": "status",
              "type": "uint8"
            },
            {
              "internalType": "address",
              "name": "client",
              "type": "address"
            },
            {
              "internalType": "address",
              "name": "seller",
              "type": "address"
            },
            {
              "internalType": "address",
              "name": "deliveryService",
              "type": "address"
            },
            {
              "internalType": "string",
              "name": "orderContentsUrl",
              "type": "string"
            },
            {
              "internalType": "string",
              "name": "originZipCode",
              "type": "string"
            },
            {
              "internalType": "string",
              "name": "destinationZipCode",
              "type": "string"
            }
          ],
          "internalType": "struct OrderFactory.Order[]",
          "name": "",
          "type": "tuple[]"
        }
      ],
      "stateMutability": "view",
      "type": "function",
      "constant": true
    },
    {
      "inputs": [
        {
          "internalType": "address",
          "name": "_client",
          "type": "address"
        }
      ],
      "name": "getClientCancelledOrderCount",
      "outputs": [
        {
          "internalType": "uint256",
          "name": "",
          "type": "uint256"
        }
      ],
      "stateMutability": "view",
      "type": "function",
      "constant": true
    },
    {
      "inputs": [
        {
          "internalType": "address",
          "name": "_client",
          "type": "address"
        }
      ],
      "name": "getClientCompletedOrderCount",
      "outputs": [
        {
          "internalType": "uint256",
          "name": "",
          "type": "uint256"
        }
      ],
      "stateMutability": "view",
      "type": "function",
      "constant": true
    },
    {
      "inputs": [
        {
          "internalType": "address",
          "name": "_client",
          "type": "address"
        }
      ],
      "name": "getOrdersByClient",
      "outputs": [
        {
          "components": [
            {
              "internalType": "uint256",
              "name": "id",
              "type": "uint256"
            },
            {
              "internalType": "uint256",
              "name": "amount",
              "type": "uint256"
            },
            {
              "internalType": "uint256",
              "name": "deliveryFee",
              "type": "uint256"
            },
            {
              "internalType": "uint256",
              "name": "collateral",
              "type": "uint256"
            },
            {
              "internalType": "enum OrderFactory.OrderStatus",
              "name": "status",
              "type": "uint8"
            },
            {
              "internalType": "address",
              "name": "client",
              "type": "address"
            },
            {
              "internalType": "address",
              "name": "seller",
              "type": "address"
            },
            {
              "internalType": "address",
              "name": "deliveryService",
              "type": "address"
            },
            {
              "internalType": "string",
              "name": "orderContentsUrl",
              "type": "string"
            },
            {
              "internalType": "string",
              "name": "originZipCode",
              "type": "string"
            },
            {
              "internalType": "string",
              "name": "destinationZipCode",
              "type": "string"
            }
          ],
          "internalType": "struct OrderFactory.Order[]",
          "name": "",
          "type": "tuple[]"
        }
      ],
      "stateMutability": "view",
      "type": "function",
      "constant": true
    },
    {
      "inputs": [
        {
          "internalType": "address",
          "name": "_deliveryService",
          "type": "address"
        }
      ],
      "name": "getOrdersByDeliveryService",
      "outputs": [
        {
          "components": [
            {
              "internalType": "uint256",
              "name": "id",
              "type": "uint256"
            },
            {
              "internalType": "uint256",
              "name": "amount",
              "type": "uint256"
            },
            {
              "internalType": "uint256",
              "name": "deliveryFee",
              "type": "uint256"
            },
            {
              "internalType": "uint256",
              "name": "collateral",
              "type": "uint256"
            },
            {
              "internalType": "enum OrderFactory.OrderStatus",
              "name": "status",
              "type": "uint8"
            },
            {
              "internalType": "address",
              "name": "client",
              "type": "address"
            },
            {
              "internalType": "address",
              "name": "seller",
              "type": "address"
            },
            {
              "internalType": "address",
              "name": "deliveryService",
              "type": "address"
            },
            {
              "internalType": "string",
              "name": "orderContentsUrl",
              "type": "string"
            },
            {
              "internalType": "string",
              "name": "originZipCode",
              "type": "string"
            },
            {
              "internalType": "string",
              "name": "destinationZipCode",
              "type": "string"
            }
          ],
          "internalType": "struct OrderFactory.Order[]",
          "name": "",
          "type": "tuple[]"
        }
      ],
      "stateMutability": "view",
      "type": "function",
      "constant": true
    },
    {
      "inputs": [
        {
          "internalType": "address",
          "name": "_seller",
          "type": "address"
        }
      ],
      "name": "getOrdersBySeller",
      "outputs": [
        {
          "components": [
            {
              "internalType": "uint256",
              "name": "id",
              "type": "uint256"
            },
            {
              "internalType": "uint256",
              "name": "amount",
              "type": "uint256"
            },
            {
              "internalType": "uint256",
              "name": "deliveryFee",
              "type": "uint256"
            },
            {
              "internalType": "uint256",
              "name": "collateral",
              "type": "uint256"
            },
            {
              "internalType": "enum OrderFactory.OrderStatus",
              "name": "status",
              "type": "uint8"
            },
            {
              "internalType": "address",
              "name": "client",
              "type": "address"
            },
            {
              "internalType": "address",
              "name": "seller",
              "type": "address"
            },
            {
              "internalType": "address",
              "name": "deliveryService",
              "type": "address"
            },
            {
              "internalType": "string",
              "name": "orderContentsUrl",
              "type": "string"
            },
            {
              "internalType": "string",
              "name": "originZipCode",
              "type": "string"
            },
            {
              "internalType": "string",
              "name": "destinationZipCode",
              "type": "string"
            }
          ],
          "internalType": "struct OrderFactory.Order[]",
          "name": "",
          "type": "tuple[]"
        }
      ],
      "stateMutability": "view",
      "type": "function",
      "constant": true
    },
    {
      "inputs": [
        {
          "internalType": "uint256",
          "name": "",
          "type": "uint256"
        }
      ],
      "name": "orders",
      "outputs": [
        {
          "internalType": "uint256",
          "name": "id",
          "type": "uint256"
        },
        {
          "internalType": "uint256",
          "name": "amount",
          "type": "uint256"
        },
        {
          "internalType": "uint256",
          "name": "deliveryFee",
          "type": "uint256"
        },
        {
          "internalType": "uint256",
          "name": "collateral",
          "type": "uint256"
        },
        {
          "internalType": "enum OrderFactory.OrderStatus",
          "name": "status",
          "type": "uint8"
        },
        {
          "internalType": "address",
          "name": "client",
          "type": "address"
        },
        {
          "internalType": "address",
          "name": "seller",
          "type": "address"
        },
        {
          "internalType": "address",
          "name": "deliveryService",
          "type": "address"
        },
        {
          "internalType": "string",
          "name": "orderContentsUrl",
          "type": "string"
        },
        {
          "internalType": "string",
          "name": "originZipCode",
          "type": "string"
        },
        {
          "internalType": "string",
          "name": "destinationZipCode",
          "type": "string"
        }
      ],
      "stateMutability": "view",
      "type": "function",
      "constant": true
    },
    {
      "inputs": [],
      "name": "owner",
      "outputs": [
        {
          "internalType": "address",
          "name": "",
          "type": "address"
        }
      ],
      "stateMutability": "view",
      "type": "function",
      "constant": true
    },
    {
      "inputs": [
        {
          "internalType": "address",
          "name": "_seller",
          "type": "address"
        },
        {
          "internalType": "string",
          "name": "_orderInfo",
          "type": "string"
        },
        {
          "internalType": "uint256",
          "name": "_amount",
          "type": "uint256"
        }
      ],
      "name": "placeOrder",
      "outputs": [],
      "stateMutability": "nonpayable",
      "type": "function"
    },
    {
      "inputs": [
        {
          "internalType": "uint256",
          "name": "_orderId",
          "type": "uint256"
        }
      ],
      "name": "rejectOrder",
      "outputs": [],
      "stateMutability": "nonpayable",
      "type": "function"
    },
    {
      "inputs": [],
      "name": "renounceOwnership",
      "outputs": [],
      "stateMutability": "nonpayable",
      "type": "function"
    },
    {
      "inputs": [
        {
          "internalType": "uint256",
          "name": "_orderId",
          "type": "uint256"
        }
      ],
      "name": "transferOrder",
      "outputs": [],
      "stateMutability": "nonpayable",
      "type": "function"
    },
    {
      "inputs": [
        {
          "internalType": "address",
          "name": "newOwner",
          "type": "address"
        }
      ],
      "name": "transferOwnership",
      "outputs": [],
      "stateMutability": "nonpayable",
      "type": "function"
    },
    {
      "inputs": [
        {
          "internalType": "address",
          "name": "_eurTnoContract",
          "type": "address"
        }
      ],
      "name": "changeEurTnoAddress",
      "outputs": [],
      "stateMutability": "nonpayable",
      "type": "function"
    }
  ],
  "bytecode": "0x60806040523480156200001157600080fd5b5060405162005f6438038062005f648339818101604052810190620000379190620001d5565b620000576200004b6200009f60201b60201c565b620000a760201b60201c565b80600560006101000a81548173ffffffffffffffffffffffffffffffffffffffff021916908373ffffffffffffffffffffffffffffffffffffffff1602179055505062000207565b600033905090565b60008060009054906101000a900473ffffffffffffffffffffffffffffffffffffffff169050816000806101000a81548173ffffffffffffffffffffffffffffffffffffffff021916908373ffffffffffffffffffffffffffffffffffffffff1602179055508173ffffffffffffffffffffffffffffffffffffffff168173ffffffffffffffffffffffffffffffffffffffff167f8be0079c531659141344cd1fd0a4f28419497f9722a3daafe3b4186f6b6457e060405160405180910390a35050565b600080fd5b600073ffffffffffffffffffffffffffffffffffffffff82169050919050565b60006200019d8262000170565b9050919050565b620001af8162000190565b8114620001bb57600080fd5b50565b600081519050620001cf81620001a4565b92915050565b600060208284031215620001ee57620001ed6200016b565b5b6000620001fe84828501620001be565b91505092915050565b615d4d80620002176000396000f3fe608060405234801561001057600080fd5b50600436106101165760003560e01c80637732497e116100a2578063ac05846511610071578063ac058465146102fb578063b6adaaff14610317578063d1b9a93514610333578063ef18e9ed1461034f578063f2fde38b1461036b57610116565b80637732497e146102435780637a202cc1146102735780638da5cb5b146102a3578063a85c38ef146102c157610116565b8063467a94d6116100e9578063467a94d61461019f5780634f02e94a146101cf578063514fcac7146101ff5780635cd030a01461021b578063715018a61461023957610116565b80630fa34c7c1461011b57806317b859391461014b57806321d4209c1461016757806324f6389414610183575b600080fd5b61013560048036038101906101309190614971565b610387565b60405161014291906149b7565b60405180910390f35b610165600480360381019061016091906149fe565b6104a4565b005b610181600480360381019061017c9190614b71565b610ce1565b005b61019d600480360381019061019891906149fe565b610e15565b005b6101b960048036038101906101b49190614971565b6111c6565b6040516101c69190614ebc565b60405180910390f35b6101e960048036038101906101e49190614971565b61167d565b6040516101f691906149b7565b60405180910390f35b610219600480360381019061021491906149fe565b61179b565b005b610223611b4c565b6040516102309190614ebc565b60405180910390f35b61024161203c565b005b61025d60048036038101906102589190614971565b6120c4565b60405161026a9190614ebc565b60405180910390f35b61028d60048036038101906102889190614971565b61257b565b60405161029a9190614ebc565b60405180910390f35b6102ab612a32565b6040516102b89190614eed565b60405180910390f35b6102db60048036038101906102d691906149fe565b612a5b565b6040516102f29b9a99989796959493929190614f61565b60405180910390f35b61031560048036038101906103109190615021565b612cca565b005b610331600480360381019061032c91906149fe565b61316d565b005b61034d60048036038101906103489190614971565b613b6a565b005b610369600480360381019061036491906149fe565b613c2a565b005b61038560048036038101906103809190614971565b614224565b005b6000806000905060005b60018054905081101561049a57600b808111156103b1576103b0614c1b565b5b600182815481106103c5576103c46150d4565b5b90600052602060002090600a020160040160009054906101000a900460ff16600b8111156103f6576103f5614c1b565b5b14801561047357508373ffffffffffffffffffffffffffffffffffffffff1660018281548110610429576104286150d4565b5b90600052602060002090600a020160040160019054906101000a900473ffffffffffffffffffffffffffffffffffffffff1673ffffffffffffffffffffffffffffffffffffffff16145b1561048757818061048390615132565b9250505b808061049290615132565b915050610391565b5080915050919050565b8060018054905081106104ec576040517f08c379a00000000000000000000000000000000000000000000000000000000081526004016104e3906151c7565b60405180910390fd5b600060018281548110610502576105016150d4565b5b90600052602060002090600a020190506009600b81111561052657610525614c1b565b5b8160040160009054906101000a900460ff16600b81111561054a57610549614c1b565b5b14158061058c5750600b8081111561056557610564614c1b565b5b8160040160009054906101000a900460ff16600b81111561058957610588614c1b565b5b14155b806105cd5750600a600b8111156105a6576105a5614c1b565b5b8160040160009054906101000a900460ff16600b8111156105ca576105c9614c1b565b5b14155b61060c576040517f08c379a000000000000000000000000000000000000000000000000000000000815260040161060390615233565b60405180910390fd5b82600060018281548110610623576106226150d4565b5b90600052602060002090600a020190506003600b81111561064757610646614c1b565b5b8160040160009054906101000a900460ff16600b81111561066b5761066a614c1b565b5b14806106ac57506005600b81111561068657610685614c1b565b5b8160040160009054906101000a900460ff16600b8111156106aa576106a9614c1b565b5b145b806106ec57506004600b8111156106c6576106c5614c1b565b5b8160040160009054906101000a900460ff16600b8111156106ea576106e9614c1b565b5b145b61072b576040517f08c379a00000000000000000000000000000000000000000000000000000000081526004016107229061529f565b60405180910390fd5b84600060018281548110610742576107416150d4565b5b90600052602060002090600a02019050600061075c61431c565b90508160050160009054906101000a900473ffffffffffffffffffffffffffffffffffffffff1673ffffffffffffffffffffffffffffffffffffffff168173ffffffffffffffffffffffffffffffffffffffff16148061080b57508160060160009054906101000a900473ffffffffffffffffffffffffffffffffffffffff1673ffffffffffffffffffffffffffffffffffffffff168173ffffffffffffffffffffffffffffffffffffffff16145b61084a576040517f08c379a000000000000000000000000000000000000000000000000000000000815260040161084190615331565b60405180910390fd5b6000600189815481106108605761085f6150d4565b5b90600052602060002090600a02019050600061087a61431c565b90508160050160009054906101000a900473ffffffffffffffffffffffffffffffffffffffff1673ffffffffffffffffffffffffffffffffffffffff168173ffffffffffffffffffffffffffffffffffffffff1614801561091057506003600b8111156108ea576108e9614c1b565b5b8260040160009054906101000a900460ff16600b81111561090e5761090d614c1b565b5b145b156109475760058260040160006101000a81548160ff0219169083600b81111561093d5761093c614c1b565b5b0217905550610bb5565b8160060160009054906101000a900473ffffffffffffffffffffffffffffffffffffffff1673ffffffffffffffffffffffffffffffffffffffff168173ffffffffffffffffffffffffffffffffffffffff161480156109db57506003600b8111156109b5576109b4614c1b565b5b8260040160009054906101000a900460ff16600b8111156109d9576109d8614c1b565b5b145b15610a125760048260040160006101000a81548160ff0219169083600b811115610a0857610a07614c1b565b5b0217905550610bb4565b8160050160009054906101000a900473ffffffffffffffffffffffffffffffffffffffff1673ffffffffffffffffffffffffffffffffffffffff168173ffffffffffffffffffffffffffffffffffffffff16148015610aa657506004600b811115610a8057610a7f614c1b565b5b8260040160009054906101000a900460ff16600b811115610aa457610aa3614c1b565b5b145b80610b4157508160060160009054906101000a900473ffffffffffffffffffffffffffffffffffffffff1673ffffffffffffffffffffffffffffffffffffffff168173ffffffffffffffffffffffffffffffffffffffff16148015610b4057506005600b811115610b1a57610b19614c1b565b5b8260040160009054906101000a900460ff16600b811115610b3e57610b3d614c1b565b5b145b5b15610b785760068260040160006101000a81548160ff0219169083600b811115610b6e57610b6d614c1b565b5b0217905550610bb3565b6040517f08c379a0000000000000000000000000000000000000000000000000000000008152600401610baa906153e9565b60405180910390fd5b5b5b8160060160009054906101000a900473ffffffffffffffffffffffffffffffffffffffff1673ffffffffffffffffffffffffffffffffffffffff168260050160009054906101000a900473ffffffffffffffffffffffffffffffffffffffff1673ffffffffffffffffffffffffffffffffffffffff168360040160019054906101000a900473ffffffffffffffffffffffffffffffffffffffff1673ffffffffffffffffffffffffffffffffffffffff167fc9376ddc1a096f70aba8bd8481c6d2b391b9318f2fb1da8a9994d910fd7b814285600001548660010154876002015488600301548960040160009054906101000a900460ff168a6007018b6008018c600901604051610ccd9897969594939291906154ff565b60405180910390a450505050505050505050565b82600073ffffffffffffffffffffffffffffffffffffffff168173ffffffffffffffffffffffffffffffffffffffff161415610d52576040517f08c379a0000000000000000000000000000000000000000000000000000000008152600401610d49906155de565b60405180910390fd5b600560009054906101000a900473ffffffffffffffffffffffffffffffffffffffff1673ffffffffffffffffffffffffffffffffffffffff166323b872dd610d9861431c565b30856040518463ffffffff1660e01b8152600401610db8939291906155fe565b6020604051808303816000875af1158015610dd7573d6000803e3d6000fd5b505050506040513d601f19601f82011682018060405250810190610dfb919061566d565b610e0457600080fd5b610e0f848484614324565b50505050565b80600060018281548110610e2c57610e2b6150d4565b5b90600052602060002090600a020190506000600b811115610e5057610e4f614c1b565b5b8160040160009054906101000a900460ff16600b811115610e7457610e73614c1b565b5b14610eb4576040517f08c379a0000000000000000000000000000000000000000000000000000000008152600401610eab906156e6565b60405180910390fd5b82600060018281548110610ecb57610eca6150d4565b5b90600052602060002090600a020190506000610ee561431c565b90508160050160009054906101000a900473ffffffffffffffffffffffffffffffffffffffff1673ffffffffffffffffffffffffffffffffffffffff168173ffffffffffffffffffffffffffffffffffffffff1614610f79576040517f08c379a0000000000000000000000000000000000000000000000000000000008152600401610f7090615752565b60405180910390fd5b600060018781548110610f8f57610f8e6150d4565b5b90600052602060002090600a0201905060028160040160006101000a81548160ff0219169083600b811115610fc757610fc6614c1b565b5b0217905550600560009054906101000a900473ffffffffffffffffffffffffffffffffffffffff1673ffffffffffffffffffffffffffffffffffffffff1663a9059cbb8260040160019054906101000a900473ffffffffffffffffffffffffffffffffffffffff1683600101546040518363ffffffff1660e01b8152600401611051929190615772565b6020604051808303816000875af1158015611070573d6000803e3d6000fd5b505050506040513d601f19601f82011682018060405250810190611094919061566d565b61109d57600080fd5b8060060160009054906101000a900473ffffffffffffffffffffffffffffffffffffffff1673ffffffffffffffffffffffffffffffffffffffff168160050160009054906101000a900473ffffffffffffffffffffffffffffffffffffffff1673ffffffffffffffffffffffffffffffffffffffff168260040160019054906101000a900473ffffffffffffffffffffffffffffffffffffffff1673ffffffffffffffffffffffffffffffffffffffff167fc9376ddc1a096f70aba8bd8481c6d2b391b9318f2fb1da8a9994d910fd7b814284600001548560010154866002015487600301548860040160009054906101000a900460ff16896007018a6008018b6009016040516111b59897969594939291906154ff565b60405180910390a450505050505050565b60606000600260008473ffffffffffffffffffffffffffffffffffffffff1673ffffffffffffffffffffffffffffffffffffffff1681526020019081526020016000205467ffffffffffffffff81111561122357611222614a46565b5b60405190808252806020026020018201604052801561125c57816020015b6112496147ae565b8152602001906001900390816112415790505b5090506000805b600180549050811015611672578473ffffffffffffffffffffffffffffffffffffffff166001828154811061129b5761129a6150d4565b5b90600052602060002090600a020160040160019054906101000a900473ffffffffffffffffffffffffffffffffffffffff1673ffffffffffffffffffffffffffffffffffffffff16141561165f57600181815481106112fd576112fc6150d4565b5b90600052602060002090600a020160405180610160016040529081600082015481526020016001820154815260200160028201548152602001600382015481526020016004820160009054906101000a900460ff16600b81111561136457611363614c1b565b5b600b81111561137657611375614c1b565b5b81526020016004820160019054906101000a900473ffffffffffffffffffffffffffffffffffffffff1673ffffffffffffffffffffffffffffffffffffffff1673ffffffffffffffffffffffffffffffffffffffff1681526020016005820160009054906101000a900473ffffffffffffffffffffffffffffffffffffffff1673ffffffffffffffffffffffffffffffffffffffff1673ffffffffffffffffffffffffffffffffffffffff1681526020016006820160009054906101000a900473ffffffffffffffffffffffffffffffffffffffff1673ffffffffffffffffffffffffffffffffffffffff1673ffffffffffffffffffffffffffffffffffffffff16815260200160078201805461148c90615438565b80601f01602080910402602001604051908101604052809291908181526020018280546114b890615438565b80156115055780601f106114da57610100808354040283529160200191611505565b820191906000526020600020905b8154815290600101906020018083116114e857829003601f168201915b5050505050815260200160088201805461151e90615438565b80601f016020809104026020016040519081016040528092919081815260200182805461154a90615438565b80156115975780601f1061156c57610100808354040283529160200191611597565b820191906000526020600020905b81548152906001019060200180831161157a57829003601f168201915b505050505081526020016009820180546115b090615438565b80601f01602080910402602001604051908101604052809291908181526020018280546115dc90615438565b80156116295780601f106115fe57610100808354040283529160200191611629565b820191906000526020600020905b81548152906001019060200180831161160c57829003601f168201915b505050505081525050838381518110611645576116446150d4565b5b6020026020010181905250818061165b90615132565b9250505b808061166a90615132565b915050611263565b508192505050919050565b6000806000905060005b600180549050811015611791576009600b8111156116a8576116a7614c1b565b5b600182815481106116bc576116bb6150d4565b5b90600052602060002090600a020160040160009054906101000a900460ff16600b8111156116ed576116ec614c1b565b5b14801561176a57508373ffffffffffffffffffffffffffffffffffffffff16600182815481106117205761171f6150d4565b5b90600052602060002090600a020160040160019054906101000a900473ffffffffffffffffffffffffffffffffffffffff1673ffffffffffffffffffffffffffffffffffffffff16145b1561177e57818061177a90615132565b9250505b808061178990615132565b915050611687565b5080915050919050565b806000600182815481106117b2576117b16150d4565b5b90600052602060002090600a020190506000600b8111156117d6576117d5614c1b565b5b8160040160009054906101000a900460ff16600b8111156117fa576117f9614c1b565b5b1461183a576040517f08c379a0000000000000000000000000000000000000000000000000000000008152600401611831906157e7565b60405180910390fd5b82600060018281548110611851576118506150d4565b5b90600052602060002090600a02019050600061186b61431c565b90508160040160019054906101000a900473ffffffffffffffffffffffffffffffffffffffff1673ffffffffffffffffffffffffffffffffffffffff168173ffffffffffffffffffffffffffffffffffffffff16146118ff576040517f08c379a00000000000000000000000000000000000000000000000000000000081526004016118f690615853565b60405180910390fd5b600060018781548110611915576119146150d4565b5b90600052602060002090600a02019050600b8160040160006101000a81548160ff0219169083600b81111561194d5761194c614c1b565b5b0217905550600560009054906101000a900473ffffffffffffffffffffffffffffffffffffffff1673ffffffffffffffffffffffffffffffffffffffff1663a9059cbb8260040160019054906101000a900473ffffffffffffffffffffffffffffffffffffffff1683600101546040518363ffffffff1660e01b81526004016119d7929190615772565b6020604051808303816000875af11580156119f6573d6000803e3d6000fd5b505050506040513d601f19601f82011682018060405250810190611a1a919061566d565b611a2357600080fd5b8060060160009054906101000a900473ffffffffffffffffffffffffffffffffffffffff1673ffffffffffffffffffffffffffffffffffffffff168160050160009054906101000a900473ffffffffffffffffffffffffffffffffffffffff1673ffffffffffffffffffffffffffffffffffffffff168260040160019054906101000a900473ffffffffffffffffffffffffffffffffffffffff1673ffffffffffffffffffffffffffffffffffffffff167fc9376ddc1a096f70aba8bd8481c6d2b391b9318f2fb1da8a9994d910fd7b814284600001548560010154866002015487600301548860040160009054906101000a900460ff16896007018a6008018b600901604051611b3b9897969594939291906154ff565b60405180910390a450505050505050565b60606000805b600180549050811015611be0576001600b811115611b7357611b72614c1b565b5b60018281548110611b8757611b866150d4565b5b90600052602060002090600a020160040160009054906101000a900460ff16600b811115611bb857611bb7614c1b565b5b1415611bcd578180611bc990615132565b9250505b8080611bd890615132565b915050611b52565b5060008167ffffffffffffffff811115611bfd57611bfc614a46565b5b604051908082528060200260200182016040528015611c3657816020015b611c236147ae565b815260200190600190039081611c1b5790505b5090506000805b600180549050811015612032576001600b811115611c5e57611c5d614c1b565b5b60018281548110611c7257611c716150d4565b5b90600052602060002090600a020160040160009054906101000a900460ff16600b811115611ca357611ca2614c1b565b5b141561201f5760018181548110611cbd57611cbc6150d4565b5b90600052602060002090600a020160405180610160016040529081600082015481526020016001820154815260200160028201548152602001600382015481526020016004820160009054906101000a900460ff16600b811115611d2457611d23614c1b565b5b600b811115611d3657611d35614c1b565b5b81526020016004820160019054906101000a900473ffffffffffffffffffffffffffffffffffffffff1673ffffffffffffffffffffffffffffffffffffffff1673ffffffffffffffffffffffffffffffffffffffff1681526020016005820160009054906101000a900473ffffffffffffffffffffffffffffffffffffffff1673ffffffffffffffffffffffffffffffffffffffff1673ffffffffffffffffffffffffffffffffffffffff1681526020016006820160009054906101000a900473ffffffffffffffffffffffffffffffffffffffff1673ffffffffffffffffffffffffffffffffffffffff1673ffffffffffffffffffffffffffffffffffffffff168152602001600782018054611e4c90615438565b80601f0160208091040260200160405190810160405280929190818152602001828054611e7890615438565b8015611ec55780601f10611e9a57610100808354040283529160200191611ec5565b820191906000526020600020905b815481529060010190602001808311611ea857829003601f168201915b50505050508152602001600882018054611ede90615438565b80601f0160208091040260200160405190810160405280929190818152602001828054611f0a90615438565b8015611f575780601f10611f2c57610100808354040283529160200191611f57565b820191906000526020600020905b815481529060010190602001808311611f3a57829003601f168201915b50505050508152602001600982018054611f7090615438565b80601f0160208091040260200160405190810160405280929190818152602001828054611f9c90615438565b8015611fe95780601f10611fbe57610100808354040283529160200191611fe9565b820191906000526020600020905b815481529060010190602001808311611fcc57829003601f168201915b505050505081525050838381518110612005576120046150d4565b5b6020026020010181905250818061201b90615132565b9250505b808061202a90615132565b915050611c3d565b5081935050505090565b61204461431c565b73ffffffffffffffffffffffffffffffffffffffff16612062612a32565b73ffffffffffffffffffffffffffffffffffffffff16146120b8576040517f08c379a00000000000000000000000000000000000000000000000000000000081526004016120af906158bf565b60405180910390fd5b6120c260006146ea565b565b60606000600460008473ffffffffffffffffffffffffffffffffffffffff1673ffffffffffffffffffffffffffffffffffffffff1681526020019081526020016000205467ffffffffffffffff81111561212157612120614a46565b5b60405190808252806020026020018201604052801561215a57816020015b6121476147ae565b81526020019060019003908161213f5790505b5090506000805b600180549050811015612570578473ffffffffffffffffffffffffffffffffffffffff1660018281548110612199576121986150d4565b5b90600052602060002090600a020160060160009054906101000a900473ffffffffffffffffffffffffffffffffffffffff1673ffffffffffffffffffffffffffffffffffffffff16141561255d57600181815481106121fb576121fa6150d4565b5b90600052602060002090600a020160405180610160016040529081600082015481526020016001820154815260200160028201548152602001600382015481526020016004820160009054906101000a900460ff16600b81111561226257612261614c1b565b5b600b81111561227457612273614c1b565b5b81526020016004820160019054906101000a900473ffffffffffffffffffffffffffffffffffffffff1673ffffffffffffffffffffffffffffffffffffffff1673ffffffffffffffffffffffffffffffffffffffff1681526020016005820160009054906101000a900473ffffffffffffffffffffffffffffffffffffffff1673ffffffffffffffffffffffffffffffffffffffff1673ffffffffffffffffffffffffffffffffffffffff1681526020016006820160009054906101000a900473ffffffffffffffffffffffffffffffffffffffff1673ffffffffffffffffffffffffffffffffffffffff1673ffffffffffffffffffffffffffffffffffffffff16815260200160078201805461238a90615438565b80601f01602080910402602001604051908101604052809291908181526020018280546123b690615438565b80156124035780601f106123d857610100808354040283529160200191612403565b820191906000526020600020905b8154815290600101906020018083116123e657829003601f168201915b5050505050815260200160088201805461241c90615438565b80601f016020809104026020016040519081016040528092919081815260200182805461244890615438565b80156124955780601f1061246a57610100808354040283529160200191612495565b820191906000526020600020905b81548152906001019060200180831161247857829003601f168201915b505050505081526020016009820180546124ae90615438565b80601f01602080910402602001604051908101604052809291908181526020018280546124da90615438565b80156125275780601f106124fc57610100808354040283529160200191612527565b820191906000526020600020905b81548152906001019060200180831161250a57829003601f168201915b505050505081525050838381518110612543576125426150d4565b5b6020026020010181905250818061255990615132565b9250505b808061256890615132565b915050612161565b508192505050919050565b60606000600360008473ffffffffffffffffffffffffffffffffffffffff1673ffffffffffffffffffffffffffffffffffffffff1681526020019081526020016000205467ffffffffffffffff8111156125d8576125d7614a46565b5b60405190808252806020026020018201604052801561261157816020015b6125fe6147ae565b8152602001906001900390816125f65790505b5090506000805b600180549050811015612a27578473ffffffffffffffffffffffffffffffffffffffff16600182815481106126505761264f6150d4565b5b90600052602060002090600a020160050160009054906101000a900473ffffffffffffffffffffffffffffffffffffffff1673ffffffffffffffffffffffffffffffffffffffff161415612a1457600181815481106126b2576126b16150d4565b5b90600052602060002090600a020160405180610160016040529081600082015481526020016001820154815260200160028201548152602001600382015481526020016004820160009054906101000a900460ff16600b81111561271957612718614c1b565b5b600b81111561272b5761272a614c1b565b5b81526020016004820160019054906101000a900473ffffffffffffffffffffffffffffffffffffffff1673ffffffffffffffffffffffffffffffffffffffff1673ffffffffffffffffffffffffffffffffffffffff1681526020016005820160009054906101000a900473ffffffffffffffffffffffffffffffffffffffff1673ffffffffffffffffffffffffffffffffffffffff1673ffffffffffffffffffffffffffffffffffffffff1681526020016006820160009054906101000a900473ffffffffffffffffffffffffffffffffffffffff1673ffffffffffffffffffffffffffffffffffffffff1673ffffffffffffffffffffffffffffffffffffffff16815260200160078201805461284190615438565b80601f016020809104026020016040519081016040528092919081815260200182805461286d90615438565b80156128ba5780601f1061288f576101008083540402835291602001916128ba565b820191906000526020600020905b81548152906001019060200180831161289d57829003601f168201915b505050505081526020016008820180546128d390615438565b80601f01602080910402602001604051908101604052809291908181526020018280546128ff90615438565b801561294c5780601f106129215761010080835404028352916020019161294c565b820191906000526020600020905b81548152906001019060200180831161292f57829003601f168201915b5050505050815260200160098201805461296590615438565b80601f016020809104026020016040519081016040528092919081815260200182805461299190615438565b80156129de5780601f106129b3576101008083540402835291602001916129de565b820191906000526020600020905b8154815290600101906020018083116129c157829003601f168201915b5050505050815250508383815181106129fa576129f96150d4565b5b60200260200101819052508180612a1090615132565b9250505b8080612a1f90615132565b915050612618565b508192505050919050565b60008060009054906101000a900473ffffffffffffffffffffffffffffffffffffffff16905090565b60018181548110612a6b57600080fd5b90600052602060002090600a02016000915090508060000154908060010154908060020154908060030154908060040160009054906101000a900460ff16908060040160019054906101000a900473ffffffffffffffffffffffffffffffffffffffff16908060050160009054906101000a900473ffffffffffffffffffffffffffffffffffffffff16908060060160009054906101000a900473ffffffffffffffffffffffffffffffffffffffff1690806007018054612b2b90615438565b80601f0160208091040260200160405190810160405280929190818152602001828054612b5790615438565b8015612ba45780601f10612b7957610100808354040283529160200191612ba4565b820191906000526020600020905b815481529060010190602001808311612b8757829003601f168201915b505050505090806008018054612bb990615438565b80601f0160208091040260200160405190810160405280929190818152602001828054612be590615438565b8015612c325780601f10612c0757610100808354040283529160200191612c32565b820191906000526020600020905b815481529060010190602001808311612c1557829003601f168201915b505050505090806009018054612c4790615438565b80601f0160208091040260200160405190810160405280929190818152602001828054612c7390615438565b8015612cc05780601f10612c9557610100808354040283529160200191612cc0565b820191906000526020600020905b815481529060010190602001808311612ca357829003601f168201915b505050505090508b565b846001805490508110612d12576040517f08c379a0000000000000000000000000000000000000000000000000000000008152600401612d09906151c7565b60405180910390fd5b600060018281548110612d2857612d276150d4565b5b90600052602060002090600a020190506009600b811115612d4c57612d4b614c1b565b5b8160040160009054906101000a900460ff16600b811115612d7057612d6f614c1b565b5b141580612db25750600b80811115612d8b57612d8a614c1b565b5b8160040160009054906101000a900460ff16600b811115612daf57612dae614c1b565b5b14155b80612df35750600a600b811115612dcc57612dcb614c1b565b5b8160040160009054906101000a900460ff16600b811115612df057612def614c1b565b5b14155b612e32576040517f08c379a0000000000000000000000000000000000000000000000000000000008152600401612e2990615233565b60405180910390fd5b86600060018281548110612e4957612e486150d4565b5b90600052602060002090600a020190506000600b811115612e6d57612e6c614c1b565b5b8160040160009054906101000a900460ff16600b811115612e9157612e90614c1b565b5b14612ed1576040517f08c379a0000000000000000000000000000000000000000000000000000000008152600401612ec8906156e6565b60405180910390fd5b88600060018281548110612ee857612ee76150d4565b5b90600052602060002090600a020190506000612f0261431c565b90508160050160009054906101000a900473ffffffffffffffffffffffffffffffffffffffff1673ffffffffffffffffffffffffffffffffffffffff168173ffffffffffffffffffffffffffffffffffffffff1614612f96576040517f08c379a0000000000000000000000000000000000000000000000000000000008152600401612f8d90615752565b60405180910390fd5b600060018d81548110612fac57612fab6150d4565b5b90600052602060002090600a0201905080600101548a1115612fcd57600080fd5b60018160040160006101000a81548160ff0219169083600b811115612ff557612ff4614c1b565b5b02179055508b81600801908051906020019061301292919061485c565b508a81600901908051906020019061302b92919061485c565b508981600201819055508881600301819055508060060160009054906101000a900473ffffffffffffffffffffffffffffffffffffffff1673ffffffffffffffffffffffffffffffffffffffff168160050160009054906101000a900473ffffffffffffffffffffffffffffffffffffffff1673ffffffffffffffffffffffffffffffffffffffff168260040160019054906101000a900473ffffffffffffffffffffffffffffffffffffffff1673ffffffffffffffffffffffffffffffffffffffff167fc9376ddc1a096f70aba8bd8481c6d2b391b9318f2fb1da8a9994d910fd7b814284600001548560010154866002015487600301548860040160009054906101000a900460ff16896007018a6008018b6009016040516131569897969594939291906154ff565b60405180910390a450505050505050505050505050565b8060018054905081106131b5576040517f08c379a00000000000000000000000000000000000000000000000000000000081526004016131ac906151c7565b60405180910390fd5b6000600182815481106131cb576131ca6150d4565b5b90600052602060002090600a020190506009600b8111156131ef576131ee614c1b565b5b8160040160009054906101000a900460ff16600b81111561321357613212614c1b565b5b1415806132555750600b8081111561322e5761322d614c1b565b5b8160040160009054906101000a900460ff16600b81111561325257613251614c1b565b5b14155b806132965750600a600b81111561326f5761326e614c1b565b5b8160040160009054906101000a900460ff16600b81111561329357613292614c1b565b5b14155b6132d5576040517f08c379a00000000000000000000000000000000000000000000000000000000081526004016132cc90615233565b60405180910390fd5b826000600182815481106132ec576132eb6150d4565b5b90600052602060002090600a020190506006600b8111156133105761330f614c1b565b5b8160040160009054906101000a900460ff16600b81111561333457613333614c1b565b5b148061337557506007600b81111561334f5761334e614c1b565b5b8160040160009054906101000a900460ff16600b81111561337357613372614c1b565b5b145b806133b557506008600b81111561338f5761338e614c1b565b5b8160040160009054906101000a900460ff16600b8111156133b3576133b2614c1b565b5b145b6133f4576040517f08c379a00000000000000000000000000000000000000000000000000000000081526004016133eb9061592b565b60405180910390fd5b8460006001828154811061340b5761340a6150d4565b5b90600052602060002090600a02019050600061342561431c565b90508160040160019054906101000a900473ffffffffffffffffffffffffffffffffffffffff1673ffffffffffffffffffffffffffffffffffffffff168173ffffffffffffffffffffffffffffffffffffffff1614806134d457508160060160009054906101000a900473ffffffffffffffffffffffffffffffffffffffff1673ffffffffffffffffffffffffffffffffffffffff168173ffffffffffffffffffffffffffffffffffffffff16145b613513576040517f08c379a000000000000000000000000000000000000000000000000000000000815260040161350a90615331565b60405180910390fd5b600060018981548110613529576135286150d4565b5b90600052602060002090600a02019050600061354361431c565b90508160040160019054906101000a900473ffffffffffffffffffffffffffffffffffffffff1673ffffffffffffffffffffffffffffffffffffffff168173ffffffffffffffffffffffffffffffffffffffff161480156135d957506006600b8111156135b3576135b2614c1b565b5b8260040160009054906101000a900460ff16600b8111156135d7576135d6614c1b565b5b145b156136105760078260040160006101000a81548160ff0219169083600b81111561360657613605614c1b565b5b0217905550613a3e565b8160060160009054906101000a900473ffffffffffffffffffffffffffffffffffffffff1673ffffffffffffffffffffffffffffffffffffffff168173ffffffffffffffffffffffffffffffffffffffff161480156136a457506006600b81111561367e5761367d614c1b565b5b8260040160009054906101000a900460ff16600b8111156136a2576136a1614c1b565b5b145b156136db5760088260040160006101000a81548160ff0219169083600b8111156136d1576136d0614c1b565b5b0217905550613a3d565b8160040160019054906101000a900473ffffffffffffffffffffffffffffffffffffffff1673ffffffffffffffffffffffffffffffffffffffff168173ffffffffffffffffffffffffffffffffffffffff1614801561376f57506008600b81111561374957613748614c1b565b5b8260040160009054906101000a900460ff16600b81111561376d5761376c614c1b565b5b145b8061380a57508160060160009054906101000a900473ffffffffffffffffffffffffffffffffffffffff1673ffffffffffffffffffffffffffffffffffffffff168173ffffffffffffffffffffffffffffffffffffffff1614801561380957506007600b8111156137e3576137e2614c1b565b5b8260040160009054906101000a900460ff16600b81111561380757613806614c1b565b5b145b5b15613a015760098260040160006101000a81548160ff0219169083600b81111561383757613836614c1b565b5b0217905550600560009054906101000a900473ffffffffffffffffffffffffffffffffffffffff1673ffffffffffffffffffffffffffffffffffffffff1663a9059cbb8360050160009054906101000a900473ffffffffffffffffffffffffffffffffffffffff16846002015485600101546138b3919061594b565b6040518363ffffffff1660e01b81526004016138d0929190615772565b6020604051808303816000875af11580156138ef573d6000803e3d6000fd5b505050506040513d601f19601f82011682018060405250810190613913919061566d565b61391c57600080fd5b600560009054906101000a900473ffffffffffffffffffffffffffffffffffffffff1673ffffffffffffffffffffffffffffffffffffffff1663a9059cbb8360060160009054906101000a900473ffffffffffffffffffffffffffffffffffffffff1684600301548560020154613993919061597f565b6040518363ffffffff1660e01b81526004016139b0929190615772565b6020604051808303816000875af11580156139cf573d6000803e3d6000fd5b505050506040513d601f19601f820116820180604052508101906139f3919061566d565b6139fc57600080fd5b613a3c565b6040517f08c379a0000000000000000000000000000000000000000000000000000000008152600401613a3390615a6d565b60405180910390fd5b5b5b8160060160009054906101000a900473ffffffffffffffffffffffffffffffffffffffff1673ffffffffffffffffffffffffffffffffffffffff168260050160009054906101000a900473ffffffffffffffffffffffffffffffffffffffff1673ffffffffffffffffffffffffffffffffffffffff168360040160019054906101000a900473ffffffffffffffffffffffffffffffffffffffff1673ffffffffffffffffffffffffffffffffffffffff167fc9376ddc1a096f70aba8bd8481c6d2b391b9318f2fb1da8a9994d910fd7b814285600001548660010154876002015488600301548960040160009054906101000a900460ff168a6007018b6008018c600901604051613b569897969594939291906154ff565b60405180910390a450505050505050505050565b613b7261431c565b73ffffffffffffffffffffffffffffffffffffffff16613b90612a32565b73ffffffffffffffffffffffffffffffffffffffff1614613be6576040517f08c379a0000000000000000000000000000000000000000000000000000000008152600401613bdd906158bf565b60405180910390fd5b80600560006101000a81548173ffffffffffffffffffffffffffffffffffffffff021916908373ffffffffffffffffffffffffffffffffffffffff16021790555050565b806001805490508110613c72576040517f08c379a0000000000000000000000000000000000000000000000000000000008152600401613c69906151c7565b60405180910390fd5b600060018281548110613c8857613c876150d4565b5b90600052602060002090600a020190506009600b811115613cac57613cab614c1b565b5b8160040160009054906101000a900460ff16600b811115613cd057613ccf614c1b565b5b141580613d125750600b80811115613ceb57613cea614c1b565b5b8160040160009054906101000a900460ff16600b811115613d0f57613d0e614c1b565b5b14155b80613d535750600a600b811115613d2c57613d2b614c1b565b5b8160040160009054906101000a900460ff16600b811115613d5057613d4f614c1b565b5b14155b613d92576040517f08c379a0000000000000000000000000000000000000000000000000000000008152600401613d8990615233565b60405180910390fd5b82600060018281548110613da957613da86150d4565b5b90600052602060002090600a020190506001600b811115613dcd57613dcc614c1b565b5b8160040160009054906101000a900460ff16600b811115613df157613df0614c1b565b5b14613e31576040517f08c379a0000000000000000000000000000000000000000000000000000000008152600401613e2890615aff565b60405180910390fd5b84600060018281548110613e4857613e476150d4565b5b90600052602060002090600a020190506000613e6261431c565b90508160040160019054906101000a900473ffffffffffffffffffffffffffffffffffffffff1673ffffffffffffffffffffffffffffffffffffffff168173ffffffffffffffffffffffffffffffffffffffff16141580613f1357508160050160009054906101000a900473ffffffffffffffffffffffffffffffffffffffff1673ffffffffffffffffffffffffffffffffffffffff168173ffffffffffffffffffffffffffffffffffffffff1614155b613f52576040517f08c379a0000000000000000000000000000000000000000000000000000000008152600401613f4990615b6b565b60405180910390fd5b600060018981548110613f6857613f676150d4565b5b90600052602060002090600a020190506000613f8261431c565b9050600560009054906101000a900473ffffffffffffffffffffffffffffffffffffffff1673ffffffffffffffffffffffffffffffffffffffff166323b872dd823085600301546040518463ffffffff1660e01b8152600401613fe7939291906155fe565b6020604051808303816000875af1158015614006573d6000803e3d6000fd5b505050506040513d601f19601f8201168201806040525081019061402a919061566d565b61403357600080fd5b808260060160006101000a81548173ffffffffffffffffffffffffffffffffffffffff021916908373ffffffffffffffffffffffffffffffffffffffff16021790555060038260040160006101000a81548160ff0219169083600b81111561409e5761409d614c1b565b5b0217905550600460008273ffffffffffffffffffffffffffffffffffffffff1673ffffffffffffffffffffffffffffffffffffffff16815260200190815260200160002060008154809291906140f390615132565b91905055508160060160009054906101000a900473ffffffffffffffffffffffffffffffffffffffff1673ffffffffffffffffffffffffffffffffffffffff168260050160009054906101000a900473ffffffffffffffffffffffffffffffffffffffff1673ffffffffffffffffffffffffffffffffffffffff168360040160019054906101000a900473ffffffffffffffffffffffffffffffffffffffff1673ffffffffffffffffffffffffffffffffffffffff167fc9376ddc1a096f70aba8bd8481c6d2b391b9318f2fb1da8a9994d910fd7b814285600001548660010154876002015488600301548960040160009054906101000a900460ff168a6007018b6008018c6009016040516142109897969594939291906154ff565b60405180910390a450505050505050505050565b61422c61431c565b73ffffffffffffffffffffffffffffffffffffffff1661424a612a32565b73ffffffffffffffffffffffffffffffffffffffff16146142a0576040517f08c379a0000000000000000000000000000000000000000000000000000000008152600401614297906158bf565b60405180910390fd5b600073ffffffffffffffffffffffffffffffffffffffff168173ffffffffffffffffffffffffffffffffffffffff161415614310576040517f08c379a000000000000000000000000000000000000000000000000000000000815260040161430790615bfd565b60405180910390fd5b614319816146ea565b50565b600033905090565b600061432e61431c565b905060006001805490509050600160405180610160016040528083815260200185815260200160008152602001600081526020016000600b81111561437657614375614c1b565b5b81526020018473ffffffffffffffffffffffffffffffffffffffff1681526020018773ffffffffffffffffffffffffffffffffffffffff168152602001600073ffffffffffffffffffffffffffffffffffffffff1681526020018681526020016040518060200160405280600081525081526020016040518060200160405280600081525081525090806001815401808255809150506001900390600052602060002090600a02016000909190919091506000820151816000015560208201518160010155604082015181600201556060820151816003015560808201518160040160006101000a81548160ff0219169083600b81111561447a57614479614c1b565b5b021790555060a08201518160040160016101000a81548173ffffffffffffffffffffffffffffffffffffffff021916908373ffffffffffffffffffffffffffffffffffffffff16021790555060c08201518160050160006101000a81548173ffffffffffffffffffffffffffffffffffffffff021916908373ffffffffffffffffffffffffffffffffffffffff16021790555060e08201518160060160006101000a81548173ffffffffffffffffffffffffffffffffffffffff021916908373ffffffffffffffffffffffffffffffffffffffff16021790555061010082015181600701908051906020019061457192919061485c565b5061012082015181600801908051906020019061458f92919061485c565b506101408201518160090190805190602001906145ad92919061485c565b505050600260008373ffffffffffffffffffffffffffffffffffffffff1673ffffffffffffffffffffffffffffffffffffffff168152602001908152602001600020600081548092919061460090615132565b9190505550600360008673ffffffffffffffffffffffffffffffffffffffff1673ffffffffffffffffffffffffffffffffffffffff168152602001908152602001600020600081548092919061465590615132565b9190505550600073ffffffffffffffffffffffffffffffffffffffff168573ffffffffffffffffffffffffffffffffffffffff168373ffffffffffffffffffffffffffffffffffffffff167fc9376ddc1a096f70aba8bd8481c6d2b391b9318f2fb1da8a9994d910fd7b8142848760008060008c6040516146db96959493929190615c88565b60405180910390a45050505050565b60008060009054906101000a900473ffffffffffffffffffffffffffffffffffffffff169050816000806101000a81548173ffffffffffffffffffffffffffffffffffffffff021916908373ffffffffffffffffffffffffffffffffffffffff1602179055508173ffffffffffffffffffffffffffffffffffffffff168173ffffffffffffffffffffffffffffffffffffffff167f8be0079c531659141344cd1fd0a4f28419497f9722a3daafe3b4186f6b6457e060405160405180910390a35050565b604051806101600160405280600081526020016000815260200160008152602001600081526020016000600b8111156147ea576147e9614c1b565b5b8152602001600073ffffffffffffffffffffffffffffffffffffffff168152602001600073ffffffffffffffffffffffffffffffffffffffff168152602001600073ffffffffffffffffffffffffffffffffffffffff1681526020016060815260200160608152602001606081525090565b82805461486890615438565b90600052602060002090601f01602090048101928261488a57600085556148d1565b82601f106148a357805160ff19168380011785556148d1565b828001600101855582156148d1579182015b828111156148d05782518255916020019190600101906148b5565b5b5090506148de91906148e2565b5090565b5b808211156148fb5760008160009055506001016148e3565b5090565b6000604051905090565b600080fd5b600080fd5b600073ffffffffffffffffffffffffffffffffffffffff82169050919050565b600061493e82614913565b9050919050565b61494e81614933565b811461495957600080fd5b50565b60008135905061496b81614945565b92915050565b60006020828403121561498757614986614909565b5b60006149958482850161495c565b91505092915050565b6000819050919050565b6149b18161499e565b82525050565b60006020820190506149cc60008301846149a8565b92915050565b6149db8161499e565b81146149e657600080fd5b50565b6000813590506149f8816149d2565b92915050565b600060208284031215614a1457614a13614909565b5b6000614a22848285016149e9565b91505092915050565b600080fd5b600080fd5b6000601f19601f8301169050919050565b7f4e487b7100000000000000000000000000000000000000000000000000000000600052604160045260246000fd5b614a7e82614a35565b810181811067ffffffffffffffff82111715614a9d57614a9c614a46565b5b80604052505050565b6000614ab06148ff565b9050614abc8282614a75565b919050565b600067ffffffffffffffff821115614adc57614adb614a46565b5b614ae582614a35565b9050602081019050919050565b82818337600083830152505050565b6000614b14614b0f84614ac1565b614aa6565b905082815260208101848484011115614b3057614b2f614a30565b5b614b3b848285614af2565b509392505050565b600082601f830112614b5857614b57614a2b565b5b8135614b68848260208601614b01565b91505092915050565b600080600060608486031215614b8a57614b89614909565b5b6000614b988682870161495c565b935050602084013567ffffffffffffffff811115614bb957614bb861490e565b5b614bc586828701614b43565b9250506040614bd6868287016149e9565b9150509250925092565b600081519050919050565b600082825260208201905092915050565b6000819050602082019050919050565b614c158161499e565b82525050565b7f4e487b7100000000000000000000000000000000000000000000000000000000600052602160045260246000fd5b600c8110614c5b57614c5a614c1b565b5b50565b6000819050614c6c82614c4a565b919050565b6000614c7c82614c5e565b9050919050565b614c8c81614c71565b82525050565b614c9b81614933565b82525050565b600081519050919050565b600082825260208201905092915050565b60005b83811015614cdb578082015181840152602081019050614cc0565b83811115614cea576000848401525b50505050565b6000614cfb82614ca1565b614d058185614cac565b9350614d15818560208601614cbd565b614d1e81614a35565b840191505092915050565b600061016083016000830151614d426000860182614c0c565b506020830151614d556020860182614c0c565b506040830151614d686040860182614c0c565b506060830151614d7b6060860182614c0c565b506080830151614d8e6080860182614c83565b5060a0830151614da160a0860182614c92565b5060c0830151614db460c0860182614c92565b5060e0830151614dc760e0860182614c92565b50610100830151848203610100860152614de18282614cf0565b915050610120830151848203610120860152614dfd8282614cf0565b915050610140830151848203610140860152614e198282614cf0565b9150508091505092915050565b6000614e328383614d29565b905092915050565b6000602082019050919050565b6000614e5282614be0565b614e5c8185614beb565b935083602082028501614e6e85614bfc565b8060005b85811015614eaa5784840389528151614e8b8582614e26565b9450614e9683614e3a565b925060208a01995050600181019050614e72565b50829750879550505050505092915050565b60006020820190508181036000830152614ed68184614e47565b905092915050565b614ee781614933565b82525050565b6000602082019050614f026000830184614ede565b92915050565b614f1181614c71565b82525050565b600082825260208201905092915050565b6000614f3382614ca1565b614f3d8185614f17565b9350614f4d818560208601614cbd565b614f5681614a35565b840191505092915050565b600061016082019050614f77600083018e6149a8565b614f84602083018d6149a8565b614f91604083018c6149a8565b614f9e606083018b6149a8565b614fab608083018a614f08565b614fb860a0830189614ede565b614fc560c0830188614ede565b614fd260e0830187614ede565b818103610100830152614fe58186614f28565b9050818103610120830152614ffa8185614f28565b905081810361014083015261500f8184614f28565b90509c9b505050505050505050505050565b600080600080600060a0868803121561503d5761503c614909565b5b600061504b888289016149e9565b955050602086013567ffffffffffffffff81111561506c5761506b61490e565b5b61507888828901614b43565b945050604086013567ffffffffffffffff8111156150995761509861490e565b5b6150a588828901614b43565b93505060606150b6888289016149e9565b92505060806150c7888289016149e9565b9150509295509295909350565b7f4e487b7100000000000000000000000000000000000000000000000000000000600052603260045260246000fd5b7f4e487b7100000000000000000000000000000000000000000000000000000000600052601160045260246000fd5b600061513d8261499e565b91507fffffffffffffffffffffffffffffffffffffffffffffffffffffffffffffffff8214156151705761516f615103565b5b600182019050919050565b7f496e76616c6964206f7264657220696400000000000000000000000000000000600082015250565b60006151b1601083614f17565b91506151bc8261517b565b602082019050919050565b600060208201905081810360008301526151e0816151a4565b9050919050565b7f4f7264657220697320696e616374697665000000000000000000000000000000600082015250565b600061521d601183614f17565b9150615228826151e7565b602082019050919050565b6000602082019050818103600083015261524c81615210565b9050919050565b7f4f72646572206973206973206e6f7420696e207472616e7366657261626c6500600082015250565b6000615289601f83614f17565b915061529482615253565b602082019050919050565b600060208201905081810360008301526152b88161527c565b9050919050565b7f5468652073656e646572206973206e656974686572207468652073656c6c657260008201527f206e6f722064656c697665727920736572766963650000000000000000000000602082015250565b600061531b603583614f17565b9150615326826152bf565b604082019050919050565b6000602082019050818103600083015261534a8161530e565b9050919050565b7f496c6c6567616c206f7065726174696f6e2c2063616e6e6f7420736574206f7260008201527f64657220696e207472616e73697420747769636520776974682074686520736160208201527f6d65206163636f756e7400000000000000000000000000000000000000000000604082015250565b60006153d3604a83614f17565b91506153de82615351565b606082019050919050565b60006020820190508181036000830152615402816153c6565b9050919050565b7f4e487b7100000000000000000000000000000000000000000000000000000000600052602260045260246000fd5b6000600282049050600182168061545057607f821691505b6020821081141561546457615463615409565b5b50919050565b60008190508160005260206000209050919050565b6000815461548c81615438565b6154968186614f17565b945060018216600081146154b157600181146154c3576154f6565b60ff19831686526020860193506154f6565b6154cc8561546a565b60005b838110156154ee578154818901526001820191506020810190506154cf565b808801955050505b50505092915050565b600061010082019050615515600083018b6149a8565b615522602083018a6149a8565b61552f60408301896149a8565b61553c60608301886149a8565b6155496080830187614f08565b81810360a083015261555b818661547f565b905081810360c083015261556f818561547f565b905081810360e0830152615583818461547f565b90509998505050505050505050565b7f4e756c6c2061646472657373206973206e6f742076616c696421000000000000600082015250565b60006155c8601a83614f17565b91506155d382615592565b602082019050919050565b600060208201905081810360008301526155f7816155bb565b9050919050565b60006060820190506156136000830186614ede565b6156206020830185614ede565b61562d60408301846149a8565b949350505050565b60008115159050919050565b61564a81615635565b811461565557600080fd5b50565b60008151905061566781615641565b92915050565b60006020828403121561568357615682614909565b5b600061569184828501615658565b91505092915050565b7f4f7264657220697320616c726561647920616363657074656400000000000000600082015250565b60006156d0601983614f17565b91506156db8261569a565b602082019050919050565b600060208201905081810360008301526156ff816156c3565b9050919050565b7f5468652073656e646572206973206e6f74207468652073656c6c657200000000600082015250565b600061573c601c83614f17565b915061574782615706565b602082019050919050565b6000602082019050818103600083015261576b8161572f565b9050919050565b60006040820190506157876000830185614ede565b61579460208301846149a8565b9392505050565b7f4f7264657220697320616c7265616479206265696e6720707265706172656400600082015250565b60006157d1601f83614f17565b91506157dc8261579b565b602082019050919050565b60006020820190508181036000830152615800816157c4565b9050919050565b7f5468652073656e646572206973206e6f742074686520636c69656e7400000000600082015250565b600061583d601c83614f17565b915061584882615807565b602082019050919050565b6000602082019050818103600083015261586c81615830565b9050919050565b7f4f776e61626c653a2063616c6c6572206973206e6f7420746865206f776e6572600082015250565b60006158a9602083614f17565b91506158b482615873565b602082019050919050565b600060208201905081810360008301526158d88161589c565b9050919050565b7f4f72646572206973206973206e6f7420696e20636f6d706c657461626c650000600082015250565b6000615915601e83614f17565b9150615920826158df565b602082019050919050565b6000602082019050818103600083015261594481615908565b9050919050565b60006159568261499e565b91506159618361499e565b92508282101561597457615973615103565b5b828203905092915050565b600061598a8261499e565b91506159958361499e565b9250827fffffffffffffffffffffffffffffffffffffffffffffffffffffffffffffffff038211156159ca576159c9615103565b5b828201905092915050565b7f496c6c6567616c206f7065726174696f6e2c2063616e6e6f7420636f6d706c6560008201527f7465206f726465722074776963652077697468207468652073616d652061636360208201527f6f756e7400000000000000000000000000000000000000000000000000000000604082015250565b6000615a57604483614f17565b9150615a62826159d5565b606082019050919050565b60006020820190508181036000830152615a8681615a4a565b9050919050565b7f4f72646572206973207374696c6c2070656e64696e67206f7220696e2070726f60008201527f6772657373000000000000000000000000000000000000000000000000000000602082015250565b6000615ae9602583614f17565b9150615af482615a8d565b604082019050919050565b60006020820190508181036000830152615b1881615adc565b9050919050565b7f5468652073656e64657220697320636c69656e74206f722073656c6c65720000600082015250565b6000615b55601e83614f17565b9150615b6082615b1f565b602082019050919050565b60006020820190508181036000830152615b8481615b48565b9050919050565b7f4f776e61626c653a206e6577206f776e657220697320746865207a65726f206160008201527f6464726573730000000000000000000000000000000000000000000000000000602082015250565b6000615be7602683614f17565b9150615bf282615b8b565b604082019050919050565b60006020820190508181036000830152615c1681615bda565b9050919050565b6000819050919050565b6000819050919050565b6000615c4c615c47615c4284615c1d565b615c27565b61499e565b9050919050565b615c5c81615c31565b82525050565b50565b6000615c72600083614f17565b9150615c7d82615c62565b600082019050919050565b600061010082019050615c9e60008301896149a8565b615cab60208301886149a8565b615cb86040830187615c53565b615cc56060830186615c53565b615cd26080830185614f08565b81810360a0830152615ce48184614f28565b905081810360c0830152615cf781615c65565b905081810360e0830152615d0a81615c65565b905097965050505050505056fea2646970667358221220e19d758f9fc023caa777ee1ab1f3f0ac39ff2789f43bfbd43b9fea6e8669656d64736f6c634300080b0033",
  "immutableReferences": {},
  "source": "// SPDX-License-Identifier: MIT\npragma solidity ^0.8.0;\n\nimport \"./OrderHelper.sol\";\nimport \"./OrderManager.sol\";\nimport \"./OrderDispute.sol\";\n\n/**\n * @title Main contract that contains all functionality of the smart contract\n * @notice This contract combines all the possible functionality of the smart contract.\n */\ncontract TnoEats is OrderHelper, OrderManager, OrderDispute {\n\n    constructor(address _eurTnoContract) {\n        eurTnoContract = _eurTnoContract;\n    }\n\n    function changeEurTnoAddress(address _eurTnoContract) external onlyOwner {\n        eurTnoContract = _eurTnoContract;\n    }\n}",
  "sourcePath": "/home/tno-eats/contracts/TnoEats.sol",
  "compiler": {
    "name": "solc",
    "version": "0.8.11+commit.d7f03943.Emscripten.clang"
  },
  "schemaVersion": "3.4.6",
  "updatedAt": "2022-03-22T22:12:53.866Z",
  "networkType": "ethereum",
  "devdoc": {
    "kind": "dev",
    "methods": {
      "acceptOrder(uint256)": {
        "params": {
          "_orderId": "Active order id"
        }
      },
      "approveOrder(uint256,string,string,uint256,uint256)": {
        "params": {
          "_orderId": "Active order id"
        }
      },
      "cancelOrder(uint256)": {
        "params": {
          "_orderId": "Active order id"
        }
      },
      "completeOrder(uint256)": {
        "params": {
          "_orderId": "Active order id"
        }
      },
      "getOrdersByClient(address)": {
        "params": {
          "_client": "Order client address."
        },
        "returns": {
          "_0": "Order[] An array containing orders."
        }
      },
      "getOrdersByDeliveryService(address)": {
        "params": {
          "_deliveryService": "Order deliverer address."
        },
        "returns": {
          "_0": "Order[] An array containing orders."
        }
      },
      "getOrdersBySeller(address)": {
        "params": {
          "_seller": "Order seller address."
        },
        "returns": {
          "_0": "Order[] An array containing orders."
        }
      },
      "owner()": {
        "details": "Returns the address of the current owner."
      },
      "placeOrder(address,string,uint256)": {
        "params": {
          "_orderInfo": "Url to the encoded order data stored in IPFS",
          "_seller": "The address of the seller"
        }
      },
      "rejectOrder(uint256)": {
        "params": {
          "_orderId": "Pending order id"
        }
      },
      "renounceOwnership()": {
        "details": "Leaves the contract without owner. It will not be possible to call `onlyOwner` functions anymore. Can only be called by the current owner. NOTE: Renouncing ownership will leave the contract without an owner, thereby removing any functionality that is only available to the owner."
      },
      "transferOrder(uint256)": {
        "params": {
          "_orderId": "Active order id"
        }
      },
      "transferOwnership(address)": {
        "details": "Transfers ownership of the contract to a new account (`newOwner`). Can only be called by the current owner."
      }
    },
    "title": "Main contract that contains all functionality of the smart contract",
    "version": 1
  },
  "userdoc": {
    "kind": "user",
    "methods": {
      "acceptOrder(uint256)": {
        "notice": "Delivery service accepts an order.         The order needs to be approved by the seller."
      },
      "approveOrder(uint256,string,string,uint256,uint256)": {
        "notice": "A seller approves an order.         Can be called only by the seller and the order needs to be pending."
      },
      "cancelOrder(uint256)": {
        "notice": "An order is cancelled by the client.         Can be called only by the client.         The order needs to be pending and not yet accepted by the seller."
      },
      "completeOrder(uint256)": {
        "notice": "An order is delivered by the delivery service to the client.         Can be called only by the delivery service or the client.         The endpoint needs to be called by both parties to reach the consensus and move the order state to Completed."
      },
      "getOrdersByClient(address)": {
        "notice": "Gets all order ids of the client by the provided address."
      },
      "getOrdersByDeliveryService(address)": {
        "notice": "Gets all order ids of the delivery service by the provided address."
      },
      "getOrdersBySeller(address)": {
        "notice": "Gets all order ids of the seller by the provided address."
      },
      "placeOrder(address,string,uint256)": {
        "notice": "A client places an order to the smart contract."
      },
      "rejectOrder(uint256)": {
        "notice": "An order is rejected by the seller.         The order needs to be pending and not yet be accepted by the seller."
      },
      "transferOrder(uint256)": {
        "notice": "An order is passed on to the delivery service by the seller.         Can be called only by the seller or the delivery service.         The endpoint needs to be called by both parties to reach the consensus and move the order state to InTransit."
      }
    },
    "notice": "This contract combines all the possible functionality of the smart contract.",
    "version": 1
  }
}