{
  "contractName": "TnoEats",
  "abi": [
    {
      "inputs": [
        {
          "internalType": "address",
          "name": "_eurTnoContract",
          "type": "address"
        }
      ],
      "stateMutability": "nonpayable",
      "type": "constructor"
    },
    {
      "anonymous": false,
      "inputs": [
        {
          "indexed": false,
          "internalType": "uint256",
          "name": "id",
          "type": "uint256"
        },
        {
          "indexed": false,
          "internalType": "uint256",
          "name": "amount",
          "type": "uint256"
        },
        {
          "indexed": false,
          "internalType": "uint256",
          "name": "deliveryFee",
          "type": "uint256"
        },
        {
          "indexed": false,
          "internalType": "uint256",
          "name": "collateral",
          "type": "uint256"
        },
        {
          "indexed": false,
          "internalType": "enum OrderFactory.OrderStatus",
          "name": "status",
          "type": "uint8"
        },
        {
          "indexed": true,
          "internalType": "address",
          "name": "client",
          "type": "address"
        },
        {
          "indexed": true,
          "internalType": "address",
          "name": "seller",
          "type": "address"
        },
        {
          "indexed": true,
          "internalType": "address",
          "name": "deliveryService",
          "type": "address"
        },
        {
          "indexed": false,
          "internalType": "string",
          "name": "orderContentsUrl",
          "type": "string"
        },
        {
          "indexed": false,
          "internalType": "string",
          "name": "originZipCode",
          "type": "string"
        },
        {
          "indexed": false,
          "internalType": "string",
          "name": "destinationZipCode",
          "type": "string"
        }
      ],
      "name": "OrderStatusChanged",
      "type": "event"
    },
    {
      "anonymous": false,
      "inputs": [
        {
          "indexed": true,
          "internalType": "address",
          "name": "previousOwner",
          "type": "address"
        },
        {
          "indexed": true,
          "internalType": "address",
          "name": "newOwner",
          "type": "address"
        }
      ],
      "name": "OwnershipTransferred",
      "type": "event"
    },
    {
      "inputs": [
        {
          "internalType": "uint256",
          "name": "_orderId",
          "type": "uint256"
        }
      ],
      "name": "acceptOrder",
      "outputs": [],
      "stateMutability": "nonpayable",
      "type": "function"
    },
    {
      "inputs": [
        {
          "internalType": "uint256",
          "name": "_orderId",
          "type": "uint256"
        },
        {
          "internalType": "string",
          "name": "sellerZipCode",
          "type": "string"
        },
        {
          "internalType": "string",
          "name": "clientZipCode",
          "type": "string"
        },
        {
          "internalType": "uint256",
          "name": "_deliveryFee",
          "type": "uint256"
        },
        {
          "internalType": "uint256",
          "name": "_collateral",
          "type": "uint256"
        }
      ],
      "name": "approveOrder",
      "outputs": [],
      "stateMutability": "nonpayable",
      "type": "function"
    },
    {
      "inputs": [
        {
          "internalType": "uint256",
          "name": "_orderId",
          "type": "uint256"
        }
      ],
      "name": "cancelOrder",
      "outputs": [],
      "stateMutability": "nonpayable",
      "type": "function"
    },
    {
      "inputs": [
        {
          "internalType": "uint256",
          "name": "_orderId",
          "type": "uint256"
        }
      ],
      "name": "completeOrder",
      "outputs": [],
      "stateMutability": "nonpayable",
      "type": "function"
    },
    {
      "inputs": [],
      "name": "getApprovedOrders",
      "outputs": [
        {
          "components": [
            {
              "internalType": "uint256",
              "name": "id",
              "type": "uint256"
            },
            {
              "internalType": "uint256",
              "name": "amount",
              "type": "uint256"
            },
            {
              "internalType": "uint256",
              "name": "deliveryFee",
              "type": "uint256"
            },
            {
              "internalType": "uint256",
              "name": "collateral",
              "type": "uint256"
            },
            {
              "internalType": "enum OrderFactory.OrderStatus",
              "name": "status",
              "type": "uint8"
            },
            {
              "internalType": "address",
              "name": "client",
              "type": "address"
            },
            {
              "internalType": "address",
              "name": "seller",
              "type": "address"
            },
            {
              "internalType": "address",
              "name": "deliveryService",
              "type": "address"
            },
            {
              "internalType": "string",
              "name": "orderContentsUrl",
              "type": "string"
            },
            {
              "internalType": "string",
              "name": "originZipCode",
              "type": "string"
            },
            {
              "internalType": "string",
              "name": "destinationZipCode",
              "type": "string"
            }
          ],
          "internalType": "struct OrderFactory.Order[]",
          "name": "",
          "type": "tuple[]"
        }
      ],
      "stateMutability": "view",
      "type": "function",
      "constant": true
    },
    {
      "inputs": [
        {
          "internalType": "address",
          "name": "_client",
          "type": "address"
        }
      ],
      "name": "getClientOrderCount",
      "outputs": [
        {
          "internalType": "uint256",
          "name": "",
          "type": "uint256"
        },
        {
          "internalType": "uint256",
          "name": "",
          "type": "uint256"
        }
      ],
      "stateMutability": "view",
      "type": "function",
      "constant": true
    },
    {
      "inputs": [
        {
          "internalType": "address",
          "name": "_client",
          "type": "address"
        }
      ],
      "name": "getOrdersByClient",
      "outputs": [
        {
          "components": [
            {
              "internalType": "uint256",
              "name": "id",
              "type": "uint256"
            },
            {
              "internalType": "uint256",
              "name": "amount",
              "type": "uint256"
            },
            {
              "internalType": "uint256",
              "name": "deliveryFee",
              "type": "uint256"
            },
            {
              "internalType": "uint256",
              "name": "collateral",
              "type": "uint256"
            },
            {
              "internalType": "enum OrderFactory.OrderStatus",
              "name": "status",
              "type": "uint8"
            },
            {
              "internalType": "address",
              "name": "client",
              "type": "address"
            },
            {
              "internalType": "address",
              "name": "seller",
              "type": "address"
            },
            {
              "internalType": "address",
              "name": "deliveryService",
              "type": "address"
            },
            {
              "internalType": "string",
              "name": "orderContentsUrl",
              "type": "string"
            },
            {
              "internalType": "string",
              "name": "originZipCode",
              "type": "string"
            },
            {
              "internalType": "string",
              "name": "destinationZipCode",
              "type": "string"
            }
          ],
          "internalType": "struct OrderFactory.Order[]",
          "name": "",
          "type": "tuple[]"
        }
      ],
      "stateMutability": "view",
      "type": "function",
      "constant": true
    },
    {
      "inputs": [
        {
          "internalType": "address",
          "name": "_deliveryService",
          "type": "address"
        }
      ],
      "name": "getOrdersByDeliveryService",
      "outputs": [
        {
          "components": [
            {
              "internalType": "uint256",
              "name": "id",
              "type": "uint256"
            },
            {
              "internalType": "uint256",
              "name": "amount",
              "type": "uint256"
            },
            {
              "internalType": "uint256",
              "name": "deliveryFee",
              "type": "uint256"
            },
            {
              "internalType": "uint256",
              "name": "collateral",
              "type": "uint256"
            },
            {
              "internalType": "enum OrderFactory.OrderStatus",
              "name": "status",
              "type": "uint8"
            },
            {
              "internalType": "address",
              "name": "client",
              "type": "address"
            },
            {
              "internalType": "address",
              "name": "seller",
              "type": "address"
            },
            {
              "internalType": "address",
              "name": "deliveryService",
              "type": "address"
            },
            {
              "internalType": "string",
              "name": "orderContentsUrl",
              "type": "string"
            },
            {
              "internalType": "string",
              "name": "originZipCode",
              "type": "string"
            },
            {
              "internalType": "string",
              "name": "destinationZipCode",
              "type": "string"
            }
          ],
          "internalType": "struct OrderFactory.Order[]",
          "name": "",
          "type": "tuple[]"
        }
      ],
      "stateMutability": "view",
      "type": "function",
      "constant": true
    },
    {
      "inputs": [
        {
          "internalType": "address",
          "name": "_seller",
          "type": "address"
        }
      ],
      "name": "getOrdersBySeller",
      "outputs": [
        {
          "components": [
            {
              "internalType": "uint256",
              "name": "id",
              "type": "uint256"
            },
            {
              "internalType": "uint256",
              "name": "amount",
              "type": "uint256"
            },
            {
              "internalType": "uint256",
              "name": "deliveryFee",
              "type": "uint256"
            },
            {
              "internalType": "uint256",
              "name": "collateral",
              "type": "uint256"
            },
            {
              "internalType": "enum OrderFactory.OrderStatus",
              "name": "status",
              "type": "uint8"
            },
            {
              "internalType": "address",
              "name": "client",
              "type": "address"
            },
            {
              "internalType": "address",
              "name": "seller",
              "type": "address"
            },
            {
              "internalType": "address",
              "name": "deliveryService",
              "type": "address"
            },
            {
              "internalType": "string",
              "name": "orderContentsUrl",
              "type": "string"
            },
            {
              "internalType": "string",
              "name": "originZipCode",
              "type": "string"
            },
            {
              "internalType": "string",
              "name": "destinationZipCode",
              "type": "string"
            }
          ],
          "internalType": "struct OrderFactory.Order[]",
          "name": "",
          "type": "tuple[]"
        }
      ],
      "stateMutability": "view",
      "type": "function",
      "constant": true
    },
    {
      "inputs": [
        {
          "internalType": "uint256",
          "name": "",
          "type": "uint256"
        }
      ],
      "name": "orders",
      "outputs": [
        {
          "internalType": "uint256",
          "name": "id",
          "type": "uint256"
        },
        {
          "internalType": "uint256",
          "name": "amount",
          "type": "uint256"
        },
        {
          "internalType": "uint256",
          "name": "deliveryFee",
          "type": "uint256"
        },
        {
          "internalType": "uint256",
          "name": "collateral",
          "type": "uint256"
        },
        {
          "internalType": "enum OrderFactory.OrderStatus",
          "name": "status",
          "type": "uint8"
        },
        {
          "internalType": "address",
          "name": "client",
          "type": "address"
        },
        {
          "internalType": "address",
          "name": "seller",
          "type": "address"
        },
        {
          "internalType": "address",
          "name": "deliveryService",
          "type": "address"
        },
        {
          "internalType": "string",
          "name": "orderContentsUrl",
          "type": "string"
        },
        {
          "internalType": "string",
          "name": "originZipCode",
          "type": "string"
        },
        {
          "internalType": "string",
          "name": "destinationZipCode",
          "type": "string"
        }
      ],
      "stateMutability": "view",
      "type": "function",
      "constant": true
    },
    {
      "inputs": [],
      "name": "owner",
      "outputs": [
        {
          "internalType": "address",
          "name": "",
          "type": "address"
        }
      ],
      "stateMutability": "view",
      "type": "function",
      "constant": true
    },
    {
      "inputs": [
        {
          "internalType": "address",
          "name": "_seller",
          "type": "address"
        },
        {
          "internalType": "string",
          "name": "_orderInfo",
          "type": "string"
        },
        {
          "internalType": "uint256",
          "name": "_amount",
          "type": "uint256"
        }
      ],
      "name": "placeOrder",
      "outputs": [],
      "stateMutability": "nonpayable",
      "type": "function"
    },
    {
      "inputs": [
        {
          "internalType": "uint256",
          "name": "_orderId",
          "type": "uint256"
        }
      ],
      "name": "rejectOrder",
      "outputs": [],
      "stateMutability": "nonpayable",
      "type": "function"
    },
    {
      "inputs": [],
      "name": "renounceOwnership",
      "outputs": [],
      "stateMutability": "nonpayable",
      "type": "function"
    },
    {
      "inputs": [
        {
          "internalType": "uint256",
          "name": "_orderId",
          "type": "uint256"
        }
      ],
      "name": "transferOrder",
      "outputs": [],
      "stateMutability": "nonpayable",
      "type": "function"
    },
    {
      "inputs": [
        {
          "internalType": "address",
          "name": "newOwner",
          "type": "address"
        }
      ],
      "name": "transferOwnership",
      "outputs": [],
      "stateMutability": "nonpayable",
      "type": "function"
    },
    {
      "inputs": [
        {
          "internalType": "address",
          "name": "_eurTnoContract",
          "type": "address"
        }
      ],
      "name": "changeEurTnoAddress",
      "outputs": [],
      "stateMutability": "nonpayable",
      "type": "function"
    }
  ],
  "bytecode": "0x60806040523480156200001157600080fd5b5060405162005f0c38038062005f0c8339818101604052810190620000379190620001d5565b620000576200004b6200009f60201b60201c565b620000a760201b60201c565b80600560006101000a81548173ffffffffffffffffffffffffffffffffffffffff021916908373ffffffffffffffffffffffffffffffffffffffff1602179055505062000207565b600033905090565b60008060009054906101000a900473ffffffffffffffffffffffffffffffffffffffff169050816000806101000a81548173ffffffffffffffffffffffffffffffffffffffff021916908373ffffffffffffffffffffffffffffffffffffffff1602179055508173ffffffffffffffffffffffffffffffffffffffff168173ffffffffffffffffffffffffffffffffffffffff167f8be0079c531659141344cd1fd0a4f28419497f9722a3daafe3b4186f6b6457e060405160405180910390a35050565b600080fd5b600073ffffffffffffffffffffffffffffffffffffffff82169050919050565b60006200019d8262000170565b9050919050565b620001af8162000190565b8114620001bb57600080fd5b50565b600081519050620001cf81620001a4565b92915050565b600060208284031215620001ee57620001ed6200016b565b5b6000620001fe84828501620001be565b91505092915050565b615cf580620002176000396000f3fe608060405234801561001057600080fd5b506004361061010b5760003560e01c80637732497e116100a2578063ac05846511610071578063ac058465146102c1578063b6adaaff146102dd578063d1b9a935146102f9578063ef18e9ed14610315578063f2fde38b146103315761010b565b80637732497e146102095780637a202cc1146102395780638da5cb5b14610269578063a85c38ef146102875761010b565b8063467a94d6116100de578063467a94d614610195578063514fcac7146101c55780635cd030a0146101e1578063715018a6146101ff5761010b565b806317b859391461011057806321d4209c1461012c57806324f63894146101485780632741745f14610164575b600080fd5b61012a600480360381019061012591906148e3565b61034d565b005b61014660048036038101906101419190614ab4565b610b8a565b005b610162600480360381019061015d91906148e3565b610cbe565b005b61017e60048036038101906101799190614b23565b61106f565b60405161018c929190614b5f565b60405180910390f35b6101af60048036038101906101aa9190614b23565b61127e565b6040516101bc9190614e64565b60405180910390f35b6101df60048036038101906101da91906148e3565b611735565b005b6101e9611ae6565b6040516101f69190614e64565b60405180910390f35b610207611fd6565b005b610223600480360381019061021e9190614b23565b61205e565b6040516102309190614e64565b60405180910390f35b610253600480360381019061024e9190614b23565b612515565b6040516102609190614e64565b60405180910390f35b6102716129cc565b60405161027e9190614e95565b60405180910390f35b6102a1600480360381019061029c91906148e3565b6129f5565b6040516102b89b9a99989796959493929190614f09565b60405180910390f35b6102db60048036038101906102d69190614fc9565b612c64565b005b6102f760048036038101906102f291906148e3565b613107565b005b610313600480360381019061030e9190614b23565b613b04565b005b61032f600480360381019061032a91906148e3565b613bc4565b005b61034b60048036038101906103469190614b23565b6141be565b005b806001805490508110610395576040517f08c379a000000000000000000000000000000000000000000000000000000000815260040161038c906150c8565b60405180910390fd5b6000600182815481106103ab576103aa6150e8565b5b90600052602060002090600a020190506009600b8111156103cf576103ce614bc3565b5b8160040160009054906101000a900460ff16600b8111156103f3576103f2614bc3565b5b1415806104355750600b8081111561040e5761040d614bc3565b5b8160040160009054906101000a900460ff16600b81111561043257610431614bc3565b5b14155b806104765750600a600b81111561044f5761044e614bc3565b5b8160040160009054906101000a900460ff16600b81111561047357610472614bc3565b5b14155b6104b5576040517f08c379a00000000000000000000000000000000000000000000000000000000081526004016104ac90615163565b60405180910390fd5b826000600182815481106104cc576104cb6150e8565b5b90600052602060002090600a020190506003600b8111156104f0576104ef614bc3565b5b8160040160009054906101000a900460ff16600b81111561051457610513614bc3565b5b148061055557506005600b81111561052f5761052e614bc3565b5b8160040160009054906101000a900460ff16600b81111561055357610552614bc3565b5b145b8061059557506004600b81111561056f5761056e614bc3565b5b8160040160009054906101000a900460ff16600b81111561059357610592614bc3565b5b145b6105d4576040517f08c379a00000000000000000000000000000000000000000000000000000000081526004016105cb906151cf565b60405180910390fd5b846000600182815481106105eb576105ea6150e8565b5b90600052602060002090600a0201905060006106056142b6565b90508160050160009054906101000a900473ffffffffffffffffffffffffffffffffffffffff1673ffffffffffffffffffffffffffffffffffffffff168173ffffffffffffffffffffffffffffffffffffffff1614806106b457508160060160009054906101000a900473ffffffffffffffffffffffffffffffffffffffff1673ffffffffffffffffffffffffffffffffffffffff168173ffffffffffffffffffffffffffffffffffffffff16145b6106f3576040517f08c379a00000000000000000000000000000000000000000000000000000000081526004016106ea90615261565b60405180910390fd5b600060018981548110610709576107086150e8565b5b90600052602060002090600a0201905060006107236142b6565b90508160050160009054906101000a900473ffffffffffffffffffffffffffffffffffffffff1673ffffffffffffffffffffffffffffffffffffffff168173ffffffffffffffffffffffffffffffffffffffff161480156107b957506003600b81111561079357610792614bc3565b5b8260040160009054906101000a900460ff16600b8111156107b7576107b6614bc3565b5b145b156107f05760058260040160006101000a81548160ff0219169083600b8111156107e6576107e5614bc3565b5b0217905550610a5e565b8160060160009054906101000a900473ffffffffffffffffffffffffffffffffffffffff1673ffffffffffffffffffffffffffffffffffffffff168173ffffffffffffffffffffffffffffffffffffffff1614801561088457506003600b81111561085e5761085d614bc3565b5b8260040160009054906101000a900460ff16600b81111561088257610881614bc3565b5b145b156108bb5760048260040160006101000a81548160ff0219169083600b8111156108b1576108b0614bc3565b5b0217905550610a5d565b8160050160009054906101000a900473ffffffffffffffffffffffffffffffffffffffff1673ffffffffffffffffffffffffffffffffffffffff168173ffffffffffffffffffffffffffffffffffffffff1614801561094f57506004600b81111561092957610928614bc3565b5b8260040160009054906101000a900460ff16600b81111561094d5761094c614bc3565b5b145b806109ea57508160060160009054906101000a900473ffffffffffffffffffffffffffffffffffffffff1673ffffffffffffffffffffffffffffffffffffffff168173ffffffffffffffffffffffffffffffffffffffff161480156109e957506005600b8111156109c3576109c2614bc3565b5b8260040160009054906101000a900460ff16600b8111156109e7576109e6614bc3565b5b145b5b15610a215760068260040160006101000a81548160ff0219169083600b811115610a1757610a16614bc3565b5b0217905550610a5c565b6040517f08c379a0000000000000000000000000000000000000000000000000000000008152600401610a5390615319565b60405180910390fd5b5b5b8160060160009054906101000a900473ffffffffffffffffffffffffffffffffffffffff1673ffffffffffffffffffffffffffffffffffffffff168260050160009054906101000a900473ffffffffffffffffffffffffffffffffffffffff1673ffffffffffffffffffffffffffffffffffffffff168360040160019054906101000a900473ffffffffffffffffffffffffffffffffffffffff1673ffffffffffffffffffffffffffffffffffffffff167fc9376ddc1a096f70aba8bd8481c6d2b391b9318f2fb1da8a9994d910fd7b814285600001548660010154876002015488600301548960040160009054906101000a900460ff168a6007018b6008018c600901604051610b7698979695949392919061542f565b60405180910390a450505050505050505050565b82600073ffffffffffffffffffffffffffffffffffffffff168173ffffffffffffffffffffffffffffffffffffffff161415610bfb576040517f08c379a0000000000000000000000000000000000000000000000000000000008152600401610bf29061550e565b60405180910390fd5b600560009054906101000a900473ffffffffffffffffffffffffffffffffffffffff1673ffffffffffffffffffffffffffffffffffffffff166323b872dd610c416142b6565b30856040518463ffffffff1660e01b8152600401610c619392919061552e565b6020604051808303816000875af1158015610c80573d6000803e3d6000fd5b505050506040513d601f19601f82011682018060405250810190610ca4919061559d565b610cad57600080fd5b610cb88484846142be565b50505050565b80600060018281548110610cd557610cd46150e8565b5b90600052602060002090600a020190506000600b811115610cf957610cf8614bc3565b5b8160040160009054906101000a900460ff16600b811115610d1d57610d1c614bc3565b5b14610d5d576040517f08c379a0000000000000000000000000000000000000000000000000000000008152600401610d5490615616565b60405180910390fd5b82600060018281548110610d7457610d736150e8565b5b90600052602060002090600a020190506000610d8e6142b6565b90508160050160009054906101000a900473ffffffffffffffffffffffffffffffffffffffff1673ffffffffffffffffffffffffffffffffffffffff168173ffffffffffffffffffffffffffffffffffffffff1614610e22576040517f08c379a0000000000000000000000000000000000000000000000000000000008152600401610e1990615682565b60405180910390fd5b600060018781548110610e3857610e376150e8565b5b90600052602060002090600a0201905060028160040160006101000a81548160ff0219169083600b811115610e7057610e6f614bc3565b5b0217905550600560009054906101000a900473ffffffffffffffffffffffffffffffffffffffff1673ffffffffffffffffffffffffffffffffffffffff1663a9059cbb8260040160019054906101000a900473ffffffffffffffffffffffffffffffffffffffff1683600101546040518363ffffffff1660e01b8152600401610efa9291906156a2565b6020604051808303816000875af1158015610f19573d6000803e3d6000fd5b505050506040513d601f19601f82011682018060405250810190610f3d919061559d565b610f4657600080fd5b8060060160009054906101000a900473ffffffffffffffffffffffffffffffffffffffff1673ffffffffffffffffffffffffffffffffffffffff168160050160009054906101000a900473ffffffffffffffffffffffffffffffffffffffff1673ffffffffffffffffffffffffffffffffffffffff168260040160019054906101000a900473ffffffffffffffffffffffffffffffffffffffff1673ffffffffffffffffffffffffffffffffffffffff167fc9376ddc1a096f70aba8bd8481c6d2b391b9318f2fb1da8a9994d910fd7b814284600001548560010154866002015487600301548860040160009054906101000a900460ff16896007018a6008018b60090160405161105e98979695949392919061542f565b60405180910390a450505050505050565b60008060008060005b600180549050811015611270576009600b81111561109957611098614bc3565b5b600182815481106110ad576110ac6150e8565b5b90600052602060002090600a020160040160009054906101000a900460ff16600b8111156110de576110dd614bc3565b5b14801561115b57508573ffffffffffffffffffffffffffffffffffffffff1660018281548110611111576111106150e8565b5b90600052602060002090600a020160040160019054906101000a900473ffffffffffffffffffffffffffffffffffffffff1673ffffffffffffffffffffffffffffffffffffffff16145b1561117357828061116b906156fa565b93505061125d565b600b8081111561118657611185614bc3565b5b6001828154811061119a576111996150e8565b5b90600052602060002090600a020160040160009054906101000a900460ff16600b8111156111cb576111ca614bc3565b5b14801561124857508573ffffffffffffffffffffffffffffffffffffffff16600182815481106111fe576111fd6150e8565b5b90600052602060002090600a020160040160019054906101000a900473ffffffffffffffffffffffffffffffffffffffff1673ffffffffffffffffffffffffffffffffffffffff16145b1561125c578180611258906156fa565b9250505b5b8080611268906156fa565b915050611078565b508181935093505050915091565b60606000600260008473ffffffffffffffffffffffffffffffffffffffff1673ffffffffffffffffffffffffffffffffffffffff1681526020019081526020016000205467ffffffffffffffff8111156112db576112da614989565b5b60405190808252806020026020018201604052801561131457816020015b611301614748565b8152602001906001900390816112f95790505b5090506000805b60018054905081101561172a578473ffffffffffffffffffffffffffffffffffffffff1660018281548110611353576113526150e8565b5b90600052602060002090600a020160040160019054906101000a900473ffffffffffffffffffffffffffffffffffffffff1673ffffffffffffffffffffffffffffffffffffffff16141561171757600181815481106113b5576113b46150e8565b5b90600052602060002090600a020160405180610160016040529081600082015481526020016001820154815260200160028201548152602001600382015481526020016004820160009054906101000a900460ff16600b81111561141c5761141b614bc3565b5b600b81111561142e5761142d614bc3565b5b81526020016004820160019054906101000a900473ffffffffffffffffffffffffffffffffffffffff1673ffffffffffffffffffffffffffffffffffffffff1673ffffffffffffffffffffffffffffffffffffffff1681526020016005820160009054906101000a900473ffffffffffffffffffffffffffffffffffffffff1673ffffffffffffffffffffffffffffffffffffffff1673ffffffffffffffffffffffffffffffffffffffff1681526020016006820160009054906101000a900473ffffffffffffffffffffffffffffffffffffffff1673ffffffffffffffffffffffffffffffffffffffff1673ffffffffffffffffffffffffffffffffffffffff16815260200160078201805461154490615368565b80601f016020809104026020016040519081016040528092919081815260200182805461157090615368565b80156115bd5780601f10611592576101008083540402835291602001916115bd565b820191906000526020600020905b8154815290600101906020018083116115a057829003601f168201915b505050505081526020016008820180546115d690615368565b80601f016020809104026020016040519081016040528092919081815260200182805461160290615368565b801561164f5780601f106116245761010080835404028352916020019161164f565b820191906000526020600020905b81548152906001019060200180831161163257829003601f168201915b5050505050815260200160098201805461166890615368565b80601f016020809104026020016040519081016040528092919081815260200182805461169490615368565b80156116e15780601f106116b6576101008083540402835291602001916116e1565b820191906000526020600020905b8154815290600101906020018083116116c457829003601f168201915b5050505050815250508383815181106116fd576116fc6150e8565b5b60200260200101819052508180611713906156fa565b9250505b8080611722906156fa565b91505061131b565b508192505050919050565b8060006001828154811061174c5761174b6150e8565b5b90600052602060002090600a020190506000600b8111156117705761176f614bc3565b5b8160040160009054906101000a900460ff16600b81111561179457611793614bc3565b5b146117d4576040517f08c379a00000000000000000000000000000000000000000000000000000000081526004016117cb9061578f565b60405180910390fd5b826000600182815481106117eb576117ea6150e8565b5b90600052602060002090600a0201905060006118056142b6565b90508160040160019054906101000a900473ffffffffffffffffffffffffffffffffffffffff1673ffffffffffffffffffffffffffffffffffffffff168173ffffffffffffffffffffffffffffffffffffffff1614611899576040517f08c379a0000000000000000000000000000000000000000000000000000000008152600401611890906157fb565b60405180910390fd5b6000600187815481106118af576118ae6150e8565b5b90600052602060002090600a02019050600b8160040160006101000a81548160ff0219169083600b8111156118e7576118e6614bc3565b5b0217905550600560009054906101000a900473ffffffffffffffffffffffffffffffffffffffff1673ffffffffffffffffffffffffffffffffffffffff1663a9059cbb8260040160019054906101000a900473ffffffffffffffffffffffffffffffffffffffff1683600101546040518363ffffffff1660e01b81526004016119719291906156a2565b6020604051808303816000875af1158015611990573d6000803e3d6000fd5b505050506040513d601f19601f820116820180604052508101906119b4919061559d565b6119bd57600080fd5b8060060160009054906101000a900473ffffffffffffffffffffffffffffffffffffffff1673ffffffffffffffffffffffffffffffffffffffff168160050160009054906101000a900473ffffffffffffffffffffffffffffffffffffffff1673ffffffffffffffffffffffffffffffffffffffff168260040160019054906101000a900473ffffffffffffffffffffffffffffffffffffffff1673ffffffffffffffffffffffffffffffffffffffff167fc9376ddc1a096f70aba8bd8481c6d2b391b9318f2fb1da8a9994d910fd7b814284600001548560010154866002015487600301548860040160009054906101000a900460ff16896007018a6008018b600901604051611ad598979695949392919061542f565b60405180910390a450505050505050565b60606000805b600180549050811015611b7a576001600b811115611b0d57611b0c614bc3565b5b60018281548110611b2157611b206150e8565b5b90600052602060002090600a020160040160009054906101000a900460ff16600b811115611b5257611b51614bc3565b5b1415611b67578180611b63906156fa565b9250505b8080611b72906156fa565b915050611aec565b5060008167ffffffffffffffff811115611b9757611b96614989565b5b604051908082528060200260200182016040528015611bd057816020015b611bbd614748565b815260200190600190039081611bb55790505b5090506000805b600180549050811015611fcc576001600b811115611bf857611bf7614bc3565b5b60018281548110611c0c57611c0b6150e8565b5b90600052602060002090600a020160040160009054906101000a900460ff16600b811115611c3d57611c3c614bc3565b5b1415611fb95760018181548110611c5757611c566150e8565b5b90600052602060002090600a020160405180610160016040529081600082015481526020016001820154815260200160028201548152602001600382015481526020016004820160009054906101000a900460ff16600b811115611cbe57611cbd614bc3565b5b600b811115611cd057611ccf614bc3565b5b81526020016004820160019054906101000a900473ffffffffffffffffffffffffffffffffffffffff1673ffffffffffffffffffffffffffffffffffffffff1673ffffffffffffffffffffffffffffffffffffffff1681526020016005820160009054906101000a900473ffffffffffffffffffffffffffffffffffffffff1673ffffffffffffffffffffffffffffffffffffffff1673ffffffffffffffffffffffffffffffffffffffff1681526020016006820160009054906101000a900473ffffffffffffffffffffffffffffffffffffffff1673ffffffffffffffffffffffffffffffffffffffff1673ffffffffffffffffffffffffffffffffffffffff168152602001600782018054611de690615368565b80601f0160208091040260200160405190810160405280929190818152602001828054611e1290615368565b8015611e5f5780601f10611e3457610100808354040283529160200191611e5f565b820191906000526020600020905b815481529060010190602001808311611e4257829003601f168201915b50505050508152602001600882018054611e7890615368565b80601f0160208091040260200160405190810160405280929190818152602001828054611ea490615368565b8015611ef15780601f10611ec657610100808354040283529160200191611ef1565b820191906000526020600020905b815481529060010190602001808311611ed457829003601f168201915b50505050508152602001600982018054611f0a90615368565b80601f0160208091040260200160405190810160405280929190818152602001828054611f3690615368565b8015611f835780601f10611f5857610100808354040283529160200191611f83565b820191906000526020600020905b815481529060010190602001808311611f6657829003601f168201915b505050505081525050838381518110611f9f57611f9e6150e8565b5b60200260200101819052508180611fb5906156fa565b9250505b8080611fc4906156fa565b915050611bd7565b5081935050505090565b611fde6142b6565b73ffffffffffffffffffffffffffffffffffffffff16611ffc6129cc565b73ffffffffffffffffffffffffffffffffffffffff1614612052576040517f08c379a000000000000000000000000000000000000000000000000000000000815260040161204990615867565b60405180910390fd5b61205c6000614684565b565b60606000600460008473ffffffffffffffffffffffffffffffffffffffff1673ffffffffffffffffffffffffffffffffffffffff1681526020019081526020016000205467ffffffffffffffff8111156120bb576120ba614989565b5b6040519080825280602002602001820160405280156120f457816020015b6120e1614748565b8152602001906001900390816120d95790505b5090506000805b60018054905081101561250a578473ffffffffffffffffffffffffffffffffffffffff1660018281548110612133576121326150e8565b5b90600052602060002090600a020160060160009054906101000a900473ffffffffffffffffffffffffffffffffffffffff1673ffffffffffffffffffffffffffffffffffffffff1614156124f75760018181548110612195576121946150e8565b5b90600052602060002090600a020160405180610160016040529081600082015481526020016001820154815260200160028201548152602001600382015481526020016004820160009054906101000a900460ff16600b8111156121fc576121fb614bc3565b5b600b81111561220e5761220d614bc3565b5b81526020016004820160019054906101000a900473ffffffffffffffffffffffffffffffffffffffff1673ffffffffffffffffffffffffffffffffffffffff1673ffffffffffffffffffffffffffffffffffffffff1681526020016005820160009054906101000a900473ffffffffffffffffffffffffffffffffffffffff1673ffffffffffffffffffffffffffffffffffffffff1673ffffffffffffffffffffffffffffffffffffffff1681526020016006820160009054906101000a900473ffffffffffffffffffffffffffffffffffffffff1673ffffffffffffffffffffffffffffffffffffffff1673ffffffffffffffffffffffffffffffffffffffff16815260200160078201805461232490615368565b80601f016020809104026020016040519081016040528092919081815260200182805461235090615368565b801561239d5780601f106123725761010080835404028352916020019161239d565b820191906000526020600020905b81548152906001019060200180831161238057829003601f168201915b505050505081526020016008820180546123b690615368565b80601f01602080910402602001604051908101604052809291908181526020018280546123e290615368565b801561242f5780601f106124045761010080835404028352916020019161242f565b820191906000526020600020905b81548152906001019060200180831161241257829003601f168201915b5050505050815260200160098201805461244890615368565b80601f016020809104026020016040519081016040528092919081815260200182805461247490615368565b80156124c15780601f10612496576101008083540402835291602001916124c1565b820191906000526020600020905b8154815290600101906020018083116124a457829003601f168201915b5050505050815250508383815181106124dd576124dc6150e8565b5b602002602001018190525081806124f3906156fa565b9250505b8080612502906156fa565b9150506120fb565b508192505050919050565b60606000600360008473ffffffffffffffffffffffffffffffffffffffff1673ffffffffffffffffffffffffffffffffffffffff1681526020019081526020016000205467ffffffffffffffff81111561257257612571614989565b5b6040519080825280602002602001820160405280156125ab57816020015b612598614748565b8152602001906001900390816125905790505b5090506000805b6001805490508110156129c1578473ffffffffffffffffffffffffffffffffffffffff16600182815481106125ea576125e96150e8565b5b90600052602060002090600a020160050160009054906101000a900473ffffffffffffffffffffffffffffffffffffffff1673ffffffffffffffffffffffffffffffffffffffff1614156129ae576001818154811061264c5761264b6150e8565b5b90600052602060002090600a020160405180610160016040529081600082015481526020016001820154815260200160028201548152602001600382015481526020016004820160009054906101000a900460ff16600b8111156126b3576126b2614bc3565b5b600b8111156126c5576126c4614bc3565b5b81526020016004820160019054906101000a900473ffffffffffffffffffffffffffffffffffffffff1673ffffffffffffffffffffffffffffffffffffffff1673ffffffffffffffffffffffffffffffffffffffff1681526020016005820160009054906101000a900473ffffffffffffffffffffffffffffffffffffffff1673ffffffffffffffffffffffffffffffffffffffff1673ffffffffffffffffffffffffffffffffffffffff1681526020016006820160009054906101000a900473ffffffffffffffffffffffffffffffffffffffff1673ffffffffffffffffffffffffffffffffffffffff1673ffffffffffffffffffffffffffffffffffffffff1681526020016007820180546127db90615368565b80601f016020809104026020016040519081016040528092919081815260200182805461280790615368565b80156128545780601f1061282957610100808354040283529160200191612854565b820191906000526020600020905b81548152906001019060200180831161283757829003601f168201915b5050505050815260200160088201805461286d90615368565b80601f016020809104026020016040519081016040528092919081815260200182805461289990615368565b80156128e65780601f106128bb576101008083540402835291602001916128e6565b820191906000526020600020905b8154815290600101906020018083116128c957829003601f168201915b505050505081526020016009820180546128ff90615368565b80601f016020809104026020016040519081016040528092919081815260200182805461292b90615368565b80156129785780601f1061294d57610100808354040283529160200191612978565b820191906000526020600020905b81548152906001019060200180831161295b57829003601f168201915b505050505081525050838381518110612994576129936150e8565b5b602002602001018190525081806129aa906156fa565b9250505b80806129b9906156fa565b9150506125b2565b508192505050919050565b60008060009054906101000a900473ffffffffffffffffffffffffffffffffffffffff16905090565b60018181548110612a0557600080fd5b90600052602060002090600a02016000915090508060000154908060010154908060020154908060030154908060040160009054906101000a900460ff16908060040160019054906101000a900473ffffffffffffffffffffffffffffffffffffffff16908060050160009054906101000a900473ffffffffffffffffffffffffffffffffffffffff16908060060160009054906101000a900473ffffffffffffffffffffffffffffffffffffffff1690806007018054612ac590615368565b80601f0160208091040260200160405190810160405280929190818152602001828054612af190615368565b8015612b3e5780601f10612b1357610100808354040283529160200191612b3e565b820191906000526020600020905b815481529060010190602001808311612b2157829003601f168201915b505050505090806008018054612b5390615368565b80601f0160208091040260200160405190810160405280929190818152602001828054612b7f90615368565b8015612bcc5780601f10612ba157610100808354040283529160200191612bcc565b820191906000526020600020905b815481529060010190602001808311612baf57829003601f168201915b505050505090806009018054612be190615368565b80601f0160208091040260200160405190810160405280929190818152602001828054612c0d90615368565b8015612c5a5780601f10612c2f57610100808354040283529160200191612c5a565b820191906000526020600020905b815481529060010190602001808311612c3d57829003601f168201915b505050505090508b565b846001805490508110612cac576040517f08c379a0000000000000000000000000000000000000000000000000000000008152600401612ca3906150c8565b60405180910390fd5b600060018281548110612cc257612cc16150e8565b5b90600052602060002090600a020190506009600b811115612ce657612ce5614bc3565b5b8160040160009054906101000a900460ff16600b811115612d0a57612d09614bc3565b5b141580612d4c5750600b80811115612d2557612d24614bc3565b5b8160040160009054906101000a900460ff16600b811115612d4957612d48614bc3565b5b14155b80612d8d5750600a600b811115612d6657612d65614bc3565b5b8160040160009054906101000a900460ff16600b811115612d8a57612d89614bc3565b5b14155b612dcc576040517f08c379a0000000000000000000000000000000000000000000000000000000008152600401612dc390615163565b60405180910390fd5b86600060018281548110612de357612de26150e8565b5b90600052602060002090600a020190506000600b811115612e0757612e06614bc3565b5b8160040160009054906101000a900460ff16600b811115612e2b57612e2a614bc3565b5b14612e6b576040517f08c379a0000000000000000000000000000000000000000000000000000000008152600401612e6290615616565b60405180910390fd5b88600060018281548110612e8257612e816150e8565b5b90600052602060002090600a020190506000612e9c6142b6565b90508160050160009054906101000a900473ffffffffffffffffffffffffffffffffffffffff1673ffffffffffffffffffffffffffffffffffffffff168173ffffffffffffffffffffffffffffffffffffffff1614612f30576040517f08c379a0000000000000000000000000000000000000000000000000000000008152600401612f2790615682565b60405180910390fd5b600060018d81548110612f4657612f456150e8565b5b90600052602060002090600a0201905080600101548a1115612f6757600080fd5b60018160040160006101000a81548160ff0219169083600b811115612f8f57612f8e614bc3565b5b02179055508b816008019080519060200190612fac9291906147f6565b508a816009019080519060200190612fc59291906147f6565b508981600201819055508881600301819055508060060160009054906101000a900473ffffffffffffffffffffffffffffffffffffffff1673ffffffffffffffffffffffffffffffffffffffff168160050160009054906101000a900473ffffffffffffffffffffffffffffffffffffffff1673ffffffffffffffffffffffffffffffffffffffff168260040160019054906101000a900473ffffffffffffffffffffffffffffffffffffffff1673ffffffffffffffffffffffffffffffffffffffff167fc9376ddc1a096f70aba8bd8481c6d2b391b9318f2fb1da8a9994d910fd7b814284600001548560010154866002015487600301548860040160009054906101000a900460ff16896007018a6008018b6009016040516130f098979695949392919061542f565b60405180910390a450505050505050505050505050565b80600180549050811061314f576040517f08c379a0000000000000000000000000000000000000000000000000000000008152600401613146906150c8565b60405180910390fd5b600060018281548110613165576131646150e8565b5b90600052602060002090600a020190506009600b81111561318957613188614bc3565b5b8160040160009054906101000a900460ff16600b8111156131ad576131ac614bc3565b5b1415806131ef5750600b808111156131c8576131c7614bc3565b5b8160040160009054906101000a900460ff16600b8111156131ec576131eb614bc3565b5b14155b806132305750600a600b81111561320957613208614bc3565b5b8160040160009054906101000a900460ff16600b81111561322d5761322c614bc3565b5b14155b61326f576040517f08c379a000000000000000000000000000000000000000000000000000000000815260040161326690615163565b60405180910390fd5b82600060018281548110613286576132856150e8565b5b90600052602060002090600a020190506006600b8111156132aa576132a9614bc3565b5b8160040160009054906101000a900460ff16600b8111156132ce576132cd614bc3565b5b148061330f57506007600b8111156132e9576132e8614bc3565b5b8160040160009054906101000a900460ff16600b81111561330d5761330c614bc3565b5b145b8061334f57506008600b81111561332957613328614bc3565b5b8160040160009054906101000a900460ff16600b81111561334d5761334c614bc3565b5b145b61338e576040517f08c379a0000000000000000000000000000000000000000000000000000000008152600401613385906158d3565b60405180910390fd5b846000600182815481106133a5576133a46150e8565b5b90600052602060002090600a0201905060006133bf6142b6565b90508160040160019054906101000a900473ffffffffffffffffffffffffffffffffffffffff1673ffffffffffffffffffffffffffffffffffffffff168173ffffffffffffffffffffffffffffffffffffffff16148061346e57508160060160009054906101000a900473ffffffffffffffffffffffffffffffffffffffff1673ffffffffffffffffffffffffffffffffffffffff168173ffffffffffffffffffffffffffffffffffffffff16145b6134ad576040517f08c379a00000000000000000000000000000000000000000000000000000000081526004016134a490615261565b60405180910390fd5b6000600189815481106134c3576134c26150e8565b5b90600052602060002090600a0201905060006134dd6142b6565b90508160040160019054906101000a900473ffffffffffffffffffffffffffffffffffffffff1673ffffffffffffffffffffffffffffffffffffffff168173ffffffffffffffffffffffffffffffffffffffff1614801561357357506006600b81111561354d5761354c614bc3565b5b8260040160009054906101000a900460ff16600b81111561357157613570614bc3565b5b145b156135aa5760078260040160006101000a81548160ff0219169083600b8111156135a05761359f614bc3565b5b02179055506139d8565b8160060160009054906101000a900473ffffffffffffffffffffffffffffffffffffffff1673ffffffffffffffffffffffffffffffffffffffff168173ffffffffffffffffffffffffffffffffffffffff1614801561363e57506006600b81111561361857613617614bc3565b5b8260040160009054906101000a900460ff16600b81111561363c5761363b614bc3565b5b145b156136755760088260040160006101000a81548160ff0219169083600b81111561366b5761366a614bc3565b5b02179055506139d7565b8160040160019054906101000a900473ffffffffffffffffffffffffffffffffffffffff1673ffffffffffffffffffffffffffffffffffffffff168173ffffffffffffffffffffffffffffffffffffffff1614801561370957506008600b8111156136e3576136e2614bc3565b5b8260040160009054906101000a900460ff16600b81111561370757613706614bc3565b5b145b806137a457508160060160009054906101000a900473ffffffffffffffffffffffffffffffffffffffff1673ffffffffffffffffffffffffffffffffffffffff168173ffffffffffffffffffffffffffffffffffffffff161480156137a357506007600b81111561377d5761377c614bc3565b5b8260040160009054906101000a900460ff16600b8111156137a1576137a0614bc3565b5b145b5b1561399b5760098260040160006101000a81548160ff0219169083600b8111156137d1576137d0614bc3565b5b0217905550600560009054906101000a900473ffffffffffffffffffffffffffffffffffffffff1673ffffffffffffffffffffffffffffffffffffffff1663a9059cbb8360050160009054906101000a900473ffffffffffffffffffffffffffffffffffffffff168460020154856001015461384d91906158f3565b6040518363ffffffff1660e01b815260040161386a9291906156a2565b6020604051808303816000875af1158015613889573d6000803e3d6000fd5b505050506040513d601f19601f820116820180604052508101906138ad919061559d565b6138b657600080fd5b600560009054906101000a900473ffffffffffffffffffffffffffffffffffffffff1673ffffffffffffffffffffffffffffffffffffffff1663a9059cbb8360060160009054906101000a900473ffffffffffffffffffffffffffffffffffffffff168460030154856002015461392d9190615927565b6040518363ffffffff1660e01b815260040161394a9291906156a2565b6020604051808303816000875af1158015613969573d6000803e3d6000fd5b505050506040513d601f19601f8201168201806040525081019061398d919061559d565b61399657600080fd5b6139d6565b6040517f08c379a00000000000000000000000000000000000000000000000000000000081526004016139cd90615a15565b60405180910390fd5b5b5b8160060160009054906101000a900473ffffffffffffffffffffffffffffffffffffffff1673ffffffffffffffffffffffffffffffffffffffff168260050160009054906101000a900473ffffffffffffffffffffffffffffffffffffffff1673ffffffffffffffffffffffffffffffffffffffff168360040160019054906101000a900473ffffffffffffffffffffffffffffffffffffffff1673ffffffffffffffffffffffffffffffffffffffff167fc9376ddc1a096f70aba8bd8481c6d2b391b9318f2fb1da8a9994d910fd7b814285600001548660010154876002015488600301548960040160009054906101000a900460ff168a6007018b6008018c600901604051613af098979695949392919061542f565b60405180910390a450505050505050505050565b613b0c6142b6565b73ffffffffffffffffffffffffffffffffffffffff16613b2a6129cc565b73ffffffffffffffffffffffffffffffffffffffff1614613b80576040517f08c379a0000000000000000000000000000000000000000000000000000000008152600401613b7790615867565b60405180910390fd5b80600560006101000a81548173ffffffffffffffffffffffffffffffffffffffff021916908373ffffffffffffffffffffffffffffffffffffffff16021790555050565b806001805490508110613c0c576040517f08c379a0000000000000000000000000000000000000000000000000000000008152600401613c03906150c8565b60405180910390fd5b600060018281548110613c2257613c216150e8565b5b90600052602060002090600a020190506009600b811115613c4657613c45614bc3565b5b8160040160009054906101000a900460ff16600b811115613c6a57613c69614bc3565b5b141580613cac5750600b80811115613c8557613c84614bc3565b5b8160040160009054906101000a900460ff16600b811115613ca957613ca8614bc3565b5b14155b80613ced5750600a600b811115613cc657613cc5614bc3565b5b8160040160009054906101000a900460ff16600b811115613cea57613ce9614bc3565b5b14155b613d2c576040517f08c379a0000000000000000000000000000000000000000000000000000000008152600401613d2390615163565b60405180910390fd5b82600060018281548110613d4357613d426150e8565b5b90600052602060002090600a020190506001600b811115613d6757613d66614bc3565b5b8160040160009054906101000a900460ff16600b811115613d8b57613d8a614bc3565b5b14613dcb576040517f08c379a0000000000000000000000000000000000000000000000000000000008152600401613dc290615aa7565b60405180910390fd5b84600060018281548110613de257613de16150e8565b5b90600052602060002090600a020190506000613dfc6142b6565b90508160040160019054906101000a900473ffffffffffffffffffffffffffffffffffffffff1673ffffffffffffffffffffffffffffffffffffffff168173ffffffffffffffffffffffffffffffffffffffff16141580613ead57508160050160009054906101000a900473ffffffffffffffffffffffffffffffffffffffff1673ffffffffffffffffffffffffffffffffffffffff168173ffffffffffffffffffffffffffffffffffffffff1614155b613eec576040517f08c379a0000000000000000000000000000000000000000000000000000000008152600401613ee390615b13565b60405180910390fd5b600060018981548110613f0257613f016150e8565b5b90600052602060002090600a020190506000613f1c6142b6565b9050600560009054906101000a900473ffffffffffffffffffffffffffffffffffffffff1673ffffffffffffffffffffffffffffffffffffffff166323b872dd823085600301546040518463ffffffff1660e01b8152600401613f819392919061552e565b6020604051808303816000875af1158015613fa0573d6000803e3d6000fd5b505050506040513d601f19601f82011682018060405250810190613fc4919061559d565b613fcd57600080fd5b808260060160006101000a81548173ffffffffffffffffffffffffffffffffffffffff021916908373ffffffffffffffffffffffffffffffffffffffff16021790555060038260040160006101000a81548160ff0219169083600b81111561403857614037614bc3565b5b0217905550600460008273ffffffffffffffffffffffffffffffffffffffff1673ffffffffffffffffffffffffffffffffffffffff168152602001908152602001600020600081548092919061408d906156fa565b91905055508160060160009054906101000a900473ffffffffffffffffffffffffffffffffffffffff1673ffffffffffffffffffffffffffffffffffffffff168260050160009054906101000a900473ffffffffffffffffffffffffffffffffffffffff1673ffffffffffffffffffffffffffffffffffffffff168360040160019054906101000a900473ffffffffffffffffffffffffffffffffffffffff1673ffffffffffffffffffffffffffffffffffffffff167fc9376ddc1a096f70aba8bd8481c6d2b391b9318f2fb1da8a9994d910fd7b814285600001548660010154876002015488600301548960040160009054906101000a900460ff168a6007018b6008018c6009016040516141aa98979695949392919061542f565b60405180910390a450505050505050505050565b6141c66142b6565b73ffffffffffffffffffffffffffffffffffffffff166141e46129cc565b73ffffffffffffffffffffffffffffffffffffffff161461423a576040517f08c379a000000000000000000000000000000000000000000000000000000000815260040161423190615867565b60405180910390fd5b600073ffffffffffffffffffffffffffffffffffffffff168173ffffffffffffffffffffffffffffffffffffffff1614156142aa576040517f08c379a00000000000000000000000000000000000000000000000000000000081526004016142a190615ba5565b60405180910390fd5b6142b381614684565b50565b600033905090565b60006142c86142b6565b905060006001805490509050600160405180610160016040528083815260200185815260200160008152602001600081526020016000600b8111156143105761430f614bc3565b5b81526020018473ffffffffffffffffffffffffffffffffffffffff1681526020018773ffffffffffffffffffffffffffffffffffffffff168152602001600073ffffffffffffffffffffffffffffffffffffffff1681526020018681526020016040518060200160405280600081525081526020016040518060200160405280600081525081525090806001815401808255809150506001900390600052602060002090600a02016000909190919091506000820151816000015560208201518160010155604082015181600201556060820151816003015560808201518160040160006101000a81548160ff0219169083600b81111561441457614413614bc3565b5b021790555060a08201518160040160016101000a81548173ffffffffffffffffffffffffffffffffffffffff021916908373ffffffffffffffffffffffffffffffffffffffff16021790555060c08201518160050160006101000a81548173ffffffffffffffffffffffffffffffffffffffff021916908373ffffffffffffffffffffffffffffffffffffffff16021790555060e08201518160060160006101000a81548173ffffffffffffffffffffffffffffffffffffffff021916908373ffffffffffffffffffffffffffffffffffffffff16021790555061010082015181600701908051906020019061450b9291906147f6565b506101208201518160080190805190602001906145299291906147f6565b506101408201518160090190805190602001906145479291906147f6565b505050600260008373ffffffffffffffffffffffffffffffffffffffff1673ffffffffffffffffffffffffffffffffffffffff168152602001908152602001600020600081548092919061459a906156fa565b9190505550600360008673ffffffffffffffffffffffffffffffffffffffff1673ffffffffffffffffffffffffffffffffffffffff16815260200190815260200160002060008154809291906145ef906156fa565b9190505550600073ffffffffffffffffffffffffffffffffffffffff168573ffffffffffffffffffffffffffffffffffffffff168373ffffffffffffffffffffffffffffffffffffffff167fc9376ddc1a096f70aba8bd8481c6d2b391b9318f2fb1da8a9994d910fd7b8142848760008060008c60405161467596959493929190615c30565b60405180910390a45050505050565b60008060009054906101000a900473ffffffffffffffffffffffffffffffffffffffff169050816000806101000a81548173ffffffffffffffffffffffffffffffffffffffff021916908373ffffffffffffffffffffffffffffffffffffffff1602179055508173ffffffffffffffffffffffffffffffffffffffff168173ffffffffffffffffffffffffffffffffffffffff167f8be0079c531659141344cd1fd0a4f28419497f9722a3daafe3b4186f6b6457e060405160405180910390a35050565b604051806101600160405280600081526020016000815260200160008152602001600081526020016000600b81111561478457614783614bc3565b5b8152602001600073ffffffffffffffffffffffffffffffffffffffff168152602001600073ffffffffffffffffffffffffffffffffffffffff168152602001600073ffffffffffffffffffffffffffffffffffffffff1681526020016060815260200160608152602001606081525090565b82805461480290615368565b90600052602060002090601f016020900481019282614824576000855561486b565b82601f1061483d57805160ff191683800117855561486b565b8280016001018555821561486b579182015b8281111561486a57825182559160200191906001019061484f565b5b509050614878919061487c565b5090565b5b8082111561489557600081600090555060010161487d565b5090565b6000604051905090565b600080fd5b600080fd5b6000819050919050565b6148c0816148ad565b81146148cb57600080fd5b50565b6000813590506148dd816148b7565b92915050565b6000602082840312156148f9576148f86148a3565b5b6000614907848285016148ce565b91505092915050565b600073ffffffffffffffffffffffffffffffffffffffff82169050919050565b600061493b82614910565b9050919050565b61494b81614930565b811461495657600080fd5b50565b60008135905061496881614942565b92915050565b600080fd5b600080fd5b6000601f19601f8301169050919050565b7f4e487b7100000000000000000000000000000000000000000000000000000000600052604160045260246000fd5b6149c182614978565b810181811067ffffffffffffffff821117156149e0576149df614989565b5b80604052505050565b60006149f3614899565b90506149ff82826149b8565b919050565b600067ffffffffffffffff821115614a1f57614a1e614989565b5b614a2882614978565b9050602081019050919050565b82818337600083830152505050565b6000614a57614a5284614a04565b6149e9565b905082815260208101848484011115614a7357614a72614973565b5b614a7e848285614a35565b509392505050565b600082601f830112614a9b57614a9a61496e565b5b8135614aab848260208601614a44565b91505092915050565b600080600060608486031215614acd57614acc6148a3565b5b6000614adb86828701614959565b935050602084013567ffffffffffffffff811115614afc57614afb6148a8565b5b614b0886828701614a86565b9250506040614b19868287016148ce565b9150509250925092565b600060208284031215614b3957614b386148a3565b5b6000614b4784828501614959565b91505092915050565b614b59816148ad565b82525050565b6000604082019050614b746000830185614b50565b614b816020830184614b50565b9392505050565b600081519050919050565b600082825260208201905092915050565b6000819050602082019050919050565b614bbd816148ad565b82525050565b7f4e487b7100000000000000000000000000000000000000000000000000000000600052602160045260246000fd5b600c8110614c0357614c02614bc3565b5b50565b6000819050614c1482614bf2565b919050565b6000614c2482614c06565b9050919050565b614c3481614c19565b82525050565b614c4381614930565b82525050565b600081519050919050565b600082825260208201905092915050565b60005b83811015614c83578082015181840152602081019050614c68565b83811115614c92576000848401525b50505050565b6000614ca382614c49565b614cad8185614c54565b9350614cbd818560208601614c65565b614cc681614978565b840191505092915050565b600061016083016000830151614cea6000860182614bb4565b506020830151614cfd6020860182614bb4565b506040830151614d106040860182614bb4565b506060830151614d236060860182614bb4565b506080830151614d366080860182614c2b565b5060a0830151614d4960a0860182614c3a565b5060c0830151614d5c60c0860182614c3a565b5060e0830151614d6f60e0860182614c3a565b50610100830151848203610100860152614d898282614c98565b915050610120830151848203610120860152614da58282614c98565b915050610140830151848203610140860152614dc18282614c98565b9150508091505092915050565b6000614dda8383614cd1565b905092915050565b6000602082019050919050565b6000614dfa82614b88565b614e048185614b93565b935083602082028501614e1685614ba4565b8060005b85811015614e525784840389528151614e338582614dce565b9450614e3e83614de2565b925060208a01995050600181019050614e1a565b50829750879550505050505092915050565b60006020820190508181036000830152614e7e8184614def565b905092915050565b614e8f81614930565b82525050565b6000602082019050614eaa6000830184614e86565b92915050565b614eb981614c19565b82525050565b600082825260208201905092915050565b6000614edb82614c49565b614ee58185614ebf565b9350614ef5818560208601614c65565b614efe81614978565b840191505092915050565b600061016082019050614f1f600083018e614b50565b614f2c602083018d614b50565b614f39604083018c614b50565b614f46606083018b614b50565b614f53608083018a614eb0565b614f6060a0830189614e86565b614f6d60c0830188614e86565b614f7a60e0830187614e86565b818103610100830152614f8d8186614ed0565b9050818103610120830152614fa28185614ed0565b9050818103610140830152614fb78184614ed0565b90509c9b505050505050505050505050565b600080600080600060a08688031215614fe557614fe46148a3565b5b6000614ff3888289016148ce565b955050602086013567ffffffffffffffff811115615014576150136148a8565b5b61502088828901614a86565b945050604086013567ffffffffffffffff811115615041576150406148a8565b5b61504d88828901614a86565b935050606061505e888289016148ce565b925050608061506f888289016148ce565b9150509295509295909350565b7f496e76616c6964206f7264657220696400000000000000000000000000000000600082015250565b60006150b2601083614ebf565b91506150bd8261507c565b602082019050919050565b600060208201905081810360008301526150e1816150a5565b9050919050565b7f4e487b7100000000000000000000000000000000000000000000000000000000600052603260045260246000fd5b7f4f7264657220697320696e616374697665000000000000000000000000000000600082015250565b600061514d601183614ebf565b915061515882615117565b602082019050919050565b6000602082019050818103600083015261517c81615140565b9050919050565b7f4f72646572206973206973206e6f7420696e207472616e7366657261626c6500600082015250565b60006151b9601f83614ebf565b91506151c482615183565b602082019050919050565b600060208201905081810360008301526151e8816151ac565b9050919050565b7f5468652073656e646572206973206e656974686572207468652073656c6c657260008201527f206e6f722064656c697665727920736572766963650000000000000000000000602082015250565b600061524b603583614ebf565b9150615256826151ef565b604082019050919050565b6000602082019050818103600083015261527a8161523e565b9050919050565b7f496c6c6567616c206f7065726174696f6e2c2063616e6e6f7420736574206f7260008201527f64657220696e207472616e73697420747769636520776974682074686520736160208201527f6d65206163636f756e7400000000000000000000000000000000000000000000604082015250565b6000615303604a83614ebf565b915061530e82615281565b606082019050919050565b60006020820190508181036000830152615332816152f6565b9050919050565b7f4e487b7100000000000000000000000000000000000000000000000000000000600052602260045260246000fd5b6000600282049050600182168061538057607f821691505b6020821081141561539457615393615339565b5b50919050565b60008190508160005260206000209050919050565b600081546153bc81615368565b6153c68186614ebf565b945060018216600081146153e157600181146153f357615426565b60ff1983168652602086019350615426565b6153fc8561539a565b60005b8381101561541e578154818901526001820191506020810190506153ff565b808801955050505b50505092915050565b600061010082019050615445600083018b614b50565b615452602083018a614b50565b61545f6040830189614b50565b61546c6060830188614b50565b6154796080830187614eb0565b81810360a083015261548b81866153af565b905081810360c083015261549f81856153af565b905081810360e08301526154b381846153af565b90509998505050505050505050565b7f4e756c6c2061646472657373206973206e6f742076616c696421000000000000600082015250565b60006154f8601a83614ebf565b9150615503826154c2565b602082019050919050565b60006020820190508181036000830152615527816154eb565b9050919050565b60006060820190506155436000830186614e86565b6155506020830185614e86565b61555d6040830184614b50565b949350505050565b60008115159050919050565b61557a81615565565b811461558557600080fd5b50565b60008151905061559781615571565b92915050565b6000602082840312156155b3576155b26148a3565b5b60006155c184828501615588565b91505092915050565b7f4f7264657220697320616c726561647920616363657074656400000000000000600082015250565b6000615600601983614ebf565b915061560b826155ca565b602082019050919050565b6000602082019050818103600083015261562f816155f3565b9050919050565b7f5468652073656e646572206973206e6f74207468652073656c6c657200000000600082015250565b600061566c601c83614ebf565b915061567782615636565b602082019050919050565b6000602082019050818103600083015261569b8161565f565b9050919050565b60006040820190506156b76000830185614e86565b6156c46020830184614b50565b9392505050565b7f4e487b7100000000000000000000000000000000000000000000000000000000600052601160045260246000fd5b6000615705826148ad565b91507fffffffffffffffffffffffffffffffffffffffffffffffffffffffffffffffff821415615738576157376156cb565b5b600182019050919050565b7f4f7264657220697320616c7265616479206265696e6720707265706172656400600082015250565b6000615779601f83614ebf565b915061578482615743565b602082019050919050565b600060208201905081810360008301526157a88161576c565b9050919050565b7f5468652073656e646572206973206e6f742074686520636c69656e7400000000600082015250565b60006157e5601c83614ebf565b91506157f0826157af565b602082019050919050565b60006020820190508181036000830152615814816157d8565b9050919050565b7f4f776e61626c653a2063616c6c6572206973206e6f7420746865206f776e6572600082015250565b6000615851602083614ebf565b915061585c8261581b565b602082019050919050565b6000602082019050818103600083015261588081615844565b9050919050565b7f4f72646572206973206973206e6f7420696e20636f6d706c657461626c650000600082015250565b60006158bd601e83614ebf565b91506158c882615887565b602082019050919050565b600060208201905081810360008301526158ec816158b0565b9050919050565b60006158fe826148ad565b9150615909836148ad565b92508282101561591c5761591b6156cb565b5b828203905092915050565b6000615932826148ad565b915061593d836148ad565b9250827fffffffffffffffffffffffffffffffffffffffffffffffffffffffffffffffff03821115615972576159716156cb565b5b828201905092915050565b7f496c6c6567616c206f7065726174696f6e2c2063616e6e6f7420636f6d706c6560008201527f7465206f726465722074776963652077697468207468652073616d652061636360208201527f6f756e7400000000000000000000000000000000000000000000000000000000604082015250565b60006159ff604483614ebf565b9150615a0a8261597d565b606082019050919050565b60006020820190508181036000830152615a2e816159f2565b9050919050565b7f4f72646572206973207374696c6c2070656e64696e67206f7220696e2070726f60008201527f6772657373000000000000000000000000000000000000000000000000000000602082015250565b6000615a91602583614ebf565b9150615a9c82615a35565b604082019050919050565b60006020820190508181036000830152615ac081615a84565b9050919050565b7f5468652073656e64657220697320636c69656e74206f722073656c6c65720000600082015250565b6000615afd601e83614ebf565b9150615b0882615ac7565b602082019050919050565b60006020820190508181036000830152615b2c81615af0565b9050919050565b7f4f776e61626c653a206e6577206f776e657220697320746865207a65726f206160008201527f6464726573730000000000000000000000000000000000000000000000000000602082015250565b6000615b8f602683614ebf565b9150615b9a82615b33565b604082019050919050565b60006020820190508181036000830152615bbe81615b82565b9050919050565b6000819050919050565b6000819050919050565b6000615bf4615bef615bea84615bc5565b615bcf565b6148ad565b9050919050565b615c0481615bd9565b82525050565b50565b6000615c1a600083614ebf565b9150615c2582615c0a565b600082019050919050565b600061010082019050615c466000830189614b50565b615c536020830188614b50565b615c606040830187615bfb565b615c6d6060830186615bfb565b615c7a6080830185614eb0565b81810360a0830152615c8c8184614ed0565b905081810360c0830152615c9f81615c0d565b905081810360e0830152615cb281615c0d565b905097965050505050505056fea2646970667358221220b8ea037e1f14e78abb719f77bb9bb03a6010584b355d1a29293c6cecaec9fe9d64736f6c634300080b0033",
  "immutableReferences": {},
  "source": "// SPDX-License-Identifier: MIT\npragma solidity ^0.8.0;\n\nimport \"./OrderHelper.sol\";\nimport \"./OrderManager.sol\";\n\n/**\n * @title Main contract that contains all functionality of the smart contract\n * @notice This contract combines all the possible functionality of the smart contract.\n */\ncontract TnoEats is OrderHelper, OrderManager {\n\n    constructor(address _eurTnoContract) {\n        eurTnoContract = _eurTnoContract;\n    }\n\n    function changeEurTnoAddress(address _eurTnoContract) external onlyOwner {\n        eurTnoContract = _eurTnoContract;\n    }\n}",
  "sourcePath": "/home/tno-eats/contracts/TnoEats.sol",
  "compiler": {
    "name": "solc",
    "version": "0.8.11+commit.d7f03943.Emscripten.clang"
  },
  "schemaVersion": "3.4.6",
  "updatedAt": "2022-03-23T09:10:01.728Z",
  "networkType": "ethereum",
  "devdoc": {
    "kind": "dev",
    "methods": {
      "acceptOrder(uint256)": {
        "params": {
          "_orderId": "Active order id"
        }
      },
      "approveOrder(uint256,string,string,uint256,uint256)": {
        "params": {
          "_orderId": "Active order id"
        }
      },
      "cancelOrder(uint256)": {
        "params": {
          "_orderId": "Active order id"
        }
      },
      "completeOrder(uint256)": {
        "params": {
          "_orderId": "Active order id"
        }
      },
      "getOrdersByClient(address)": {
        "params": {
          "_client": "Order client address."
        },
        "returns": {
          "_0": "Order[] An array containing orders."
        }
      },
      "getOrdersByDeliveryService(address)": {
        "params": {
          "_deliveryService": "Order deliverer address."
        },
        "returns": {
          "_0": "Order[] An array containing orders."
        }
      },
      "getOrdersBySeller(address)": {
        "params": {
          "_seller": "Order seller address."
        },
        "returns": {
          "_0": "Order[] An array containing orders."
        }
      },
      "owner()": {
        "details": "Returns the address of the current owner."
      },
      "placeOrder(address,string,uint256)": {
        "params": {
          "_orderInfo": "Url to the encoded order data stored in IPFS",
          "_seller": "The address of the seller"
        }
      },
      "rejectOrder(uint256)": {
        "params": {
          "_orderId": "Pending order id"
        }
      },
      "renounceOwnership()": {
        "details": "Leaves the contract without owner. It will not be possible to call `onlyOwner` functions anymore. Can only be called by the current owner. NOTE: Renouncing ownership will leave the contract without an owner, thereby removing any functionality that is only available to the owner."
      },
      "transferOrder(uint256)": {
        "params": {
          "_orderId": "Active order id"
        }
      },
      "transferOwnership(address)": {
        "details": "Transfers ownership of the contract to a new account (`newOwner`). Can only be called by the current owner."
      }
    },
    "title": "Main contract that contains all functionality of the smart contract",
    "version": 1
  },
  "userdoc": {
    "kind": "user",
    "methods": {
      "acceptOrder(uint256)": {
        "notice": "Delivery service accepts an order.         The order needs to be approved by the seller."
      },
      "approveOrder(uint256,string,string,uint256,uint256)": {
        "notice": "A seller approves an order.         Can be called only by the seller and the order needs to be pending."
      },
      "cancelOrder(uint256)": {
        "notice": "An order is cancelled by the client.         Can be called only by the client.         The order needs to be pending and not yet accepted by the seller."
      },
      "completeOrder(uint256)": {
        "notice": "An order is delivered by the delivery service to the client.         Can be called only by the delivery service or the client.         The endpoint needs to be called by both parties to reach the consensus and move the order state to Completed."
      },
      "getOrdersByClient(address)": {
        "notice": "Gets all order ids of the client by the provided address."
      },
      "getOrdersByDeliveryService(address)": {
        "notice": "Gets all order ids of the delivery service by the provided address."
      },
      "getOrdersBySeller(address)": {
        "notice": "Gets all order ids of the seller by the provided address."
      },
      "placeOrder(address,string,uint256)": {
        "notice": "A client places an order to the smart contract."
      },
      "rejectOrder(uint256)": {
        "notice": "An order is rejected by the seller.         The order needs to be pending and not yet be accepted by the seller."
      },
      "transferOrder(uint256)": {
        "notice": "An order is passed on to the delivery service by the seller.         Can be called only by the seller or the delivery service.         The endpoint needs to be called by both parties to reach the consensus and move the order state to InTransit."
      }
    },
    "notice": "This contract combines all the possible functionality of the smart contract.",
    "version": 1
  }
}